{"contracts/LoanPouchEscrow.sol":{"LoanPouchEscrow":{"abi":[{"inputs":[{"internalType":"address","name":"_binrAddress","type":"address"}],"stateMutability":"nonpayable","type":"constructor"},{"inputs":[{"internalType":"address","name":"owner","type":"address"}],"name":"OwnableInvalidOwner","type":"error"},{"inputs":[{"internalType":"address","name":"account","type":"address"}],"name":"OwnableUnauthorizedAccount","type":"error"},{"inputs":[],"name":"ReentrancyGuardReentrantCall","type":"error"},{"anonymous":false,"inputs":[{"indexed":true,"internalType":"uint256","name":"loanId","type":"uint256"},{"indexed":true,"internalType":"address","name":"guardian","type":"address"},{"indexed":false,"internalType":"uint8","name":"weightApplied","type":"uint8"}],"name":"GuardianApproved","type":"event"},{"anonymous":false,"inputs":[{"indexed":true,"internalType":"uint256","name":"loanId","type":"uint256"},{"indexed":true,"internalType":"address","name":"guardian","type":"address"}],"name":"GuardianRejected","type":"event"},{"anonymous":false,"inputs":[{"indexed":true,"internalType":"address","name":"oldWallet","type":"address"},{"indexed":false,"internalType":"address","name":"newWallet","type":"address"}],"name":"IdentityRecovered","type":"event"},{"anonymous":false,"inputs":[{"indexed":true,"internalType":"uint256","name":"loanId","type":"uint256"},{"indexed":false,"internalType":"uint8","name":"trancheNumber","type":"uint8"}],"name":"InstallmentRepaid","type":"event"},{"anonymous":false,"inputs":[{"indexed":true,"internalType":"uint256","name":"loanId","type":"uint256"},{"indexed":false,"internalType":"string","name":"reason","type":"string"}],"name":"LoanCancelled","type":"event"},{"anonymous":false,"inputs":[{"indexed":true,"internalType":"uint256","name":"loanId","type":"uint256"},{"indexed":true,"internalType":"address","name":"borrower","type":"address"}],"name":"LoanDefaulted","type":"event"},{"anonymous":false,"inputs":[{"indexed":true,"internalType":"uint256","name":"loanId","type":"uint256"},{"indexed":true,"internalType":"address","name":"borrower","type":"address"}],"name":"LoanDisbursed","type":"event"},{"anonymous":false,"inputs":[{"indexed":true,"internalType":"uint256","name":"loanId","type":"uint256"},{"indexed":true,"internalType":"address","name":"lender","type":"address"},{"indexed":false,"internalType":"uint256","name":"amount","type":"uint256"},{"indexed":false,"internalType":"uint256","name":"currentTotal","type":"uint256"}],"name":"LoanFunded","type":"event"},{"anonymous":false,"inputs":[{"indexed":true,"internalType":"uint256","name":"loanId","type":"uint256"},{"indexed":true,"internalType":"address","name":"borrower","type":"address"},{"indexed":false,"internalType":"uint256","name":"totalAmount","type":"uint256"},{"indexed":false,"internalType":"bool","name":"late","type":"bool"}],"name":"LoanRepaid","type":"event"},{"anonymous":false,"inputs":[{"indexed":true,"internalType":"uint256","name":"loanId","type":"uint256"},{"indexed":true,"internalType":"address","name":"borrower","type":"address"},{"indexed":false,"internalType":"uint256","name":"amount","type":"uint256"}],"name":"LoanRequested","type":"event"},{"anonymous":false,"inputs":[{"indexed":true,"internalType":"address","name":"previousOwner","type":"address"},{"indexed":true,"internalType":"address","name":"newOwner","type":"address"}],"name":"OwnershipTransferred","type":"event"},{"anonymous":false,"inputs":[{"indexed":true,"internalType":"uint256","name":"loanId","type":"uint256"},{"indexed":true,"internalType":"address","name":"lender","type":"address"},{"indexed":false,"internalType":"uint256","name":"amount","type":"uint256"}],"name":"RefundClaimed","type":"event"},{"anonymous":false,"inputs":[{"indexed":true,"internalType":"uint256","name":"loanId","type":"uint256"},{"indexed":true,"internalType":"address","name":"lender","type":"address"},{"indexed":false,"internalType":"uint256","name":"amount","type":"uint256"}],"name":"RepaymentClaimed","type":"event"},{"anonymous":false,"inputs":[{"indexed":true,"internalType":"uint256","name":"loanId","type":"uint256"},{"indexed":false,"internalType":"uint8","name":"trancheNumber","type":"uint8"}],"name":"TrancheClaimed","type":"event"},{"anonymous":false,"inputs":[{"indexed":true,"internalType":"address","name":"user","type":"address"},{"indexed":false,"internalType":"bool","name":"isLocked","type":"bool"}],"name":"WalletLockToggled","type":"event"},{"inputs":[{"internalType":"address","name":"","type":"address"}],"name":"activeLoansCount","outputs":[{"internalType":"uint256","name":"","type":"uint256"}],"stateMutability":"view","type":"function"},{"inputs":[{"internalType":"uint256","name":"loanId","type":"uint256"}],"name":"approveByGuardian","outputs":[],"stateMutability":"nonpayable","type":"function"},{"inputs":[{"internalType":"address","name":"oldWallet","type":"address"},{"internalType":"address","name":"newWallet","type":"address"}],"name":"approveRecovery","outputs":[],"stateMutability":"nonpayable","type":"function"},{"inputs":[{"internalType":"address","name":"","type":"address"},{"internalType":"uint256","name":"","type":"uint256"},{"internalType":"address","name":"","type":"address"}],"name":"approvedRecovery","outputs":[{"internalType":"bool","name":"","type":"bool"}],"stateMutability":"view","type":"function"},{"inputs":[],"name":"binrToken","outputs":[{"internalType":"contract IERC20","name":"","type":"address"}],"stateMutability":"view","type":"function"},{"inputs":[{"internalType":"uint256","name":"loanId","type":"uint256"}],"name":"checkFundingTimeout","outputs":[],"stateMutability":"nonpayable","type":"function"},{"inputs":[{"internalType":"uint256","name":"loanId","type":"uint256"}],"name":"claimDisbursementTranche","outputs":[],"stateMutability":"nonpayable","type":"function"},{"inputs":[{"internalType":"uint256","name":"loanId","type":"uint256"}],"name":"claimRefund","outputs":[],"stateMutability":"nonpayable","type":"function"},{"inputs":[{"internalType":"uint256","name":"loanId","type":"uint256"}],"name":"claimRepayment","outputs":[],"stateMutability":"nonpayable","type":"function"},{"inputs":[{"internalType":"uint256","name":"loanId","type":"uint256"},{"internalType":"uint256","name":"fundAmount","type":"uint256"}],"name":"fundLoan","outputs":[],"stateMutability":"nonpayable","type":"function"},{"inputs":[{"internalType":"uint256","name":"","type":"uint256"},{"internalType":"address","name":"","type":"address"}],"name":"hasGuardianVoted","outputs":[{"internalType":"bool","name":"","type":"bool"}],"stateMutability":"view","type":"function"},{"inputs":[{"internalType":"address","name":"oldWallet","type":"address"},{"internalType":"address","name":"newWallet","type":"address"}],"name":"initiateRecovery","outputs":[],"stateMutability":"nonpayable","type":"function"},{"inputs":[{"internalType":"address","name":"","type":"address"}],"name":"isLocked","outputs":[{"internalType":"bool","name":"","type":"bool"}],"stateMutability":"view","type":"function"},{"inputs":[{"internalType":"address","name":"","type":"address"}],"name":"isZkVerified","outputs":[{"internalType":"bool","name":"","type":"bool"}],"stateMutability":"view","type":"function"},{"inputs":[{"internalType":"uint256","name":"","type":"uint256"},{"internalType":"uint256","name":"","type":"uint256"}],"name":"loanContributions","outputs":[{"internalType":"address","name":"lender","type":"address"},{"internalType":"uint256","name":"amount","type":"uint256"}],"stateMutability":"view","type":"function"},{"inputs":[{"internalType":"uint256","name":"","type":"uint256"}],"name":"loans","outputs":[{"internalType":"uint256","name":"id","type":"uint256"},{"internalType":"uint256","name":"targetAmount","type":"uint256"},{"internalType":"uint256","name":"gatheredAmount","type":"uint256"},{"internalType":"uint256","name":"targetInterest","type":"uint256"},{"internalType":"address","name":"borrower","type":"address"},{"internalType":"uint8","name":"approvals","type":"uint8"},{"internalType":"uint8","name":"rejections","type":"uint8"},{"internalType":"enum LoanPouchEscrow.LoanState","name":"state","type":"uint8"},{"internalType":"uint256","name":"fundingDeadline","type":"uint256"},{"internalType":"uint256","name":"guardianDeadline","type":"uint256"},{"internalType":"uint256","name":"repaymentDeadline","type":"uint256"},{"internalType":"uint256","name":"totalRepaidAmount","type":"uint256"},{"internalType":"bool","name":"isMilestone","type":"bool"},{"internalType":"uint8","name":"claimedTranches","type":"uint8"},{"internalType":"uint8","name":"repaidTranches","type":"uint8"}],"stateMutability":"view","type":"function"},{"inputs":[{"internalType":"uint256","name":"loanId","type":"uint256"}],"name":"markDefault","outputs":[],"stateMutability":"nonpayable","type":"function"},{"inputs":[],"name":"nextLoanId","outputs":[{"internalType":"uint256","name":"","type":"uint256"}],"stateMutability":"view","type":"function"},{"inputs":[],"name":"owner","outputs":[{"internalType":"address","name":"","type":"address"}],"stateMutability":"view","type":"function"},{"inputs":[{"internalType":"uint256","name":"amount","type":"uint256"},{"internalType":"address","name":"decoyVault","type":"address"}],"name":"panicTransfer","outputs":[],"stateMutability":"nonpayable","type":"function"},{"inputs":[{"internalType":"address","name":"","type":"address"}],"name":"recoveryApprovals","outputs":[{"internalType":"uint8","name":"","type":"uint8"}],"stateMutability":"view","type":"function"},{"inputs":[{"internalType":"address","name":"","type":"address"}],"name":"recoveryNonce","outputs":[{"internalType":"uint256","name":"","type":"uint256"}],"stateMutability":"view","type":"function"},{"inputs":[{"internalType":"address","name":"","type":"address"}],"name":"recoveryTarget","outputs":[{"internalType":"address","name":"","type":"address"}],"stateMutability":"view","type":"function"},{"inputs":[{"internalType":"uint256","name":"loanId","type":"uint256"}],"name":"rejectByGuardian","outputs":[],"stateMutability":"nonpayable","type":"function"},{"inputs":[],"name":"renounceOwnership","outputs":[],"stateMutability":"nonpayable","type":"function"},{"inputs":[{"internalType":"uint256","name":"loanId","type":"uint256"}],"name":"repayLoan","outputs":[],"stateMutability":"nonpayable","type":"function"},{"inputs":[{"internalType":"uint256","name":"_targetAmount","type":"uint256"},{"internalType":"uint256","name":"_targetInterest","type":"uint256"},{"internalType":"address[3]","name":"_guardians","type":"address[3]"},{"internalType":"uint256","name":"_fundingDurationSecs","type":"uint256"},{"internalType":"uint256","name":"_repaymentDurationSecs","type":"uint256"}],"name":"requestLoan","outputs":[],"stateMutability":"nonpayable","type":"function"},{"inputs":[{"internalType":"address[3]","name":"_guardians","type":"address[3]"}],"name":"setRecoveryGuardians","outputs":[],"stateMutability":"nonpayable","type":"function"},{"inputs":[{"internalType":"address","name":"user","type":"address"},{"internalType":"bool","name":"status","type":"bool"}],"name":"setWalletLock","outputs":[],"stateMutability":"nonpayable","type":"function"},{"inputs":[{"internalType":"address","name":"newOwner","type":"address"}],"name":"transferOwnership","outputs":[],"stateMutability":"nonpayable","type":"function"},{"inputs":[{"internalType":"address","name":"","type":"address"}],"name":"trustScores","outputs":[{"internalType":"int256","name":"","type":"int256"}],"stateMutability":"view","type":"function"},{"inputs":[{"internalType":"address","name":"","type":"address"},{"internalType":"uint256","name":"","type":"uint256"}],"name":"userRecoveryGuardians","outputs":[{"internalType":"address","name":"","type":"address"}],"stateMutability":"view","type":"function"},{"inputs":[{"internalType":"address","name":"user","type":"address"},{"internalType":"bytes","name":"","type":"bytes"}],"name":"verifyIdentityProof","outputs":[],"stateMutability":"nonpayable","type":"function"}],"evm":{"bytecode":{"linkReferences":{},"object":"6080346100ec57601f62002ab238819003918201601f19168301916001600160401b038311848410176100f1578084926020946040528339810103126100ec57516001600160a01b0390818116908190036100ec5733156100d35760005460018060a01b0319903382821617600055604051933391167f8be0079c531659141344cd1fd0a4f28419497f9722a3daafe3b4186f6b6457e0600080a360017f9b779b17422d0df92223018b32b4d1fa46e071723d6817e2486d003becc55f005560015416176001556129aa9081620001088239f35b604051631e4fbdf760e01b815260006004820152602490fd5b600080fd5b634e487b7160e01b600052604160045260246000fdfe60406080815260048036101561001457600080fd5b600091823560e01c8062d878e8146122e657806306fe20311461200e5780630734a35114611fc757806312df0fc414611f8f5780631c98a2b614611da1578063349d66cf14611d4957806336630cd614611cf7578063482351d514611a6057806349bcad0a14611a285780634a4fbeec146119ea57806353ed9394146118dd5780635b7baf64146116d557806360aae920146116365780636b3ce74f146115fa578063715018a6146115a0578063771723341461156257806387c51459146115435780638da5cb5b1461151b5780639445ae04146114e35780639614ddd814611287578063a52d92cf1461118e578063a8a007e414611153578063ab777a45146110df578063ab7b1c8914610d6e578063ac9c68d414610d45578063d1a2870614610cdd578063d9f12fdf14610be1578063db2eb83714610b15578063e1d927c8146109e4578063e1ec3c68146108e1578063ed0ffc8914610520578063f2fde38b146104995763f4512bb61461018a57600080fd5b346104955761019836612553565b91338552602090600982526101b360ff8288205416156125bd565b6101bb612758565b8286526003825280862093600885019360ff855460101c1660068110156104825761044657600986015442116104115760028601928354936101fd8486612624565b9460018901958654106103dd578461021491612624565b8155828a52888652818a2082519083820182811067ffffffffffffffff8211176103ca57845233825287820190868252805490680100000000000000008210156103b7579061026891600182018155612569565b9190916103a557915181546001600160a01b0319166001600160a01b0391821617825591516001918201555483516323b872dd60e01b815233818d019081523060208201526040810188905290928992849291169082908f90829060600103925af190811561039b577f567027d9aa89256c975e4bcd5e02580005533592e2fa5ed2dab60de95722ded8939291610306918d9161036e575b506126bc565b54809682519586528501523393a35414610331575b8360016000805160206129558339815191525580f35b6201000062ff0000198254161790556203f48042019182421161035b5750600a015538808061031b565b634e487b7160e01b845260119052602483fd5b61038e9150893d8b11610394575b6103868183612585565b81019061267e565b38610300565b503d61037c565b83513d8d823e3d90fd5b634e487b7160e01b8d528c8c5260248dfd5b634e487b7160e01b8e5260418d5260248efd5b634e487b7160e01b8d5260418c5260248dfd5b825162461bcd60e51b8152808b01889052600e60248201526d115e18d959591cc81d185c99d95d60921b6044820152606490fd5b825162461bcd60e51b8152808801859052600f60248201526e119d5b991a5b99c8195e1c1a5c9959608a1b6044820152606490fd5b825162461bcd60e51b815280880185905260166024820152754e6f7420696e20676174686572696e6720706861736560501b6044820152606490fd5b634e487b7160e01b895260218852602489fd5b8280fd5b509034610495576020366003190112610495576104b4612517565b906104bd6127e0565b6001600160a01b0391821692831561050a57505082546001600160a01b0319811683178455167f8be0079c531659141344cd1fd0a4f28419497f9722a3daafe3b4186f6b6457e08380a380f35b51631e4fbdf760e01b8152908101849052602490fd5b503461049557602090816003193601126108dd5782359161053f612758565b3385526009815260ff93610558858488205416156125bd565b83865260038252828620908082019260018060a01b03948585541689526009825287818a2054166108a3576008840188815460101c169860068a1015610890576001809a0361085557600a860154421161082157888b5260058452828b20338c52845280838c2054166107ee576105cf338a612788565b156107ab57918a9593918a95938a8852600584528288203389528452603283808a209960ff199a8a8c82541617905560088752205412156000146107a4576002905b82549181610621828286166126a8565b1691828b85161785558551911681528c7f18e70e28c5841bdcdd53d1ca354744e1669c8586d8f8b72b7f3b158cdcd8185f873393a36002811015610675575b8d886000805160206129558339815191525580f35b620200009162ff00ff191617179055600b8401610693815442612624565b90558385015469d3c21bcecceda100000081106106f15750505050600d01918254161790555b5416907f9e003ed43b1d48ee01bd3dab23f09cfefaa5155ccae549cf83967adf17e849268480a3388080808481808080808080610660565b9093506107339295508782955416888854168c865180968195829463a9059cbb60e01b84528c840160209093929193604081019460018060a01b031681520152565b03925af190811561079a57899161077d575b5015610753575050506106b9565b5162461bcd60e51b815291820152600660248201526511985a5b195960d21b604482015260649150fd5b6107949150833d8511610394576103868183612585565b38610745565b82513d8b823e3d90fd5b8690610611565b50505162461bcd60e51b815291820152601960248201527f4e6f7420612064657369676e6174656420677561726469616e00000000000000604482015260649150fd5b50505162461bcd60e51b815291820152600d60248201526c105b1c9958591e481d9bdd1959609a1b604482015260649150fd5b50505162461bcd60e51b815291820152600e60248201526d159bdd1a5b99c8195e1c1a5c995960921b604482015260649150fd5b50505162461bcd60e51b81529182015260156024820152744e6f742070656e64696e6720677561726469616e7360581b604482015260649150fd5b634e487b7160e01b8b526021855260248bfd5b5162461bcd60e51b8152918201526016602482015275109bdc9c9bddd95c881dd85b1b195d081b1bd8dad95960521b604482015260649150fd5b8380fd5b5082346109e15760203660031901126109e157823581526003602052818120805492600182015492600283015490600384015490600160a01b6001900388860154169060088601548060101c60ff1692600988015494600a89015496600b8a015498600c8b01549a600d01549b8151809e8152602001528c015260608b015260808a015260ff811660a08a015260081c60ff1660c089015260068210156109ce576101e08860ff89898989898960e08801526101008701526101208601526101408501526101608401528181161515610180840152818160081c166101a084015260101c166101c0820152f35b634e487b7160e01b815260218952602490fd5b80fd5b5090346104955760209160206003193601126108dd57813591828552600360205281852093600885019384549560ff8760101c166006811015610b0257600203610afe57600b810154421115610afe578754336001600160a01b039182161497909690895b891580610aec575b15610a8a57848b52868652610a6881898d20612569565b505489163314610a81575b610a7c906126fa565b610a49565b60019950610a73565b5090929762050000929450610a9e90612709565b62ff00001916179055019082825416855260086020528420610ac08154612746565b90555416907f13b88e6866f0156d706fecfa22b678de5fc2b749c1d2307f6f47eb541385f1ec8380a380f35b50848b52868652878b20548110610a51565b8780fd5b634e487b7160e01b895260218552602489fd5b509034610495578160031936011261049557610b2f612517565b60243567ffffffffffffffff808211610bdd5736602383011215610bdd5781840135908111610bdd57369101602401116108dd5783546001600160a01b03929083163303610b90575016825260076020528120805460ff1916600117905580f35b608490602085519162461bcd60e51b8352820152602160248201527f4f6e6c792074727573746564204f7261636c6520666f72204861636b6174686f6044820152603760f91b6064820152fd5b8580fd5b5034610495578060031936011261049557826020610c4b610c006124fc565b610c08612758565b60015485516323b872dd60e01b8152338882019081526001600160a01b039384166020820152883560408201529095869493909216928492918391606090910190565b03925af1908115610cd3578491610cb4575b5015610c79578260016000805160206129558339815191525580f35b906020606492519162461bcd60e51b8352820152601560248201527414185b9a58c81d1c985b9cd9995c8819985a5b1959605a1b6044820152fd5b610ccd915060203d602011610394576103868183612585565b38610c5d565b82513d86823e3d90fd5b838234610d41576060366003190112610d4157610cf8612517565b6001600160a01b036044358181169290839003610d3d579360ff928492602096168252600d865282822060243583528652828220908252855220541690519015158152f35b8480fd5b5080fd5b838234610d415781600319360112610d415760015490516001600160a01b039091168152602090f35b503461049557602091826003193601126108dd578035913385526009845260ff92610d9e848388205416156125bd565b610da6612758565b808652600385528186209484600887015460101c1660068110156110cc5760020361109a57600b8601544211948560038801549061105c575b600d88019082825416600014610fa6578154838160101c1688811015610f6c57848260081c16811015610f2957610e8f92869262ff0000610e22610e3a94612696565b60101b169062ff0000191617855560018c0154612624565b60021c600c8b01610e4c828254612624565b905560015488516323b872dd60e01b8152338b820190815230602082015260408101939093529384926001600160a01b039092169183918f918391606090910190565b03925af1908115610f1f577fa9966d244b9c730e0af825c1a7a0ddae6976a17aad6765d9732d3d5db93f019b94939291610ecf918c91610f0857506126bc565b5460101c169351848152a214610ef8575b50505b60016000805160206129558339815191525580f35b610f0191612852565b3880610ee0565b61038e9150853d8711610394576103868183612585565b86513d8c823e3d90fd5b875162461bcd60e51b8152808a01879052601860248201527f436c61696d206e657874207472616e63686520666972737400000000000000006044820152606490fd5b875162461bcd60e51b8152808a01879052601460248201527346756c6c792072657061696420616c726561647960601b6044820152606490fd5b83945088969250610fc09150600161100996990154612624565b600c860181905560015488516323b872dd60e01b8152339381019384523060208501526040840192909252909485926001600160a01b039092169183918b918391606090910190565b03925af194851561105357509361102c91611031958792611036575b50506126bc565b612852565b610ee3565b61104c9250803d10610394576103868183612585565b3880611025565b513d87823e3d90fd5b60018801548060011b908082046002149015171561108757906064611082920490612624565b610ddf565b634e487b7160e01b8a526011875260248afd5b8360649184519162461bcd60e51b8352820152600d60248201526c4e6f7420726570617961626c6560981b6044820152fd5b634e487b7160e01b885260218552602488fd5b5034610495576060366003190112610495573660641161049557338352602090600960205261111460ff8286205416156125bd565b338452600a6020528320919083915b6003831061112f578480f35b8035926001600160a01b0384168403610bdd57826001920193818601550191611123565b838234610d41576020366003190112610d41576020916001600160a01b039082908261117d612517565b168152600b85522054169051908152f35b50346104955780600319360112610495576111a7612517565b916111b06124fc565b906111bb338561280c565b15611244575090600191828060a01b0380941693848652602094600c86528387206111e681546126fa565b90558652600b855282862091166bffffffffffffffffffffffff60a01b825416179055600e83528084209260ff19938385825416179055600d8152818520600c82528286205486528152818520903386525283209182541617905580f35b606490602084519162461bcd60e51b8352820152601760248201527f4e6f742061207265636f7665727920677561726469616e0000000000000000006044820152fd5b5090346104955781600319360112610495576112a1612517565b6112a96124fc565b6112b3338361280c565b156114af5760018060a01b0380921693848652602092600b8452808288205416921680920361147b57848652600d8352808620600c84528187205487528352808620338752835260ff9384828820541661144757858752600d8452818720600c8552828820548852845281872033885284528187209060ff1991600183825416179055868852600e8552828820918254918783169088821461143457506001889101169116179055848652600e835260028482882054161015611374578580f35b6114107fa21ddbc03abf84198e4d9ac1758f66585d389637848501302cebbcbe38bf8471946008855282882054848952838920558688528783812055600985526113d481848a205416858a52848a209060ff801983541691151516179055565b8688526006855282882054848952838920558688526103e7838920556007855282882054168388528288209060ff801983541691151516179055565b848652600c835280862061142481546126fa565b905551908152a238808080808580f35b634e487b7160e01b8b526011905260248afd5b83606492519162461bcd60e51b8352820152601060248201526f105b1c9958591e48185c1c1c9bdd995960821b6044820152fd5b5162461bcd60e51b8152808401839052600f60248201526e0a8c2e4cecae840dad2e6dac2e8c6d608b1b6044820152606490fd5b835162461bcd60e51b8152602081850152600e60248201526d2737ba10309033bab0b93234b0b760911b6044820152606490fd5b838234610d41576020366003190112610d415760209181906001600160a01b0361150b612517565b1681526006845220549051908152f35b838234610d415781600319360112610d4157905490516001600160a01b039091168152602090f35b838234610d415781600319360112610d41576020906002549051908152f35b838234610d41576020366003190112610d415760209160ff9082906001600160a01b0361158d612517565b1681526007855220541690519015158152f35b83346109e157806003193601126109e1576115b96127e0565b80546001600160a01b03198116825581906001600160a01b03167f8be0079c531659141344cd1fd0a4f28419497f9722a3daafe3b4186f6b6457e08280a380f35b838234610d41576020366003190112610d415760209160ff9082906001600160a01b03611625612517565b168152600e85522054169051908152f35b838234610d415780600319360112610d4157611650612517565b90602435801515808203610d3d577f28d3d7f2bd6ab428a99355b8c20ffc826f9061be615da2f44341df2df113aeb6926116c06020936116a560018060a01b03809816978833149081156116c8575b50612709565b868852600985528288209060ff801983541691151516179055565b51908152a280f35b905089541633148a61169f565b5091346109e15760209182600319360112610d415780356116f4612758565b3383526009845261170b60ff8685205416156125bd565b8083526003845260ff6008868520015460101c1660068110156118ca578203611897578291835b82855281865286852080548210156117cb579061175181600193612569565b503390838060a01b0390541614806117ad575b61176f575b01611732565b83865282875285611792611785838b8420612569565b5096848098015490612624565b958582528489526117a5838b8420612569565b500155611769565b50838652828752816117c1828a8920612569565b5001541515611764565b50508461181a818589946117e0821515612647565b600154865163a9059cbb60e01b8152339281019283526020830193909352919384926001600160a01b03169183918b918391604090910190565b03925af190811561188d578691611870575b5015610d3d577ff3f402280ef0a7905e124aa621b65eaeb2725c343e8b36d398ed78c29daf285c91519384523393a360016000805160206129558339815191525580f35b6118879150823d8411610394576103868183612585565b8661182c565b83513d88823e3d90fd5b845162461bcd60e51b8152808301859052600d60248201526c139bdd0818d85b98d95b1b1959609a1b6044820152606490fd5b634e487b7160e01b845260218352602484fd5b503461049557602036600319011261049557813591828452600360205281842060088101805460ff8160101c1660068110156110cc576119e65760098301544211156119e65762ff00001916620400001790558101546001600160a01b0316845260066020528184208054918261199c575b5050506060816c15185c99d95d081b5a5cdcd959609a1b7f83e3b895aa4a4ef6e066aa875cce363daec37aca73344a2035a9ddcda9fc1fe393519160208352600d6020840152820152a280f35b60001983019283116119d357505560607f83e3b895aa4a4ef6e066aa875cce363daec37aca73344a2035a9ddcda9fc1fe33861194f565b634e487b7160e01b865260119052602485fd5b8680fd5b838234610d41576020366003190112610d415760209160ff9082906001600160a01b03611a15612517565b1681526009855220541690519015158152f35b838234610d41576020366003190112610d415760209181906001600160a01b03611a50612517565b168152600c845220549051908152f35b50346104955760e0366003190112610495578135916024913660631215610d3d578051926060840184811067ffffffffffffffff821117611ce55782528360a43660a411610afe576044915b818310611cc15750505033865260209260098452611ad060ff8489205416156125bd565b8515611c8c57338752600684526002838820541015611c4c5769d3c21bcecceda1000000861015611be7575b3387526006845282872090815460019260018201809211611bd5575560025495611b25876126fa565b6002558689526003808752858a20888155600181018a905594358582015591840180546001600160a01b03191633179055885b828110611bb85750505060088201805462ff000019169055507f97e04be2fd6414727fe9d0400464568f4384aa8b06264119565ca8f6cc2a4b7a929190611ba160a43542612624565b6009820155600b60c435910155519384523393a380f35b81516001600160a01b031685820160050155908601908301611b58565b634e487b7160e01b8a5260118352848afd5b3387526007845260ff8388205416611afc57602a6084928585519362461bcd60e51b85528401528201527f5a4b204964656e746974792050726f6f6620726571756972656420666f72206c6044820152696f616e73203e3d20314d60b01b6064820152fd5b60186064928585519362461bcd60e51b85528401528201527f4d617820616374697665206c6f616e73207265616368656400000000000000006044820152fd5b60126064928585519362461bcd60e51b8552840152820152710416d6f756e74206d757374206265203e20360741b6044820152fd5b82356001600160a01b0381168103611ce157815260209283019201611aac565b8980fd5b50634e487b7160e01b86526041835285fd5b50903461049557611d0736612553565b9190845260205281832080548210156108dd5790611d2491612569565b50805460019091015491516001600160a01b0390911681526020810191909152604090f35b838234610d415780600319360112610d4157611d63612517565b6001600160a01b039081168352600a6020528183206024359360038510156109e15750602093611d929161252d565b90549060031b1c169051908152f35b503461049557602090816003193601126108dd57823592611dc0612758565b33855260098352611dd760ff8387205416156125bd565b838552600383528185206008810160ff815460101c166006811015611f7c576001036119e65785875260058552838720338852855260ff84882054166119e657611e213387612788565b156119e657858752600585528387203388528552838720805460ff191660011790556008855283872054603213611f6f57611e7e611e6860025b60ff845460081c166126a8565b825461ff00191660089190911b61ff0016178255565b8054600260ff8260081c161015611ea6575b8760016000805160206129558339815191525580f35b62ff00001916620400001790558101546001600160a01b031685526006835281852080549182611f2d575b5050507f83e3b895aa4a4ef6e066aa875cce363daec37aca73344a2035a9ddcda9fc1fe3917452656a656374656420627920677561726469616e7360581b8260156060945193808552840152820152a238808080808080611e90565b6000198301928311611f5c575055817452656a656374656420627920677561726469616e7360581b6060611ed1565b634e487b7160e01b875260119052602486fd5b611e7e611e686001611e5b565b634e487b7160e01b885260218452602488fd5b838234610d41576020366003190112610d415760209181906001600160a01b03611fb7612517565b1681526008845220549051908152f35b5090346104955781600319360112610495578160209360ff92611fe86124fc565b90358252600586528282206001600160a01b039091168252855220549151911615158152f35b50829034610d41576020806003193601126104955783359161202e612758565b3384526009825260ff612046818387205416156125bd565b8385526003835281852081600882015460101c1660068110156122d3576002036122995780870180546001600160a01b03989033908a160361226757600d83019283548581161561222d57858160081c1690838210156121f35760101c8616811161219c57918960018995936120d96120c36121179e9f97612696565b895461ff00191660089190911b61ff0016178955565b015460021c9380600154169354169188519b8c958694859363a9059cbb60e01b8552840160209093929193604081019460018060a01b031681520152565b03925af1958615612192577f7295bd8752b481dc6869531ac9c8f450952e61be3c8166e644edfd6c4cd94152959661215591899161217557506126bc565b5460081c169051908152a260016000805160206129558339815191525580f35b61218c9150863d8811610394576103868183612585565b89610300565b83513d89823e3d90fd5b865162461bcd60e51b8152808401899052602b60248201527f52657061792070726576696f7573207472616e63686520666972737420746f2060448201526a1d5b9b1bd8dac81b995e1d60aa1b6064820152608490fd5b875162461bcd60e51b81528085018a90526014602482015273105b1b081d1c985b98da195cc818db185a5b595960621b6044820152606490fd5b865162461bcd60e51b815280840189905260146024820152732737ba10309036b4b632b9ba37b732903637b0b760611b6044820152606490fd5b845162461bcd60e51b8152908101869052600c60248201526b2737ba103137b93937bbb2b960a11b6044820152606490fd5b825162461bcd60e51b81528088018590526014602482015273139bdd081858dd1a5d994bd91a5cd89d5c9cd95960621b6044820152606490fd5b634e487b7160e01b875260218852602487fd5b5082346109e157602080600319360112610d4157833592612305612758565b3383526009825261231c60ff8285205416156125bd565b838352600382528083209160ff600884015460101c1660068110156124e9576003036124ba578394845b8186528783528386208054821015612430578161236291612569565b50546001600160a01b0316331480612411575b612382575b600101612346565b81865287835261239481858820612569565b5096600180980154600c870154908181029181830414901517156123fe57888701549081156123eb576001939289926123ce920490612624565b988482528a86526123e183888420612569565b500155905061237a565b634e487b7160e01b895260128b52602489fd5b634e487b7160e01b885260118a52602488fd5b50818652878352600161242682868920612569565b5001541515612375565b50508492826124478894858b6117e0821515612647565b03925af190811561188d57869161249d575b5015610d3d577fce6a22bbf33075e9460462739ab01c9d01afbe41eb32f517824218012b2e656e91519384523393a360016000805160206129558339815191525580f35b6124b49150823d8411610394576103868183612585565b86612459565b8590606492519162461bcd60e51b8352820152600a602482015269139bdd081c995c185a5960b21b6044820152fd5b634e487b7160e01b855260218752602485fd5b602435906001600160a01b038216820361251257565b600080fd5b600435906001600160a01b038216820361251257565b600382101561253d570190600090565b634e487b7160e01b600052603260045260246000fd5b6040906003190112612512576004359060243590565b805482101561253d5760005260206000209060011b0190600090565b90601f8019910116810190811067ffffffffffffffff8211176125a757604052565b634e487b7160e01b600052604160045260246000fd5b156125c457565b60405162461bcd60e51b815260206004820152603260248201527f4c6f616e506f7563683a2057616c6c6574206973206c6f636b65642076696120604482015271534d5320656d657267656e6379206d6f646560701b6064820152608490fd5b9190820180921161263157565b634e487b7160e01b600052601160045260246000fd5b1561264e57565b60405162461bcd60e51b81526020600482015260086024820152674e6f2066756e647360c01b6044820152606490fd5b90816020910312612512575180151581036125125790565b60ff60019116019060ff821161263157565b9060ff8091169116019060ff821161263157565b156126c357565b60405162461bcd60e51b815260206004820152600f60248201526e151c985b9cd9995c8819985a5b1959608a1b6044820152606490fd5b60001981146126315760010190565b1561271057565b60405162461bcd60e51b815260206004820152600e60248201526d139bdd08185d5d1a1bdc9a5e995960921b6044820152606490fd5b90600019820191821360011661263157565b60008051602061295583398151915260028154146127765760029055565b604051633ee5aeb560e01b8152600490fd5b9060005b6003808210156127d75783600052806020526127af82600560406000200161252d565b9054911b1c6001600160a01b03908116908316146127cf5760010161278c565b505050600190565b50505050600090565b6000546001600160a01b031633036127f457565b60405163118cdaa760e01b8152336004820152602490fd5b9060005b6003808210156127d75760018060a01b038091818616600052600a60205261283c84604060002061252d565b9054911b1c16908316146127cf57600101612810565b60088101805462ff0000191662030000179055901580156129265760048201546001600160a01b03166000908152600860205260408120805460018181019390911280159184129182169115161761263157555b600482019060018060a01b039081835416600052600660205260406000208054908161290d575b5050604090600c7f2010de6ec11f83338b76cf98d4924c7ea74a036c590a8180872a82d2871c47ca938654955416950154908251918252156020820152a3565b600019820192918311612631579190915580600c6128cd565b60048201546001600160a01b03166000908152600860205260409020805461294d90612746565b90556128a656fe9b779b17422d0df92223018b32b4d1fa46e071723d6817e2486d003becc55f00a2646970667358221220f3c5641ef21a41fd60298f635c23e03e232e846456eda9c1873d53ac8501823964736f6c63430008180033","opcodes":"PUSH1 0x80 CALLVALUE PUSH2 0xEC JUMPI PUSH1 0x1F PUSH3 0x2AB2 CODESIZE DUP2 SWAP1 SUB SWAP2 DUP3 ADD PUSH1 0x1F NOT AND DUP4 ADD SWAP2 PUSH1 0x1 PUSH1 0x1 PUSH1 0x40 SHL SUB DUP4 GT DUP5 DUP5 LT OR PUSH2 0xF1 JUMPI DUP1 DUP5 SWAP3 PUSH1 0x20 SWAP5 PUSH1 0x40 MSTORE DUP4 CODECOPY DUP2 ADD SUB SLT PUSH2 0xEC JUMPI MLOAD PUSH1 0x1 PUSH1 0x1 PUSH1 0xA0 SHL SUB SWAP1 DUP2 DUP2 AND SWAP1 DUP2 SWAP1 SUB PUSH2 0xEC JUMPI CALLER ISZERO PUSH2 0xD3 JUMPI PUSH1 0x0 SLOAD PUSH1 0x1 DUP1 PUSH1 0xA0 SHL SUB NOT SWAP1 CALLER DUP3 DUP3 AND OR PUSH1 0x0 SSTORE PUSH1 0x40 MLOAD SWAP4 CALLER SWAP2 AND PUSH32 0x8BE0079C531659141344CD1FD0A4F28419497F9722A3DAAFE3B4186F6B6457E0 PUSH1 0x0 DUP1 LOG3 PUSH1 0x1 PUSH32 0x9B779B17422D0DF92223018B32B4D1FA46E071723D6817E2486D003BECC55F00 SSTORE PUSH1 0x1 SLOAD AND OR PUSH1 0x1 SSTORE PUSH2 0x29AA SWAP1 DUP2 PUSH3 0x108 DUP3 CODECOPY RETURN JUMPDEST PUSH1 0x40 MLOAD PUSH4 0x1E4FBDF7 PUSH1 0xE0 SHL DUP2 MSTORE PUSH1 0x0 PUSH1 0x4 DUP3 ADD MSTORE PUSH1 0x24 SWAP1 REVERT JUMPDEST PUSH1 0x0 DUP1 REVERT JUMPDEST PUSH4 0x4E487B71 PUSH1 0xE0 SHL PUSH1 0x0 MSTORE PUSH1 0x41 PUSH1 0x4 MSTORE PUSH1 0x24 PUSH1 0x0 REVERT INVALID PUSH1 0x40 PUSH1 0x80 DUP2 MSTORE PUSH1 0x4 DUP1 CALLDATASIZE LT ISZERO PUSH2 0x14 JUMPI PUSH1 0x0 DUP1 REVERT JUMPDEST PUSH1 0x0 SWAP2 DUP3 CALLDATALOAD PUSH1 0xE0 SHR DUP1 PUSH3 0xD878E8 EQ PUSH2 0x22E6 JUMPI DUP1 PUSH4 0x6FE2031 EQ PUSH2 0x200E JUMPI DUP1 PUSH4 0x734A351 EQ PUSH2 0x1FC7 JUMPI DUP1 PUSH4 0x12DF0FC4 EQ PUSH2 0x1F8F JUMPI DUP1 PUSH4 0x1C98A2B6 EQ PUSH2 0x1DA1 JUMPI DUP1 PUSH4 0x349D66CF EQ PUSH2 0x1D49 JUMPI DUP1 PUSH4 0x36630CD6 EQ PUSH2 0x1CF7 JUMPI DUP1 PUSH4 0x482351D5 EQ PUSH2 0x1A60 JUMPI DUP1 PUSH4 0x49BCAD0A EQ PUSH2 0x1A28 JUMPI DUP1 PUSH4 0x4A4FBEEC EQ PUSH2 0x19EA JUMPI DUP1 PUSH4 0x53ED9394 EQ PUSH2 0x18DD JUMPI DUP1 PUSH4 0x5B7BAF64 EQ PUSH2 0x16D5 JUMPI DUP1 PUSH4 0x60AAE920 EQ PUSH2 0x1636 JUMPI DUP1 PUSH4 0x6B3CE74F EQ PUSH2 0x15FA JUMPI DUP1 PUSH4 0x715018A6 EQ PUSH2 0x15A0 JUMPI DUP1 PUSH4 0x77172334 EQ PUSH2 0x1562 JUMPI DUP1 PUSH4 0x87C51459 EQ PUSH2 0x1543 JUMPI DUP1 PUSH4 0x8DA5CB5B EQ PUSH2 0x151B JUMPI DUP1 PUSH4 0x9445AE04 EQ PUSH2 0x14E3 JUMPI DUP1 PUSH4 0x9614DDD8 EQ PUSH2 0x1287 JUMPI DUP1 PUSH4 0xA52D92CF EQ PUSH2 0x118E JUMPI DUP1 PUSH4 0xA8A007E4 EQ PUSH2 0x1153 JUMPI DUP1 PUSH4 0xAB777A45 EQ PUSH2 0x10DF JUMPI DUP1 PUSH4 0xAB7B1C89 EQ PUSH2 0xD6E JUMPI DUP1 PUSH4 0xAC9C68D4 EQ PUSH2 0xD45 JUMPI DUP1 PUSH4 0xD1A28706 EQ PUSH2 0xCDD JUMPI DUP1 PUSH4 0xD9F12FDF EQ PUSH2 0xBE1 JUMPI DUP1 PUSH4 0xDB2EB837 EQ PUSH2 0xB15 JUMPI DUP1 PUSH4 0xE1D927C8 EQ PUSH2 0x9E4 JUMPI DUP1 PUSH4 0xE1EC3C68 EQ PUSH2 0x8E1 JUMPI DUP1 PUSH4 0xED0FFC89 EQ PUSH2 0x520 JUMPI DUP1 PUSH4 0xF2FDE38B EQ PUSH2 0x499 JUMPI PUSH4 0xF4512BB6 EQ PUSH2 0x18A JUMPI PUSH1 0x0 DUP1 REVERT JUMPDEST CALLVALUE PUSH2 0x495 JUMPI PUSH2 0x198 CALLDATASIZE PUSH2 0x2553 JUMP JUMPDEST SWAP2 CALLER DUP6 MSTORE PUSH1 0x20 SWAP1 PUSH1 0x9 DUP3 MSTORE PUSH2 0x1B3 PUSH1 0xFF DUP3 DUP9 KECCAK256 SLOAD AND ISZERO PUSH2 0x25BD JUMP JUMPDEST PUSH2 0x1BB PUSH2 0x2758 JUMP JUMPDEST DUP3 DUP7 MSTORE PUSH1 0x3 DUP3 MSTORE DUP1 DUP7 KECCAK256 SWAP4 PUSH1 0x8 DUP6 ADD SWAP4 PUSH1 0xFF DUP6 SLOAD PUSH1 0x10 SHR AND PUSH1 0x6 DUP2 LT ISZERO PUSH2 0x482 JUMPI PUSH2 0x446 JUMPI PUSH1 0x9 DUP7 ADD SLOAD TIMESTAMP GT PUSH2 0x411 JUMPI PUSH1 0x2 DUP7 ADD SWAP3 DUP4 SLOAD SWAP4 PUSH2 0x1FD DUP5 DUP7 PUSH2 0x2624 JUMP JUMPDEST SWAP5 PUSH1 0x1 DUP10 ADD SWAP6 DUP7 SLOAD LT PUSH2 0x3DD JUMPI DUP5 PUSH2 0x214 SWAP2 PUSH2 0x2624 JUMP JUMPDEST DUP2 SSTORE DUP3 DUP11 MSTORE DUP9 DUP7 MSTORE DUP2 DUP11 KECCAK256 DUP3 MLOAD SWAP1 DUP4 DUP3 ADD DUP3 DUP2 LT PUSH8 0xFFFFFFFFFFFFFFFF DUP3 GT OR PUSH2 0x3CA JUMPI DUP5 MSTORE CALLER DUP3 MSTORE DUP8 DUP3 ADD SWAP1 DUP7 DUP3 MSTORE DUP1 SLOAD SWAP1 PUSH9 0x10000000000000000 DUP3 LT ISZERO PUSH2 0x3B7 JUMPI SWAP1 PUSH2 0x268 SWAP2 PUSH1 0x1 DUP3 ADD DUP2 SSTORE PUSH2 0x2569 JUMP JUMPDEST SWAP2 SWAP1 SWAP2 PUSH2 0x3A5 JUMPI SWAP2 MLOAD DUP2 SLOAD PUSH1 0x1 PUSH1 0x1 PUSH1 0xA0 SHL SUB NOT AND PUSH1 0x1 PUSH1 0x1 PUSH1 0xA0 SHL SUB SWAP2 DUP3 AND OR DUP3 SSTORE SWAP2 MLOAD PUSH1 0x1 SWAP2 DUP3 ADD SSTORE SLOAD DUP4 MLOAD PUSH4 0x23B872DD PUSH1 0xE0 SHL DUP2 MSTORE CALLER DUP2 DUP14 ADD SWAP1 DUP2 MSTORE ADDRESS PUSH1 0x20 DUP3 ADD MSTORE PUSH1 0x40 DUP2 ADD DUP9 SWAP1 MSTORE SWAP1 SWAP3 DUP10 SWAP3 DUP5 SWAP3 SWAP2 AND SWAP1 DUP3 SWAP1 DUP16 SWAP1 DUP3 SWAP1 PUSH1 0x60 ADD SUB SWAP3 GAS CALL SWAP1 DUP2 ISZERO PUSH2 0x39B JUMPI PUSH32 0x567027D9AA89256C975E4BCD5E02580005533592E2FA5ED2DAB60DE95722DED8 SWAP4 SWAP3 SWAP2 PUSH2 0x306 SWAP2 DUP14 SWAP2 PUSH2 0x36E JUMPI JUMPDEST POP PUSH2 0x26BC JUMP JUMPDEST SLOAD DUP1 SWAP7 DUP3 MLOAD SWAP6 DUP7 MSTORE DUP6 ADD MSTORE CALLER SWAP4 LOG3 SLOAD EQ PUSH2 0x331 JUMPI JUMPDEST DUP4 PUSH1 0x1 PUSH1 0x0 DUP1 MLOAD PUSH1 0x20 PUSH2 0x2955 DUP4 CODECOPY DUP2 MLOAD SWAP2 MSTORE SSTORE DUP1 RETURN JUMPDEST PUSH3 0x10000 PUSH3 0xFF0000 NOT DUP3 SLOAD AND OR SWAP1 SSTORE PUSH3 0x3F480 TIMESTAMP ADD SWAP2 DUP3 TIMESTAMP GT PUSH2 0x35B JUMPI POP PUSH1 0xA ADD SSTORE CODESIZE DUP1 DUP1 PUSH2 0x31B JUMP JUMPDEST PUSH4 0x4E487B71 PUSH1 0xE0 SHL DUP5 MSTORE PUSH1 0x11 SWAP1 MSTORE PUSH1 0x24 DUP4 REVERT JUMPDEST PUSH2 0x38E SWAP2 POP DUP10 RETURNDATASIZE DUP12 GT PUSH2 0x394 JUMPI JUMPDEST PUSH2 0x386 DUP2 DUP4 PUSH2 0x2585 JUMP JUMPDEST DUP2 ADD SWAP1 PUSH2 0x267E JUMP JUMPDEST CODESIZE PUSH2 0x300 JUMP JUMPDEST POP RETURNDATASIZE PUSH2 0x37C JUMP JUMPDEST DUP4 MLOAD RETURNDATASIZE DUP14 DUP3 RETURNDATACOPY RETURNDATASIZE SWAP1 REVERT JUMPDEST PUSH4 0x4E487B71 PUSH1 0xE0 SHL DUP14 MSTORE DUP13 DUP13 MSTORE PUSH1 0x24 DUP14 REVERT JUMPDEST PUSH4 0x4E487B71 PUSH1 0xE0 SHL DUP15 MSTORE PUSH1 0x41 DUP14 MSTORE PUSH1 0x24 DUP15 REVERT JUMPDEST PUSH4 0x4E487B71 PUSH1 0xE0 SHL DUP14 MSTORE PUSH1 0x41 DUP13 MSTORE PUSH1 0x24 DUP14 REVERT JUMPDEST DUP3 MLOAD PUSH3 0x461BCD PUSH1 0xE5 SHL DUP2 MSTORE DUP1 DUP12 ADD DUP9 SWAP1 MSTORE PUSH1 0xE PUSH1 0x24 DUP3 ADD MSTORE PUSH14 0x115E18D959591CC81D185C99D95D PUSH1 0x92 SHL PUSH1 0x44 DUP3 ADD MSTORE PUSH1 0x64 SWAP1 REVERT JUMPDEST DUP3 MLOAD PUSH3 0x461BCD PUSH1 0xE5 SHL DUP2 MSTORE DUP1 DUP9 ADD DUP6 SWAP1 MSTORE PUSH1 0xF PUSH1 0x24 DUP3 ADD MSTORE PUSH15 0x119D5B991A5B99C8195E1C1A5C9959 PUSH1 0x8A SHL PUSH1 0x44 DUP3 ADD MSTORE PUSH1 0x64 SWAP1 REVERT JUMPDEST DUP3 MLOAD PUSH3 0x461BCD PUSH1 0xE5 SHL DUP2 MSTORE DUP1 DUP9 ADD DUP6 SWAP1 MSTORE PUSH1 0x16 PUSH1 0x24 DUP3 ADD MSTORE PUSH22 0x4E6F7420696E20676174686572696E67207068617365 PUSH1 0x50 SHL PUSH1 0x44 DUP3 ADD MSTORE PUSH1 0x64 SWAP1 REVERT JUMPDEST PUSH4 0x4E487B71 PUSH1 0xE0 SHL DUP10 MSTORE PUSH1 0x21 DUP9 MSTORE PUSH1 0x24 DUP10 REVERT JUMPDEST DUP3 DUP1 REVERT JUMPDEST POP SWAP1 CALLVALUE PUSH2 0x495 JUMPI PUSH1 0x20 CALLDATASIZE PUSH1 0x3 NOT ADD SLT PUSH2 0x495 JUMPI PUSH2 0x4B4 PUSH2 0x2517 JUMP JUMPDEST SWAP1 PUSH2 0x4BD PUSH2 0x27E0 JUMP JUMPDEST PUSH1 0x1 PUSH1 0x1 PUSH1 0xA0 SHL SUB SWAP2 DUP3 AND SWAP3 DUP4 ISZERO PUSH2 0x50A JUMPI POP POP DUP3 SLOAD PUSH1 0x1 PUSH1 0x1 PUSH1 0xA0 SHL SUB NOT DUP2 AND DUP4 OR DUP5 SSTORE AND PUSH32 0x8BE0079C531659141344CD1FD0A4F28419497F9722A3DAAFE3B4186F6B6457E0 DUP4 DUP1 LOG3 DUP1 RETURN JUMPDEST MLOAD PUSH4 0x1E4FBDF7 PUSH1 0xE0 SHL DUP2 MSTORE SWAP1 DUP2 ADD DUP5 SWAP1 MSTORE PUSH1 0x24 SWAP1 REVERT JUMPDEST POP CALLVALUE PUSH2 0x495 JUMPI PUSH1 0x20 SWAP1 DUP2 PUSH1 0x3 NOT CALLDATASIZE ADD SLT PUSH2 0x8DD JUMPI DUP3 CALLDATALOAD SWAP2 PUSH2 0x53F PUSH2 0x2758 JUMP JUMPDEST CALLER DUP6 MSTORE PUSH1 0x9 DUP2 MSTORE PUSH1 0xFF SWAP4 PUSH2 0x558 DUP6 DUP5 DUP9 KECCAK256 SLOAD AND ISZERO PUSH2 0x25BD JUMP JUMPDEST DUP4 DUP7 MSTORE PUSH1 0x3 DUP3 MSTORE DUP3 DUP7 KECCAK256 SWAP1 DUP1 DUP3 ADD SWAP3 PUSH1 0x1 DUP1 PUSH1 0xA0 SHL SUB SWAP5 DUP6 DUP6 SLOAD AND DUP10 MSTORE PUSH1 0x9 DUP3 MSTORE DUP8 DUP2 DUP11 KECCAK256 SLOAD AND PUSH2 0x8A3 JUMPI PUSH1 0x8 DUP5 ADD DUP9 DUP2 SLOAD PUSH1 0x10 SHR AND SWAP9 PUSH1 0x6 DUP11 LT ISZERO PUSH2 0x890 JUMPI PUSH1 0x1 DUP1 SWAP11 SUB PUSH2 0x855 JUMPI PUSH1 0xA DUP7 ADD SLOAD TIMESTAMP GT PUSH2 0x821 JUMPI DUP9 DUP12 MSTORE PUSH1 0x5 DUP5 MSTORE DUP3 DUP12 KECCAK256 CALLER DUP13 MSTORE DUP5 MSTORE DUP1 DUP4 DUP13 KECCAK256 SLOAD AND PUSH2 0x7EE JUMPI PUSH2 0x5CF CALLER DUP11 PUSH2 0x2788 JUMP JUMPDEST ISZERO PUSH2 0x7AB JUMPI SWAP2 DUP11 SWAP6 SWAP4 SWAP2 DUP11 SWAP6 SWAP4 DUP11 DUP9 MSTORE PUSH1 0x5 DUP5 MSTORE DUP3 DUP9 KECCAK256 CALLER DUP10 MSTORE DUP5 MSTORE PUSH1 0x32 DUP4 DUP1 DUP11 KECCAK256 SWAP10 PUSH1 0xFF NOT SWAP11 DUP11 DUP13 DUP3 SLOAD AND OR SWAP1 SSTORE PUSH1 0x8 DUP8 MSTORE KECCAK256 SLOAD SLT ISZERO PUSH1 0x0 EQ PUSH2 0x7A4 JUMPI PUSH1 0x2 SWAP1 JUMPDEST DUP3 SLOAD SWAP2 DUP2 PUSH2 0x621 DUP3 DUP3 DUP7 AND PUSH2 0x26A8 JUMP JUMPDEST AND SWAP2 DUP3 DUP12 DUP6 AND OR DUP6 SSTORE DUP6 MLOAD SWAP2 AND DUP2 MSTORE DUP13 PUSH32 0x18E70E28C5841BDCDD53D1CA354744E1669C8586D8F8B72B7F3B158CDCD8185F DUP8 CALLER SWAP4 LOG3 PUSH1 0x2 DUP2 LT ISZERO PUSH2 0x675 JUMPI JUMPDEST DUP14 DUP9 PUSH1 0x0 DUP1 MLOAD PUSH1 0x20 PUSH2 0x2955 DUP4 CODECOPY DUP2 MLOAD SWAP2 MSTORE SSTORE DUP1 RETURN JUMPDEST PUSH3 0x20000 SWAP2 PUSH3 0xFF00FF NOT AND OR OR SWAP1 SSTORE PUSH1 0xB DUP5 ADD PUSH2 0x693 DUP2 SLOAD TIMESTAMP PUSH2 0x2624 JUMP JUMPDEST SWAP1 SSTORE DUP4 DUP6 ADD SLOAD PUSH10 0xD3C21BCECCEDA1000000 DUP2 LT PUSH2 0x6F1 JUMPI POP POP POP POP PUSH1 0xD ADD SWAP2 DUP3 SLOAD AND OR SWAP1 SSTORE JUMPDEST SLOAD AND SWAP1 PUSH32 0x9E003ED43B1D48EE01BD3DAB23F09CFEFAA5155CCAE549CF83967ADF17E84926 DUP5 DUP1 LOG3 CODESIZE DUP1 DUP1 DUP1 DUP5 DUP2 DUP1 DUP1 DUP1 DUP1 DUP1 DUP1 PUSH2 0x660 JUMP JUMPDEST SWAP1 SWAP4 POP PUSH2 0x733 SWAP3 SWAP6 POP DUP8 DUP3 SWAP6 SLOAD AND DUP9 DUP9 SLOAD AND DUP13 DUP7 MLOAD DUP1 SWAP7 DUP2 SWAP6 DUP3 SWAP5 PUSH4 0xA9059CBB PUSH1 0xE0 SHL DUP5 MSTORE DUP13 DUP5 ADD PUSH1 0x20 SWAP1 SWAP4 SWAP3 SWAP2 SWAP4 PUSH1 0x40 DUP2 ADD SWAP5 PUSH1 0x1 DUP1 PUSH1 0xA0 SHL SUB AND DUP2 MSTORE ADD MSTORE JUMP JUMPDEST SUB SWAP3 GAS CALL SWAP1 DUP2 ISZERO PUSH2 0x79A JUMPI DUP10 SWAP2 PUSH2 0x77D JUMPI JUMPDEST POP ISZERO PUSH2 0x753 JUMPI POP POP POP PUSH2 0x6B9 JUMP JUMPDEST MLOAD PUSH3 0x461BCD PUSH1 0xE5 SHL DUP2 MSTORE SWAP2 DUP3 ADD MSTORE PUSH1 0x6 PUSH1 0x24 DUP3 ADD MSTORE PUSH6 0x11985A5B1959 PUSH1 0xD2 SHL PUSH1 0x44 DUP3 ADD MSTORE PUSH1 0x64 SWAP2 POP REVERT JUMPDEST PUSH2 0x794 SWAP2 POP DUP4 RETURNDATASIZE DUP6 GT PUSH2 0x394 JUMPI PUSH2 0x386 DUP2 DUP4 PUSH2 0x2585 JUMP JUMPDEST CODESIZE PUSH2 0x745 JUMP JUMPDEST DUP3 MLOAD RETURNDATASIZE DUP12 DUP3 RETURNDATACOPY RETURNDATASIZE SWAP1 REVERT JUMPDEST DUP7 SWAP1 PUSH2 0x611 JUMP JUMPDEST POP POP MLOAD PUSH3 0x461BCD PUSH1 0xE5 SHL DUP2 MSTORE SWAP2 DUP3 ADD MSTORE PUSH1 0x19 PUSH1 0x24 DUP3 ADD MSTORE PUSH32 0x4E6F7420612064657369676E6174656420677561726469616E00000000000000 PUSH1 0x44 DUP3 ADD MSTORE PUSH1 0x64 SWAP2 POP REVERT JUMPDEST POP POP MLOAD PUSH3 0x461BCD PUSH1 0xE5 SHL DUP2 MSTORE SWAP2 DUP3 ADD MSTORE PUSH1 0xD PUSH1 0x24 DUP3 ADD MSTORE PUSH13 0x105B1C9958591E481D9BDD1959 PUSH1 0x9A SHL PUSH1 0x44 DUP3 ADD MSTORE PUSH1 0x64 SWAP2 POP REVERT JUMPDEST POP POP MLOAD PUSH3 0x461BCD PUSH1 0xE5 SHL DUP2 MSTORE SWAP2 DUP3 ADD MSTORE PUSH1 0xE PUSH1 0x24 DUP3 ADD MSTORE PUSH14 0x159BDD1A5B99C8195E1C1A5C9959 PUSH1 0x92 SHL PUSH1 0x44 DUP3 ADD MSTORE PUSH1 0x64 SWAP2 POP REVERT JUMPDEST POP POP MLOAD PUSH3 0x461BCD PUSH1 0xE5 SHL DUP2 MSTORE SWAP2 DUP3 ADD MSTORE PUSH1 0x15 PUSH1 0x24 DUP3 ADD MSTORE PUSH21 0x4E6F742070656E64696E6720677561726469616E73 PUSH1 0x58 SHL PUSH1 0x44 DUP3 ADD MSTORE PUSH1 0x64 SWAP2 POP REVERT JUMPDEST PUSH4 0x4E487B71 PUSH1 0xE0 SHL DUP12 MSTORE PUSH1 0x21 DUP6 MSTORE PUSH1 0x24 DUP12 REVERT JUMPDEST MLOAD PUSH3 0x461BCD PUSH1 0xE5 SHL DUP2 MSTORE SWAP2 DUP3 ADD MSTORE PUSH1 0x16 PUSH1 0x24 DUP3 ADD MSTORE PUSH22 0x109BDC9C9BDDD95C881DD85B1B195D081B1BD8DAD959 PUSH1 0x52 SHL PUSH1 0x44 DUP3 ADD MSTORE PUSH1 0x64 SWAP2 POP REVERT JUMPDEST DUP4 DUP1 REVERT JUMPDEST POP DUP3 CALLVALUE PUSH2 0x9E1 JUMPI PUSH1 0x20 CALLDATASIZE PUSH1 0x3 NOT ADD SLT PUSH2 0x9E1 JUMPI DUP3 CALLDATALOAD DUP2 MSTORE PUSH1 0x3 PUSH1 0x20 MSTORE DUP2 DUP2 KECCAK256 DUP1 SLOAD SWAP3 PUSH1 0x1 DUP3 ADD SLOAD SWAP3 PUSH1 0x2 DUP4 ADD SLOAD SWAP1 PUSH1 0x3 DUP5 ADD SLOAD SWAP1 PUSH1 0x1 PUSH1 0xA0 SHL PUSH1 0x1 SWAP1 SUB DUP9 DUP7 ADD SLOAD AND SWAP1 PUSH1 0x8 DUP7 ADD SLOAD DUP1 PUSH1 0x10 SHR PUSH1 0xFF AND SWAP3 PUSH1 0x9 DUP9 ADD SLOAD SWAP5 PUSH1 0xA DUP10 ADD SLOAD SWAP7 PUSH1 0xB DUP11 ADD SLOAD SWAP9 PUSH1 0xC DUP12 ADD SLOAD SWAP11 PUSH1 0xD ADD SLOAD SWAP12 DUP2 MLOAD DUP1 SWAP15 DUP2 MSTORE PUSH1 0x20 ADD MSTORE DUP13 ADD MSTORE PUSH1 0x60 DUP12 ADD MSTORE PUSH1 0x80 DUP11 ADD MSTORE PUSH1 0xFF DUP2 AND PUSH1 0xA0 DUP11 ADD MSTORE PUSH1 0x8 SHR PUSH1 0xFF AND PUSH1 0xC0 DUP10 ADD MSTORE PUSH1 0x6 DUP3 LT ISZERO PUSH2 0x9CE JUMPI PUSH2 0x1E0 DUP9 PUSH1 0xFF DUP10 DUP10 DUP10 DUP10 DUP10 DUP10 PUSH1 0xE0 DUP9 ADD MSTORE PUSH2 0x100 DUP8 ADD MSTORE PUSH2 0x120 DUP7 ADD MSTORE PUSH2 0x140 DUP6 ADD MSTORE PUSH2 0x160 DUP5 ADD MSTORE DUP2 DUP2 AND ISZERO ISZERO PUSH2 0x180 DUP5 ADD MSTORE DUP2 DUP2 PUSH1 0x8 SHR AND PUSH2 0x1A0 DUP5 ADD MSTORE PUSH1 0x10 SHR AND PUSH2 0x1C0 DUP3 ADD MSTORE RETURN JUMPDEST PUSH4 0x4E487B71 PUSH1 0xE0 SHL DUP2 MSTORE PUSH1 0x21 DUP10 MSTORE PUSH1 0x24 SWAP1 REVERT JUMPDEST DUP1 REVERT JUMPDEST POP SWAP1 CALLVALUE PUSH2 0x495 JUMPI PUSH1 0x20 SWAP2 PUSH1 0x20 PUSH1 0x3 NOT CALLDATASIZE ADD SLT PUSH2 0x8DD JUMPI DUP2 CALLDATALOAD SWAP2 DUP3 DUP6 MSTORE PUSH1 0x3 PUSH1 0x20 MSTORE DUP2 DUP6 KECCAK256 SWAP4 PUSH1 0x8 DUP6 ADD SWAP4 DUP5 SLOAD SWAP6 PUSH1 0xFF DUP8 PUSH1 0x10 SHR AND PUSH1 0x6 DUP2 LT ISZERO PUSH2 0xB02 JUMPI PUSH1 0x2 SUB PUSH2 0xAFE JUMPI PUSH1 0xB DUP2 ADD SLOAD TIMESTAMP GT ISZERO PUSH2 0xAFE JUMPI DUP8 SLOAD CALLER PUSH1 0x1 PUSH1 0x1 PUSH1 0xA0 SHL SUB SWAP2 DUP3 AND EQ SWAP8 SWAP1 SWAP7 SWAP1 DUP10 JUMPDEST DUP10 ISZERO DUP1 PUSH2 0xAEC JUMPI JUMPDEST ISZERO PUSH2 0xA8A JUMPI DUP5 DUP12 MSTORE DUP7 DUP7 MSTORE PUSH2 0xA68 DUP2 DUP10 DUP14 KECCAK256 PUSH2 0x2569 JUMP JUMPDEST POP SLOAD DUP10 AND CALLER EQ PUSH2 0xA81 JUMPI JUMPDEST PUSH2 0xA7C SWAP1 PUSH2 0x26FA JUMP JUMPDEST PUSH2 0xA49 JUMP JUMPDEST PUSH1 0x1 SWAP10 POP PUSH2 0xA73 JUMP JUMPDEST POP SWAP1 SWAP3 SWAP8 PUSH3 0x50000 SWAP3 SWAP5 POP PUSH2 0xA9E SWAP1 PUSH2 0x2709 JUMP JUMPDEST PUSH3 0xFF0000 NOT AND OR SWAP1 SSTORE ADD SWAP1 DUP3 DUP3 SLOAD AND DUP6 MSTORE PUSH1 0x8 PUSH1 0x20 MSTORE DUP5 KECCAK256 PUSH2 0xAC0 DUP2 SLOAD PUSH2 0x2746 JUMP JUMPDEST SWAP1 SSTORE SLOAD AND SWAP1 PUSH32 0x13B88E6866F0156D706FECFA22B678DE5FC2B749C1D2307F6F47EB541385F1EC DUP4 DUP1 LOG3 DUP1 RETURN JUMPDEST POP DUP5 DUP12 MSTORE DUP7 DUP7 MSTORE DUP8 DUP12 KECCAK256 SLOAD DUP2 LT PUSH2 0xA51 JUMP JUMPDEST DUP8 DUP1 REVERT JUMPDEST PUSH4 0x4E487B71 PUSH1 0xE0 SHL DUP10 MSTORE PUSH1 0x21 DUP6 MSTORE PUSH1 0x24 DUP10 REVERT JUMPDEST POP SWAP1 CALLVALUE PUSH2 0x495 JUMPI DUP2 PUSH1 0x3 NOT CALLDATASIZE ADD SLT PUSH2 0x495 JUMPI PUSH2 0xB2F PUSH2 0x2517 JUMP JUMPDEST PUSH1 0x24 CALLDATALOAD PUSH8 0xFFFFFFFFFFFFFFFF DUP1 DUP3 GT PUSH2 0xBDD JUMPI CALLDATASIZE PUSH1 0x23 DUP4 ADD SLT ISZERO PUSH2 0xBDD JUMPI DUP2 DUP5 ADD CALLDATALOAD SWAP1 DUP2 GT PUSH2 0xBDD JUMPI CALLDATASIZE SWAP2 ADD PUSH1 0x24 ADD GT PUSH2 0x8DD JUMPI DUP4 SLOAD PUSH1 0x1 PUSH1 0x1 PUSH1 0xA0 SHL SUB SWAP3 SWAP1 DUP4 AND CALLER SUB PUSH2 0xB90 JUMPI POP AND DUP3 MSTORE PUSH1 0x7 PUSH1 0x20 MSTORE DUP2 KECCAK256 DUP1 SLOAD PUSH1 0xFF NOT AND PUSH1 0x1 OR SWAP1 SSTORE DUP1 RETURN JUMPDEST PUSH1 0x84 SWAP1 PUSH1 0x20 DUP6 MLOAD SWAP2 PUSH3 0x461BCD PUSH1 0xE5 SHL DUP4 MSTORE DUP3 ADD MSTORE PUSH1 0x21 PUSH1 0x24 DUP3 ADD MSTORE PUSH32 0x4F6E6C792074727573746564204F7261636C6520666F72204861636B6174686F PUSH1 0x44 DUP3 ADD MSTORE PUSH1 0x37 PUSH1 0xF9 SHL PUSH1 0x64 DUP3 ADD MSTORE REVERT JUMPDEST DUP6 DUP1 REVERT JUMPDEST POP CALLVALUE PUSH2 0x495 JUMPI DUP1 PUSH1 0x3 NOT CALLDATASIZE ADD SLT PUSH2 0x495 JUMPI DUP3 PUSH1 0x20 PUSH2 0xC4B PUSH2 0xC00 PUSH2 0x24FC JUMP JUMPDEST PUSH2 0xC08 PUSH2 0x2758 JUMP JUMPDEST PUSH1 0x1 SLOAD DUP6 MLOAD PUSH4 0x23B872DD PUSH1 0xE0 SHL DUP2 MSTORE CALLER DUP9 DUP3 ADD SWAP1 DUP2 MSTORE PUSH1 0x1 PUSH1 0x1 PUSH1 0xA0 SHL SUB SWAP4 DUP5 AND PUSH1 0x20 DUP3 ADD MSTORE DUP9 CALLDATALOAD PUSH1 0x40 DUP3 ADD MSTORE SWAP1 SWAP6 DUP7 SWAP5 SWAP4 SWAP1 SWAP3 AND SWAP3 DUP5 SWAP3 SWAP2 DUP4 SWAP2 PUSH1 0x60 SWAP1 SWAP2 ADD SWAP1 JUMP JUMPDEST SUB SWAP3 GAS CALL SWAP1 DUP2 ISZERO PUSH2 0xCD3 JUMPI DUP5 SWAP2 PUSH2 0xCB4 JUMPI JUMPDEST POP ISZERO PUSH2 0xC79 JUMPI DUP3 PUSH1 0x1 PUSH1 0x0 DUP1 MLOAD PUSH1 0x20 PUSH2 0x2955 DUP4 CODECOPY DUP2 MLOAD SWAP2 MSTORE SSTORE DUP1 RETURN JUMPDEST SWAP1 PUSH1 0x20 PUSH1 0x64 SWAP3 MLOAD SWAP2 PUSH3 0x461BCD PUSH1 0xE5 SHL DUP4 MSTORE DUP3 ADD MSTORE PUSH1 0x15 PUSH1 0x24 DUP3 ADD MSTORE PUSH21 0x14185B9A58C81D1C985B9CD9995C8819985A5B1959 PUSH1 0x5A SHL PUSH1 0x44 DUP3 ADD MSTORE REVERT JUMPDEST PUSH2 0xCCD SWAP2 POP PUSH1 0x20 RETURNDATASIZE PUSH1 0x20 GT PUSH2 0x394 JUMPI PUSH2 0x386 DUP2 DUP4 PUSH2 0x2585 JUMP JUMPDEST CODESIZE PUSH2 0xC5D JUMP JUMPDEST DUP3 MLOAD RETURNDATASIZE DUP7 DUP3 RETURNDATACOPY RETURNDATASIZE SWAP1 REVERT JUMPDEST DUP4 DUP3 CALLVALUE PUSH2 0xD41 JUMPI PUSH1 0x60 CALLDATASIZE PUSH1 0x3 NOT ADD SLT PUSH2 0xD41 JUMPI PUSH2 0xCF8 PUSH2 0x2517 JUMP JUMPDEST PUSH1 0x1 PUSH1 0x1 PUSH1 0xA0 SHL SUB PUSH1 0x44 CALLDATALOAD DUP2 DUP2 AND SWAP3 SWAP1 DUP4 SWAP1 SUB PUSH2 0xD3D JUMPI SWAP4 PUSH1 0xFF SWAP3 DUP5 SWAP3 PUSH1 0x20 SWAP7 AND DUP3 MSTORE PUSH1 0xD DUP7 MSTORE DUP3 DUP3 KECCAK256 PUSH1 0x24 CALLDATALOAD DUP4 MSTORE DUP7 MSTORE DUP3 DUP3 KECCAK256 SWAP1 DUP3 MSTORE DUP6 MSTORE KECCAK256 SLOAD AND SWAP1 MLOAD SWAP1 ISZERO ISZERO DUP2 MSTORE RETURN JUMPDEST DUP5 DUP1 REVERT JUMPDEST POP DUP1 REVERT JUMPDEST DUP4 DUP3 CALLVALUE PUSH2 0xD41 JUMPI DUP2 PUSH1 0x3 NOT CALLDATASIZE ADD SLT PUSH2 0xD41 JUMPI PUSH1 0x1 SLOAD SWAP1 MLOAD PUSH1 0x1 PUSH1 0x1 PUSH1 0xA0 SHL SUB SWAP1 SWAP2 AND DUP2 MSTORE PUSH1 0x20 SWAP1 RETURN JUMPDEST POP CALLVALUE PUSH2 0x495 JUMPI PUSH1 0x20 SWAP2 DUP3 PUSH1 0x3 NOT CALLDATASIZE ADD SLT PUSH2 0x8DD JUMPI DUP1 CALLDATALOAD SWAP2 CALLER DUP6 MSTORE PUSH1 0x9 DUP5 MSTORE PUSH1 0xFF SWAP3 PUSH2 0xD9E DUP5 DUP4 DUP9 KECCAK256 SLOAD AND ISZERO PUSH2 0x25BD JUMP JUMPDEST PUSH2 0xDA6 PUSH2 0x2758 JUMP JUMPDEST DUP1 DUP7 MSTORE PUSH1 0x3 DUP6 MSTORE DUP2 DUP7 KECCAK256 SWAP5 DUP5 PUSH1 0x8 DUP8 ADD SLOAD PUSH1 0x10 SHR AND PUSH1 0x6 DUP2 LT ISZERO PUSH2 0x10CC JUMPI PUSH1 0x2 SUB PUSH2 0x109A JUMPI PUSH1 0xB DUP7 ADD SLOAD TIMESTAMP GT SWAP5 DUP6 PUSH1 0x3 DUP9 ADD SLOAD SWAP1 PUSH2 0x105C JUMPI JUMPDEST PUSH1 0xD DUP9 ADD SWAP1 DUP3 DUP3 SLOAD AND PUSH1 0x0 EQ PUSH2 0xFA6 JUMPI DUP2 SLOAD DUP4 DUP2 PUSH1 0x10 SHR AND DUP9 DUP2 LT ISZERO PUSH2 0xF6C JUMPI DUP5 DUP3 PUSH1 0x8 SHR AND DUP2 LT ISZERO PUSH2 0xF29 JUMPI PUSH2 0xE8F SWAP3 DUP7 SWAP3 PUSH3 0xFF0000 PUSH2 0xE22 PUSH2 0xE3A SWAP5 PUSH2 0x2696 JUMP JUMPDEST PUSH1 0x10 SHL AND SWAP1 PUSH3 0xFF0000 NOT AND OR DUP6 SSTORE PUSH1 0x1 DUP13 ADD SLOAD PUSH2 0x2624 JUMP JUMPDEST PUSH1 0x2 SHR PUSH1 0xC DUP12 ADD PUSH2 0xE4C DUP3 DUP3 SLOAD PUSH2 0x2624 JUMP JUMPDEST SWAP1 SSTORE PUSH1 0x1 SLOAD DUP9 MLOAD PUSH4 0x23B872DD PUSH1 0xE0 SHL DUP2 MSTORE CALLER DUP12 DUP3 ADD SWAP1 DUP2 MSTORE ADDRESS PUSH1 0x20 DUP3 ADD MSTORE PUSH1 0x40 DUP2 ADD SWAP4 SWAP1 SWAP4 MSTORE SWAP4 DUP5 SWAP3 PUSH1 0x1 PUSH1 0x1 PUSH1 0xA0 SHL SUB SWAP1 SWAP3 AND SWAP2 DUP4 SWAP2 DUP16 SWAP2 DUP4 SWAP2 PUSH1 0x60 SWAP1 SWAP2 ADD SWAP1 JUMP JUMPDEST SUB SWAP3 GAS CALL SWAP1 DUP2 ISZERO PUSH2 0xF1F JUMPI PUSH32 0xA9966D244B9C730E0AF825C1A7A0DDAE6976A17AAD6765D9732D3D5DB93F019B SWAP5 SWAP4 SWAP3 SWAP2 PUSH2 0xECF SWAP2 DUP13 SWAP2 PUSH2 0xF08 JUMPI POP PUSH2 0x26BC JUMP JUMPDEST SLOAD PUSH1 0x10 SHR AND SWAP4 MLOAD DUP5 DUP2 MSTORE LOG2 EQ PUSH2 0xEF8 JUMPI JUMPDEST POP POP JUMPDEST PUSH1 0x1 PUSH1 0x0 DUP1 MLOAD PUSH1 0x20 PUSH2 0x2955 DUP4 CODECOPY DUP2 MLOAD SWAP2 MSTORE SSTORE DUP1 RETURN JUMPDEST PUSH2 0xF01 SWAP2 PUSH2 0x2852 JUMP JUMPDEST CODESIZE DUP1 PUSH2 0xEE0 JUMP JUMPDEST PUSH2 0x38E SWAP2 POP DUP6 RETURNDATASIZE DUP8 GT PUSH2 0x394 JUMPI PUSH2 0x386 DUP2 DUP4 PUSH2 0x2585 JUMP JUMPDEST DUP7 MLOAD RETURNDATASIZE DUP13 DUP3 RETURNDATACOPY RETURNDATASIZE SWAP1 REVERT JUMPDEST DUP8 MLOAD PUSH3 0x461BCD PUSH1 0xE5 SHL DUP2 MSTORE DUP1 DUP11 ADD DUP8 SWAP1 MSTORE PUSH1 0x18 PUSH1 0x24 DUP3 ADD MSTORE PUSH32 0x436C61696D206E657874207472616E6368652066697273740000000000000000 PUSH1 0x44 DUP3 ADD MSTORE PUSH1 0x64 SWAP1 REVERT JUMPDEST DUP8 MLOAD PUSH3 0x461BCD PUSH1 0xE5 SHL DUP2 MSTORE DUP1 DUP11 ADD DUP8 SWAP1 MSTORE PUSH1 0x14 PUSH1 0x24 DUP3 ADD MSTORE PUSH20 0x46756C6C792072657061696420616C7265616479 PUSH1 0x60 SHL PUSH1 0x44 DUP3 ADD MSTORE PUSH1 0x64 SWAP1 REVERT JUMPDEST DUP4 SWAP5 POP DUP9 SWAP7 SWAP3 POP PUSH2 0xFC0 SWAP2 POP PUSH1 0x1 PUSH2 0x1009 SWAP7 SWAP10 ADD SLOAD PUSH2 0x2624 JUMP JUMPDEST PUSH1 0xC DUP7 ADD DUP2 SWAP1 SSTORE PUSH1 0x1 SLOAD DUP9 MLOAD PUSH4 0x23B872DD PUSH1 0xE0 SHL DUP2 MSTORE CALLER SWAP4 DUP2 ADD SWAP4 DUP5 MSTORE ADDRESS PUSH1 0x20 DUP6 ADD MSTORE PUSH1 0x40 DUP5 ADD SWAP3 SWAP1 SWAP3 MSTORE SWAP1 SWAP5 DUP6 SWAP3 PUSH1 0x1 PUSH1 0x1 PUSH1 0xA0 SHL SUB SWAP1 SWAP3 AND SWAP2 DUP4 SWAP2 DUP12 SWAP2 DUP4 SWAP2 PUSH1 0x60 SWAP1 SWAP2 ADD SWAP1 JUMP JUMPDEST SUB SWAP3 GAS CALL SWAP5 DUP6 ISZERO PUSH2 0x1053 JUMPI POP SWAP4 PUSH2 0x102C SWAP2 PUSH2 0x1031 SWAP6 DUP8 SWAP3 PUSH2 0x1036 JUMPI JUMPDEST POP POP PUSH2 0x26BC JUMP JUMPDEST PUSH2 0x2852 JUMP JUMPDEST PUSH2 0xEE3 JUMP JUMPDEST PUSH2 0x104C SWAP3 POP DUP1 RETURNDATASIZE LT PUSH2 0x394 JUMPI PUSH2 0x386 DUP2 DUP4 PUSH2 0x2585 JUMP JUMPDEST CODESIZE DUP1 PUSH2 0x1025 JUMP JUMPDEST MLOAD RETURNDATASIZE DUP8 DUP3 RETURNDATACOPY RETURNDATASIZE SWAP1 REVERT JUMPDEST PUSH1 0x1 DUP9 ADD SLOAD DUP1 PUSH1 0x1 SHL SWAP1 DUP1 DUP3 DIV PUSH1 0x2 EQ SWAP1 ISZERO OR ISZERO PUSH2 0x1087 JUMPI SWAP1 PUSH1 0x64 PUSH2 0x1082 SWAP3 DIV SWAP1 PUSH2 0x2624 JUMP JUMPDEST PUSH2 0xDDF JUMP JUMPDEST PUSH4 0x4E487B71 PUSH1 0xE0 SHL DUP11 MSTORE PUSH1 0x11 DUP8 MSTORE PUSH1 0x24 DUP11 REVERT JUMPDEST DUP4 PUSH1 0x64 SWAP2 DUP5 MLOAD SWAP2 PUSH3 0x461BCD PUSH1 0xE5 SHL DUP4 MSTORE DUP3 ADD MSTORE PUSH1 0xD PUSH1 0x24 DUP3 ADD MSTORE PUSH13 0x4E6F7420726570617961626C65 PUSH1 0x98 SHL PUSH1 0x44 DUP3 ADD MSTORE REVERT JUMPDEST PUSH4 0x4E487B71 PUSH1 0xE0 SHL DUP9 MSTORE PUSH1 0x21 DUP6 MSTORE PUSH1 0x24 DUP9 REVERT JUMPDEST POP CALLVALUE PUSH2 0x495 JUMPI PUSH1 0x60 CALLDATASIZE PUSH1 0x3 NOT ADD SLT PUSH2 0x495 JUMPI CALLDATASIZE PUSH1 0x64 GT PUSH2 0x495 JUMPI CALLER DUP4 MSTORE PUSH1 0x20 SWAP1 PUSH1 0x9 PUSH1 0x20 MSTORE PUSH2 0x1114 PUSH1 0xFF DUP3 DUP7 KECCAK256 SLOAD AND ISZERO PUSH2 0x25BD JUMP JUMPDEST CALLER DUP5 MSTORE PUSH1 0xA PUSH1 0x20 MSTORE DUP4 KECCAK256 SWAP2 SWAP1 DUP4 SWAP2 JUMPDEST PUSH1 0x3 DUP4 LT PUSH2 0x112F JUMPI DUP5 DUP1 RETURN JUMPDEST DUP1 CALLDATALOAD SWAP3 PUSH1 0x1 PUSH1 0x1 PUSH1 0xA0 SHL SUB DUP5 AND DUP5 SUB PUSH2 0xBDD JUMPI DUP3 PUSH1 0x1 SWAP3 ADD SWAP4 DUP2 DUP7 ADD SSTORE ADD SWAP2 PUSH2 0x1123 JUMP JUMPDEST DUP4 DUP3 CALLVALUE PUSH2 0xD41 JUMPI PUSH1 0x20 CALLDATASIZE PUSH1 0x3 NOT ADD SLT PUSH2 0xD41 JUMPI PUSH1 0x20 SWAP2 PUSH1 0x1 PUSH1 0x1 PUSH1 0xA0 SHL SUB SWAP1 DUP3 SWAP1 DUP3 PUSH2 0x117D PUSH2 0x2517 JUMP JUMPDEST AND DUP2 MSTORE PUSH1 0xB DUP6 MSTORE KECCAK256 SLOAD AND SWAP1 MLOAD SWAP1 DUP2 MSTORE RETURN JUMPDEST POP CALLVALUE PUSH2 0x495 JUMPI DUP1 PUSH1 0x3 NOT CALLDATASIZE ADD SLT PUSH2 0x495 JUMPI PUSH2 0x11A7 PUSH2 0x2517 JUMP JUMPDEST SWAP2 PUSH2 0x11B0 PUSH2 0x24FC JUMP JUMPDEST SWAP1 PUSH2 0x11BB CALLER DUP6 PUSH2 0x280C JUMP JUMPDEST ISZERO PUSH2 0x1244 JUMPI POP SWAP1 PUSH1 0x1 SWAP2 DUP3 DUP1 PUSH1 0xA0 SHL SUB DUP1 SWAP5 AND SWAP4 DUP5 DUP7 MSTORE PUSH1 0x20 SWAP5 PUSH1 0xC DUP7 MSTORE DUP4 DUP8 KECCAK256 PUSH2 0x11E6 DUP2 SLOAD PUSH2 0x26FA JUMP JUMPDEST SWAP1 SSTORE DUP7 MSTORE PUSH1 0xB DUP6 MSTORE DUP3 DUP7 KECCAK256 SWAP2 AND PUSH12 0xFFFFFFFFFFFFFFFFFFFFFFFF PUSH1 0xA0 SHL DUP3 SLOAD AND OR SWAP1 SSTORE PUSH1 0xE DUP4 MSTORE DUP1 DUP5 KECCAK256 SWAP3 PUSH1 0xFF NOT SWAP4 DUP4 DUP6 DUP3 SLOAD AND OR SWAP1 SSTORE PUSH1 0xD DUP2 MSTORE DUP2 DUP6 KECCAK256 PUSH1 0xC DUP3 MSTORE DUP3 DUP7 KECCAK256 SLOAD DUP7 MSTORE DUP2 MSTORE DUP2 DUP6 KECCAK256 SWAP1 CALLER DUP7 MSTORE MSTORE DUP4 KECCAK256 SWAP2 DUP3 SLOAD AND OR SWAP1 SSTORE DUP1 RETURN JUMPDEST PUSH1 0x64 SWAP1 PUSH1 0x20 DUP5 MLOAD SWAP2 PUSH3 0x461BCD PUSH1 0xE5 SHL DUP4 MSTORE DUP3 ADD MSTORE PUSH1 0x17 PUSH1 0x24 DUP3 ADD MSTORE PUSH32 0x4E6F742061207265636F7665727920677561726469616E000000000000000000 PUSH1 0x44 DUP3 ADD MSTORE REVERT JUMPDEST POP SWAP1 CALLVALUE PUSH2 0x495 JUMPI DUP2 PUSH1 0x3 NOT CALLDATASIZE ADD SLT PUSH2 0x495 JUMPI PUSH2 0x12A1 PUSH2 0x2517 JUMP JUMPDEST PUSH2 0x12A9 PUSH2 0x24FC JUMP JUMPDEST PUSH2 0x12B3 CALLER DUP4 PUSH2 0x280C JUMP JUMPDEST ISZERO PUSH2 0x14AF JUMPI PUSH1 0x1 DUP1 PUSH1 0xA0 SHL SUB DUP1 SWAP3 AND SWAP4 DUP5 DUP7 MSTORE PUSH1 0x20 SWAP3 PUSH1 0xB DUP5 MSTORE DUP1 DUP3 DUP9 KECCAK256 SLOAD AND SWAP3 AND DUP1 SWAP3 SUB PUSH2 0x147B JUMPI DUP5 DUP7 MSTORE PUSH1 0xD DUP4 MSTORE DUP1 DUP7 KECCAK256 PUSH1 0xC DUP5 MSTORE DUP2 DUP8 KECCAK256 SLOAD DUP8 MSTORE DUP4 MSTORE DUP1 DUP7 KECCAK256 CALLER DUP8 MSTORE DUP4 MSTORE PUSH1 0xFF SWAP4 DUP5 DUP3 DUP9 KECCAK256 SLOAD AND PUSH2 0x1447 JUMPI DUP6 DUP8 MSTORE PUSH1 0xD DUP5 MSTORE DUP2 DUP8 KECCAK256 PUSH1 0xC DUP6 MSTORE DUP3 DUP9 KECCAK256 SLOAD DUP9 MSTORE DUP5 MSTORE DUP2 DUP8 KECCAK256 CALLER DUP9 MSTORE DUP5 MSTORE DUP2 DUP8 KECCAK256 SWAP1 PUSH1 0xFF NOT SWAP2 PUSH1 0x1 DUP4 DUP3 SLOAD AND OR SWAP1 SSTORE DUP7 DUP9 MSTORE PUSH1 0xE DUP6 MSTORE DUP3 DUP9 KECCAK256 SWAP2 DUP3 SLOAD SWAP2 DUP8 DUP4 AND SWAP1 DUP9 DUP3 EQ PUSH2 0x1434 JUMPI POP PUSH1 0x1 DUP9 SWAP2 ADD AND SWAP2 AND OR SWAP1 SSTORE DUP5 DUP7 MSTORE PUSH1 0xE DUP4 MSTORE PUSH1 0x2 DUP5 DUP3 DUP9 KECCAK256 SLOAD AND LT ISZERO PUSH2 0x1374 JUMPI DUP6 DUP1 RETURN JUMPDEST PUSH2 0x1410 PUSH32 0xA21DDBC03ABF84198E4D9AC1758F66585D389637848501302CEBBCBE38BF8471 SWAP5 PUSH1 0x8 DUP6 MSTORE DUP3 DUP9 KECCAK256 SLOAD DUP5 DUP10 MSTORE DUP4 DUP10 KECCAK256 SSTORE DUP7 DUP9 MSTORE DUP8 DUP4 DUP2 KECCAK256 SSTORE PUSH1 0x9 DUP6 MSTORE PUSH2 0x13D4 DUP2 DUP5 DUP11 KECCAK256 SLOAD AND DUP6 DUP11 MSTORE DUP5 DUP11 KECCAK256 SWAP1 PUSH1 0xFF DUP1 NOT DUP4 SLOAD AND SWAP2 ISZERO ISZERO AND OR SWAP1 SSTORE JUMP JUMPDEST DUP7 DUP9 MSTORE PUSH1 0x6 DUP6 MSTORE DUP3 DUP9 KECCAK256 SLOAD DUP5 DUP10 MSTORE DUP4 DUP10 KECCAK256 SSTORE DUP7 DUP9 MSTORE PUSH2 0x3E7 DUP4 DUP10 KECCAK256 SSTORE PUSH1 0x7 DUP6 MSTORE DUP3 DUP9 KECCAK256 SLOAD AND DUP4 DUP9 MSTORE DUP3 DUP9 KECCAK256 SWAP1 PUSH1 0xFF DUP1 NOT DUP4 SLOAD AND SWAP2 ISZERO ISZERO AND OR SWAP1 SSTORE JUMP JUMPDEST DUP5 DUP7 MSTORE PUSH1 0xC DUP4 MSTORE DUP1 DUP7 KECCAK256 PUSH2 0x1424 DUP2 SLOAD PUSH2 0x26FA JUMP JUMPDEST SWAP1 SSTORE MLOAD SWAP1 DUP2 MSTORE LOG2 CODESIZE DUP1 DUP1 DUP1 DUP1 DUP6 DUP1 RETURN JUMPDEST PUSH4 0x4E487B71 PUSH1 0xE0 SHL DUP12 MSTORE PUSH1 0x11 SWAP1 MSTORE PUSH1 0x24 DUP11 REVERT JUMPDEST DUP4 PUSH1 0x64 SWAP3 MLOAD SWAP2 PUSH3 0x461BCD PUSH1 0xE5 SHL DUP4 MSTORE DUP3 ADD MSTORE PUSH1 0x10 PUSH1 0x24 DUP3 ADD MSTORE PUSH16 0x105B1C9958591E48185C1C1C9BDD9959 PUSH1 0x82 SHL PUSH1 0x44 DUP3 ADD MSTORE REVERT JUMPDEST MLOAD PUSH3 0x461BCD PUSH1 0xE5 SHL DUP2 MSTORE DUP1 DUP5 ADD DUP4 SWAP1 MSTORE PUSH1 0xF PUSH1 0x24 DUP3 ADD MSTORE PUSH15 0xA8C2E4CECAE840DAD2E6DAC2E8C6D PUSH1 0x8B SHL PUSH1 0x44 DUP3 ADD MSTORE PUSH1 0x64 SWAP1 REVERT JUMPDEST DUP4 MLOAD PUSH3 0x461BCD PUSH1 0xE5 SHL DUP2 MSTORE PUSH1 0x20 DUP2 DUP6 ADD MSTORE PUSH1 0xE PUSH1 0x24 DUP3 ADD MSTORE PUSH14 0x2737BA10309033BAB0B93234B0B7 PUSH1 0x91 SHL PUSH1 0x44 DUP3 ADD MSTORE PUSH1 0x64 SWAP1 REVERT JUMPDEST DUP4 DUP3 CALLVALUE PUSH2 0xD41 JUMPI PUSH1 0x20 CALLDATASIZE PUSH1 0x3 NOT ADD SLT PUSH2 0xD41 JUMPI PUSH1 0x20 SWAP2 DUP2 SWAP1 PUSH1 0x1 PUSH1 0x1 PUSH1 0xA0 SHL SUB PUSH2 0x150B PUSH2 0x2517 JUMP JUMPDEST AND DUP2 MSTORE PUSH1 0x6 DUP5 MSTORE KECCAK256 SLOAD SWAP1 MLOAD SWAP1 DUP2 MSTORE RETURN JUMPDEST DUP4 DUP3 CALLVALUE PUSH2 0xD41 JUMPI DUP2 PUSH1 0x3 NOT CALLDATASIZE ADD SLT PUSH2 0xD41 JUMPI SWAP1 SLOAD SWAP1 MLOAD PUSH1 0x1 PUSH1 0x1 PUSH1 0xA0 SHL SUB SWAP1 SWAP2 AND DUP2 MSTORE PUSH1 0x20 SWAP1 RETURN JUMPDEST DUP4 DUP3 CALLVALUE PUSH2 0xD41 JUMPI DUP2 PUSH1 0x3 NOT CALLDATASIZE ADD SLT PUSH2 0xD41 JUMPI PUSH1 0x20 SWAP1 PUSH1 0x2 SLOAD SWAP1 MLOAD SWAP1 DUP2 MSTORE RETURN JUMPDEST DUP4 DUP3 CALLVALUE PUSH2 0xD41 JUMPI PUSH1 0x20 CALLDATASIZE PUSH1 0x3 NOT ADD SLT PUSH2 0xD41 JUMPI PUSH1 0x20 SWAP2 PUSH1 0xFF SWAP1 DUP3 SWAP1 PUSH1 0x1 PUSH1 0x1 PUSH1 0xA0 SHL SUB PUSH2 0x158D PUSH2 0x2517 JUMP JUMPDEST AND DUP2 MSTORE PUSH1 0x7 DUP6 MSTORE KECCAK256 SLOAD AND SWAP1 MLOAD SWAP1 ISZERO ISZERO DUP2 MSTORE RETURN JUMPDEST DUP4 CALLVALUE PUSH2 0x9E1 JUMPI DUP1 PUSH1 0x3 NOT CALLDATASIZE ADD SLT PUSH2 0x9E1 JUMPI PUSH2 0x15B9 PUSH2 0x27E0 JUMP JUMPDEST DUP1 SLOAD PUSH1 0x1 PUSH1 0x1 PUSH1 0xA0 SHL SUB NOT DUP2 AND DUP3 SSTORE DUP2 SWAP1 PUSH1 0x1 PUSH1 0x1 PUSH1 0xA0 SHL SUB AND PUSH32 0x8BE0079C531659141344CD1FD0A4F28419497F9722A3DAAFE3B4186F6B6457E0 DUP3 DUP1 LOG3 DUP1 RETURN JUMPDEST DUP4 DUP3 CALLVALUE PUSH2 0xD41 JUMPI PUSH1 0x20 CALLDATASIZE PUSH1 0x3 NOT ADD SLT PUSH2 0xD41 JUMPI PUSH1 0x20 SWAP2 PUSH1 0xFF SWAP1 DUP3 SWAP1 PUSH1 0x1 PUSH1 0x1 PUSH1 0xA0 SHL SUB PUSH2 0x1625 PUSH2 0x2517 JUMP JUMPDEST AND DUP2 MSTORE PUSH1 0xE DUP6 MSTORE KECCAK256 SLOAD AND SWAP1 MLOAD SWAP1 DUP2 MSTORE RETURN JUMPDEST DUP4 DUP3 CALLVALUE PUSH2 0xD41 JUMPI DUP1 PUSH1 0x3 NOT CALLDATASIZE ADD SLT PUSH2 0xD41 JUMPI PUSH2 0x1650 PUSH2 0x2517 JUMP JUMPDEST SWAP1 PUSH1 0x24 CALLDATALOAD DUP1 ISZERO ISZERO DUP1 DUP3 SUB PUSH2 0xD3D JUMPI PUSH32 0x28D3D7F2BD6AB428A99355B8C20FFC826F9061BE615DA2F44341DF2DF113AEB6 SWAP3 PUSH2 0x16C0 PUSH1 0x20 SWAP4 PUSH2 0x16A5 PUSH1 0x1 DUP1 PUSH1 0xA0 SHL SUB DUP1 SWAP9 AND SWAP8 DUP9 CALLER EQ SWAP1 DUP2 ISZERO PUSH2 0x16C8 JUMPI JUMPDEST POP PUSH2 0x2709 JUMP JUMPDEST DUP7 DUP9 MSTORE PUSH1 0x9 DUP6 MSTORE DUP3 DUP9 KECCAK256 SWAP1 PUSH1 0xFF DUP1 NOT DUP4 SLOAD AND SWAP2 ISZERO ISZERO AND OR SWAP1 SSTORE JUMP JUMPDEST MLOAD SWAP1 DUP2 MSTORE LOG2 DUP1 RETURN JUMPDEST SWAP1 POP DUP10 SLOAD AND CALLER EQ DUP11 PUSH2 0x169F JUMP JUMPDEST POP SWAP2 CALLVALUE PUSH2 0x9E1 JUMPI PUSH1 0x20 SWAP2 DUP3 PUSH1 0x3 NOT CALLDATASIZE ADD SLT PUSH2 0xD41 JUMPI DUP1 CALLDATALOAD PUSH2 0x16F4 PUSH2 0x2758 JUMP JUMPDEST CALLER DUP4 MSTORE PUSH1 0x9 DUP5 MSTORE PUSH2 0x170B PUSH1 0xFF DUP7 DUP6 KECCAK256 SLOAD AND ISZERO PUSH2 0x25BD JUMP JUMPDEST DUP1 DUP4 MSTORE PUSH1 0x3 DUP5 MSTORE PUSH1 0xFF PUSH1 0x8 DUP7 DUP6 KECCAK256 ADD SLOAD PUSH1 0x10 SHR AND PUSH1 0x6 DUP2 LT ISZERO PUSH2 0x18CA JUMPI DUP3 SUB PUSH2 0x1897 JUMPI DUP3 SWAP2 DUP4 JUMPDEST DUP3 DUP6 MSTORE DUP2 DUP7 MSTORE DUP7 DUP6 KECCAK256 DUP1 SLOAD DUP3 LT ISZERO PUSH2 0x17CB JUMPI SWAP1 PUSH2 0x1751 DUP2 PUSH1 0x1 SWAP4 PUSH2 0x2569 JUMP JUMPDEST POP CALLER SWAP1 DUP4 DUP1 PUSH1 0xA0 SHL SUB SWAP1 SLOAD AND EQ DUP1 PUSH2 0x17AD JUMPI JUMPDEST PUSH2 0x176F JUMPI JUMPDEST ADD PUSH2 0x1732 JUMP JUMPDEST DUP4 DUP7 MSTORE DUP3 DUP8 MSTORE DUP6 PUSH2 0x1792 PUSH2 0x1785 DUP4 DUP12 DUP5 KECCAK256 PUSH2 0x2569 JUMP JUMPDEST POP SWAP7 DUP5 DUP1 SWAP9 ADD SLOAD SWAP1 PUSH2 0x2624 JUMP JUMPDEST SWAP6 DUP6 DUP3 MSTORE DUP5 DUP10 MSTORE PUSH2 0x17A5 DUP4 DUP12 DUP5 KECCAK256 PUSH2 0x2569 JUMP JUMPDEST POP ADD SSTORE PUSH2 0x1769 JUMP JUMPDEST POP DUP4 DUP7 MSTORE DUP3 DUP8 MSTORE DUP2 PUSH2 0x17C1 DUP3 DUP11 DUP10 KECCAK256 PUSH2 0x2569 JUMP JUMPDEST POP ADD SLOAD ISZERO ISZERO PUSH2 0x1764 JUMP JUMPDEST POP POP DUP5 PUSH2 0x181A DUP2 DUP6 DUP10 SWAP5 PUSH2 0x17E0 DUP3 ISZERO ISZERO PUSH2 0x2647 JUMP JUMPDEST PUSH1 0x1 SLOAD DUP7 MLOAD PUSH4 0xA9059CBB PUSH1 0xE0 SHL DUP2 MSTORE CALLER SWAP3 DUP2 ADD SWAP3 DUP4 MSTORE PUSH1 0x20 DUP4 ADD SWAP4 SWAP1 SWAP4 MSTORE SWAP2 SWAP4 DUP5 SWAP3 PUSH1 0x1 PUSH1 0x1 PUSH1 0xA0 SHL SUB AND SWAP2 DUP4 SWAP2 DUP12 SWAP2 DUP4 SWAP2 PUSH1 0x40 SWAP1 SWAP2 ADD SWAP1 JUMP JUMPDEST SUB SWAP3 GAS CALL SWAP1 DUP2 ISZERO PUSH2 0x188D JUMPI DUP7 SWAP2 PUSH2 0x1870 JUMPI JUMPDEST POP ISZERO PUSH2 0xD3D JUMPI PUSH32 0xF3F402280EF0A7905E124AA621B65EAEB2725C343E8B36D398ED78C29DAF285C SWAP2 MLOAD SWAP4 DUP5 MSTORE CALLER SWAP4 LOG3 PUSH1 0x1 PUSH1 0x0 DUP1 MLOAD PUSH1 0x20 PUSH2 0x2955 DUP4 CODECOPY DUP2 MLOAD SWAP2 MSTORE SSTORE DUP1 RETURN JUMPDEST PUSH2 0x1887 SWAP2 POP DUP3 RETURNDATASIZE DUP5 GT PUSH2 0x394 JUMPI PUSH2 0x386 DUP2 DUP4 PUSH2 0x2585 JUMP JUMPDEST DUP7 PUSH2 0x182C JUMP JUMPDEST DUP4 MLOAD RETURNDATASIZE DUP9 DUP3 RETURNDATACOPY RETURNDATASIZE SWAP1 REVERT JUMPDEST DUP5 MLOAD PUSH3 0x461BCD PUSH1 0xE5 SHL DUP2 MSTORE DUP1 DUP4 ADD DUP6 SWAP1 MSTORE PUSH1 0xD PUSH1 0x24 DUP3 ADD MSTORE PUSH13 0x139BDD0818D85B98D95B1B1959 PUSH1 0x9A SHL PUSH1 0x44 DUP3 ADD MSTORE PUSH1 0x64 SWAP1 REVERT JUMPDEST PUSH4 0x4E487B71 PUSH1 0xE0 SHL DUP5 MSTORE PUSH1 0x21 DUP4 MSTORE PUSH1 0x24 DUP5 REVERT JUMPDEST POP CALLVALUE PUSH2 0x495 JUMPI PUSH1 0x20 CALLDATASIZE PUSH1 0x3 NOT ADD SLT PUSH2 0x495 JUMPI DUP2 CALLDATALOAD SWAP2 DUP3 DUP5 MSTORE PUSH1 0x3 PUSH1 0x20 MSTORE DUP2 DUP5 KECCAK256 PUSH1 0x8 DUP2 ADD DUP1 SLOAD PUSH1 0xFF DUP2 PUSH1 0x10 SHR AND PUSH1 0x6 DUP2 LT ISZERO PUSH2 0x10CC JUMPI PUSH2 0x19E6 JUMPI PUSH1 0x9 DUP4 ADD SLOAD TIMESTAMP GT ISZERO PUSH2 0x19E6 JUMPI PUSH3 0xFF0000 NOT AND PUSH3 0x40000 OR SWAP1 SSTORE DUP2 ADD SLOAD PUSH1 0x1 PUSH1 0x1 PUSH1 0xA0 SHL SUB AND DUP5 MSTORE PUSH1 0x6 PUSH1 0x20 MSTORE DUP2 DUP5 KECCAK256 DUP1 SLOAD SWAP2 DUP3 PUSH2 0x199C JUMPI JUMPDEST POP POP POP PUSH1 0x60 DUP2 PUSH13 0x15185C99D95D081B5A5CDCD959 PUSH1 0x9A SHL PUSH32 0x83E3B895AA4A4EF6E066AA875CCE363DAEC37ACA73344A2035A9DDCDA9FC1FE3 SWAP4 MLOAD SWAP2 PUSH1 0x20 DUP4 MSTORE PUSH1 0xD PUSH1 0x20 DUP5 ADD MSTORE DUP3 ADD MSTORE LOG2 DUP1 RETURN JUMPDEST PUSH1 0x0 NOT DUP4 ADD SWAP3 DUP4 GT PUSH2 0x19D3 JUMPI POP SSTORE PUSH1 0x60 PUSH32 0x83E3B895AA4A4EF6E066AA875CCE363DAEC37ACA73344A2035A9DDCDA9FC1FE3 CODESIZE PUSH2 0x194F JUMP JUMPDEST PUSH4 0x4E487B71 PUSH1 0xE0 SHL DUP7 MSTORE PUSH1 0x11 SWAP1 MSTORE PUSH1 0x24 DUP6 REVERT JUMPDEST DUP7 DUP1 REVERT JUMPDEST DUP4 DUP3 CALLVALUE PUSH2 0xD41 JUMPI PUSH1 0x20 CALLDATASIZE PUSH1 0x3 NOT ADD SLT PUSH2 0xD41 JUMPI PUSH1 0x20 SWAP2 PUSH1 0xFF SWAP1 DUP3 SWAP1 PUSH1 0x1 PUSH1 0x1 PUSH1 0xA0 SHL SUB PUSH2 0x1A15 PUSH2 0x2517 JUMP JUMPDEST AND DUP2 MSTORE PUSH1 0x9 DUP6 MSTORE KECCAK256 SLOAD AND SWAP1 MLOAD SWAP1 ISZERO ISZERO DUP2 MSTORE RETURN JUMPDEST DUP4 DUP3 CALLVALUE PUSH2 0xD41 JUMPI PUSH1 0x20 CALLDATASIZE PUSH1 0x3 NOT ADD SLT PUSH2 0xD41 JUMPI PUSH1 0x20 SWAP2 DUP2 SWAP1 PUSH1 0x1 PUSH1 0x1 PUSH1 0xA0 SHL SUB PUSH2 0x1A50 PUSH2 0x2517 JUMP JUMPDEST AND DUP2 MSTORE PUSH1 0xC DUP5 MSTORE KECCAK256 SLOAD SWAP1 MLOAD SWAP1 DUP2 MSTORE RETURN JUMPDEST POP CALLVALUE PUSH2 0x495 JUMPI PUSH1 0xE0 CALLDATASIZE PUSH1 0x3 NOT ADD SLT PUSH2 0x495 JUMPI DUP2 CALLDATALOAD SWAP2 PUSH1 0x24 SWAP2 CALLDATASIZE PUSH1 0x63 SLT ISZERO PUSH2 0xD3D JUMPI DUP1 MLOAD SWAP3 PUSH1 0x60 DUP5 ADD DUP5 DUP2 LT PUSH8 0xFFFFFFFFFFFFFFFF DUP3 GT OR PUSH2 0x1CE5 JUMPI DUP3 MSTORE DUP4 PUSH1 0xA4 CALLDATASIZE PUSH1 0xA4 GT PUSH2 0xAFE JUMPI PUSH1 0x44 SWAP2 JUMPDEST DUP2 DUP4 LT PUSH2 0x1CC1 JUMPI POP POP POP CALLER DUP7 MSTORE PUSH1 0x20 SWAP3 PUSH1 0x9 DUP5 MSTORE PUSH2 0x1AD0 PUSH1 0xFF DUP5 DUP10 KECCAK256 SLOAD AND ISZERO PUSH2 0x25BD JUMP JUMPDEST DUP6 ISZERO PUSH2 0x1C8C JUMPI CALLER DUP8 MSTORE PUSH1 0x6 DUP5 MSTORE PUSH1 0x2 DUP4 DUP9 KECCAK256 SLOAD LT ISZERO PUSH2 0x1C4C JUMPI PUSH10 0xD3C21BCECCEDA1000000 DUP7 LT ISZERO PUSH2 0x1BE7 JUMPI JUMPDEST CALLER DUP8 MSTORE PUSH1 0x6 DUP5 MSTORE DUP3 DUP8 KECCAK256 SWAP1 DUP2 SLOAD PUSH1 0x1 SWAP3 PUSH1 0x1 DUP3 ADD DUP1 SWAP3 GT PUSH2 0x1BD5 JUMPI SSTORE PUSH1 0x2 SLOAD SWAP6 PUSH2 0x1B25 DUP8 PUSH2 0x26FA JUMP JUMPDEST PUSH1 0x2 SSTORE DUP7 DUP10 MSTORE PUSH1 0x3 DUP1 DUP8 MSTORE DUP6 DUP11 KECCAK256 DUP9 DUP2 SSTORE PUSH1 0x1 DUP2 ADD DUP11 SWAP1 SSTORE SWAP5 CALLDATALOAD DUP6 DUP3 ADD SSTORE SWAP2 DUP5 ADD DUP1 SLOAD PUSH1 0x1 PUSH1 0x1 PUSH1 0xA0 SHL SUB NOT AND CALLER OR SWAP1 SSTORE DUP9 JUMPDEST DUP3 DUP2 LT PUSH2 0x1BB8 JUMPI POP POP POP PUSH1 0x8 DUP3 ADD DUP1 SLOAD PUSH3 0xFF0000 NOT AND SWAP1 SSTORE POP PUSH32 0x97E04BE2FD6414727FE9D0400464568F4384AA8B06264119565CA8F6CC2A4B7A SWAP3 SWAP2 SWAP1 PUSH2 0x1BA1 PUSH1 0xA4 CALLDATALOAD TIMESTAMP PUSH2 0x2624 JUMP JUMPDEST PUSH1 0x9 DUP3 ADD SSTORE PUSH1 0xB PUSH1 0xC4 CALLDATALOAD SWAP2 ADD SSTORE MLOAD SWAP4 DUP5 MSTORE CALLER SWAP4 LOG3 DUP1 RETURN JUMPDEST DUP2 MLOAD PUSH1 0x1 PUSH1 0x1 PUSH1 0xA0 SHL SUB AND DUP6 DUP3 ADD PUSH1 0x5 ADD SSTORE SWAP1 DUP7 ADD SWAP1 DUP4 ADD PUSH2 0x1B58 JUMP JUMPDEST PUSH4 0x4E487B71 PUSH1 0xE0 SHL DUP11 MSTORE PUSH1 0x11 DUP4 MSTORE DUP5 DUP11 REVERT JUMPDEST CALLER DUP8 MSTORE PUSH1 0x7 DUP5 MSTORE PUSH1 0xFF DUP4 DUP9 KECCAK256 SLOAD AND PUSH2 0x1AFC JUMPI PUSH1 0x2A PUSH1 0x84 SWAP3 DUP6 DUP6 MLOAD SWAP4 PUSH3 0x461BCD PUSH1 0xE5 SHL DUP6 MSTORE DUP5 ADD MSTORE DUP3 ADD MSTORE PUSH32 0x5A4B204964656E746974792050726F6F6620726571756972656420666F72206C PUSH1 0x44 DUP3 ADD MSTORE PUSH10 0x6F616E73203E3D20314D PUSH1 0xB0 SHL PUSH1 0x64 DUP3 ADD MSTORE REVERT JUMPDEST PUSH1 0x18 PUSH1 0x64 SWAP3 DUP6 DUP6 MLOAD SWAP4 PUSH3 0x461BCD PUSH1 0xE5 SHL DUP6 MSTORE DUP5 ADD MSTORE DUP3 ADD MSTORE PUSH32 0x4D617820616374697665206C6F616E7320726561636865640000000000000000 PUSH1 0x44 DUP3 ADD MSTORE REVERT JUMPDEST PUSH1 0x12 PUSH1 0x64 SWAP3 DUP6 DUP6 MLOAD SWAP4 PUSH3 0x461BCD PUSH1 0xE5 SHL DUP6 MSTORE DUP5 ADD MSTORE DUP3 ADD MSTORE PUSH18 0x416D6F756E74206D757374206265203E203 PUSH1 0x74 SHL PUSH1 0x44 DUP3 ADD MSTORE REVERT JUMPDEST DUP3 CALLDATALOAD PUSH1 0x1 PUSH1 0x1 PUSH1 0xA0 SHL SUB DUP2 AND DUP2 SUB PUSH2 0x1CE1 JUMPI DUP2 MSTORE PUSH1 0x20 SWAP3 DUP4 ADD SWAP3 ADD PUSH2 0x1AAC JUMP JUMPDEST DUP10 DUP1 REVERT JUMPDEST POP PUSH4 0x4E487B71 PUSH1 0xE0 SHL DUP7 MSTORE PUSH1 0x41 DUP4 MSTORE DUP6 REVERT JUMPDEST POP SWAP1 CALLVALUE PUSH2 0x495 JUMPI PUSH2 0x1D07 CALLDATASIZE PUSH2 0x2553 JUMP JUMPDEST SWAP2 SWAP1 DUP5 MSTORE PUSH1 0x20 MSTORE DUP2 DUP4 KECCAK256 DUP1 SLOAD DUP3 LT ISZERO PUSH2 0x8DD JUMPI SWAP1 PUSH2 0x1D24 SWAP2 PUSH2 0x2569 JUMP JUMPDEST POP DUP1 SLOAD PUSH1 0x1 SWAP1 SWAP2 ADD SLOAD SWAP2 MLOAD PUSH1 0x1 PUSH1 0x1 PUSH1 0xA0 SHL SUB SWAP1 SWAP2 AND DUP2 MSTORE PUSH1 0x20 DUP2 ADD SWAP2 SWAP1 SWAP2 MSTORE PUSH1 0x40 SWAP1 RETURN JUMPDEST DUP4 DUP3 CALLVALUE PUSH2 0xD41 JUMPI DUP1 PUSH1 0x3 NOT CALLDATASIZE ADD SLT PUSH2 0xD41 JUMPI PUSH2 0x1D63 PUSH2 0x2517 JUMP JUMPDEST PUSH1 0x1 PUSH1 0x1 PUSH1 0xA0 SHL SUB SWAP1 DUP2 AND DUP4 MSTORE PUSH1 0xA PUSH1 0x20 MSTORE DUP2 DUP4 KECCAK256 PUSH1 0x24 CALLDATALOAD SWAP4 PUSH1 0x3 DUP6 LT ISZERO PUSH2 0x9E1 JUMPI POP PUSH1 0x20 SWAP4 PUSH2 0x1D92 SWAP2 PUSH2 0x252D JUMP JUMPDEST SWAP1 SLOAD SWAP1 PUSH1 0x3 SHL SHR AND SWAP1 MLOAD SWAP1 DUP2 MSTORE RETURN JUMPDEST POP CALLVALUE PUSH2 0x495 JUMPI PUSH1 0x20 SWAP1 DUP2 PUSH1 0x3 NOT CALLDATASIZE ADD SLT PUSH2 0x8DD JUMPI DUP3 CALLDATALOAD SWAP3 PUSH2 0x1DC0 PUSH2 0x2758 JUMP JUMPDEST CALLER DUP6 MSTORE PUSH1 0x9 DUP4 MSTORE PUSH2 0x1DD7 PUSH1 0xFF DUP4 DUP8 KECCAK256 SLOAD AND ISZERO PUSH2 0x25BD JUMP JUMPDEST DUP4 DUP6 MSTORE PUSH1 0x3 DUP4 MSTORE DUP2 DUP6 KECCAK256 PUSH1 0x8 DUP2 ADD PUSH1 0xFF DUP2 SLOAD PUSH1 0x10 SHR AND PUSH1 0x6 DUP2 LT ISZERO PUSH2 0x1F7C JUMPI PUSH1 0x1 SUB PUSH2 0x19E6 JUMPI DUP6 DUP8 MSTORE PUSH1 0x5 DUP6 MSTORE DUP4 DUP8 KECCAK256 CALLER DUP9 MSTORE DUP6 MSTORE PUSH1 0xFF DUP5 DUP9 KECCAK256 SLOAD AND PUSH2 0x19E6 JUMPI PUSH2 0x1E21 CALLER DUP8 PUSH2 0x2788 JUMP JUMPDEST ISZERO PUSH2 0x19E6 JUMPI DUP6 DUP8 MSTORE PUSH1 0x5 DUP6 MSTORE DUP4 DUP8 KECCAK256 CALLER DUP9 MSTORE DUP6 MSTORE DUP4 DUP8 KECCAK256 DUP1 SLOAD PUSH1 0xFF NOT AND PUSH1 0x1 OR SWAP1 SSTORE PUSH1 0x8 DUP6 MSTORE DUP4 DUP8 KECCAK256 SLOAD PUSH1 0x32 SGT PUSH2 0x1F6F JUMPI PUSH2 0x1E7E PUSH2 0x1E68 PUSH1 0x2 JUMPDEST PUSH1 0xFF DUP5 SLOAD PUSH1 0x8 SHR AND PUSH2 0x26A8 JUMP JUMPDEST DUP3 SLOAD PUSH2 0xFF00 NOT AND PUSH1 0x8 SWAP2 SWAP1 SWAP2 SHL PUSH2 0xFF00 AND OR DUP3 SSTORE JUMP JUMPDEST DUP1 SLOAD PUSH1 0x2 PUSH1 0xFF DUP3 PUSH1 0x8 SHR AND LT ISZERO PUSH2 0x1EA6 JUMPI JUMPDEST DUP8 PUSH1 0x1 PUSH1 0x0 DUP1 MLOAD PUSH1 0x20 PUSH2 0x2955 DUP4 CODECOPY DUP2 MLOAD SWAP2 MSTORE SSTORE DUP1 RETURN JUMPDEST PUSH3 0xFF0000 NOT AND PUSH3 0x40000 OR SWAP1 SSTORE DUP2 ADD SLOAD PUSH1 0x1 PUSH1 0x1 PUSH1 0xA0 SHL SUB AND DUP6 MSTORE PUSH1 0x6 DUP4 MSTORE DUP2 DUP6 KECCAK256 DUP1 SLOAD SWAP2 DUP3 PUSH2 0x1F2D JUMPI JUMPDEST POP POP POP PUSH32 0x83E3B895AA4A4EF6E066AA875CCE363DAEC37ACA73344A2035A9DDCDA9FC1FE3 SWAP2 PUSH21 0x52656A656374656420627920677561726469616E73 PUSH1 0x58 SHL DUP3 PUSH1 0x15 PUSH1 0x60 SWAP5 MLOAD SWAP4 DUP1 DUP6 MSTORE DUP5 ADD MSTORE DUP3 ADD MSTORE LOG2 CODESIZE DUP1 DUP1 DUP1 DUP1 DUP1 DUP1 PUSH2 0x1E90 JUMP JUMPDEST PUSH1 0x0 NOT DUP4 ADD SWAP3 DUP4 GT PUSH2 0x1F5C JUMPI POP SSTORE DUP2 PUSH21 0x52656A656374656420627920677561726469616E73 PUSH1 0x58 SHL PUSH1 0x60 PUSH2 0x1ED1 JUMP JUMPDEST PUSH4 0x4E487B71 PUSH1 0xE0 SHL DUP8 MSTORE PUSH1 0x11 SWAP1 MSTORE PUSH1 0x24 DUP7 REVERT JUMPDEST PUSH2 0x1E7E PUSH2 0x1E68 PUSH1 0x1 PUSH2 0x1E5B JUMP JUMPDEST PUSH4 0x4E487B71 PUSH1 0xE0 SHL DUP9 MSTORE PUSH1 0x21 DUP5 MSTORE PUSH1 0x24 DUP9 REVERT JUMPDEST DUP4 DUP3 CALLVALUE PUSH2 0xD41 JUMPI PUSH1 0x20 CALLDATASIZE PUSH1 0x3 NOT ADD SLT PUSH2 0xD41 JUMPI PUSH1 0x20 SWAP2 DUP2 SWAP1 PUSH1 0x1 PUSH1 0x1 PUSH1 0xA0 SHL SUB PUSH2 0x1FB7 PUSH2 0x2517 JUMP JUMPDEST AND DUP2 MSTORE PUSH1 0x8 DUP5 MSTORE KECCAK256 SLOAD SWAP1 MLOAD SWAP1 DUP2 MSTORE RETURN JUMPDEST POP SWAP1 CALLVALUE PUSH2 0x495 JUMPI DUP2 PUSH1 0x3 NOT CALLDATASIZE ADD SLT PUSH2 0x495 JUMPI DUP2 PUSH1 0x20 SWAP4 PUSH1 0xFF SWAP3 PUSH2 0x1FE8 PUSH2 0x24FC JUMP JUMPDEST SWAP1 CALLDATALOAD DUP3 MSTORE PUSH1 0x5 DUP7 MSTORE DUP3 DUP3 KECCAK256 PUSH1 0x1 PUSH1 0x1 PUSH1 0xA0 SHL SUB SWAP1 SWAP2 AND DUP3 MSTORE DUP6 MSTORE KECCAK256 SLOAD SWAP2 MLOAD SWAP2 AND ISZERO ISZERO DUP2 MSTORE RETURN JUMPDEST POP DUP3 SWAP1 CALLVALUE PUSH2 0xD41 JUMPI PUSH1 0x20 DUP1 PUSH1 0x3 NOT CALLDATASIZE ADD SLT PUSH2 0x495 JUMPI DUP4 CALLDATALOAD SWAP2 PUSH2 0x202E PUSH2 0x2758 JUMP JUMPDEST CALLER DUP5 MSTORE PUSH1 0x9 DUP3 MSTORE PUSH1 0xFF PUSH2 0x2046 DUP2 DUP4 DUP8 KECCAK256 SLOAD AND ISZERO PUSH2 0x25BD JUMP JUMPDEST DUP4 DUP6 MSTORE PUSH1 0x3 DUP4 MSTORE DUP2 DUP6 KECCAK256 DUP2 PUSH1 0x8 DUP3 ADD SLOAD PUSH1 0x10 SHR AND PUSH1 0x6 DUP2 LT ISZERO PUSH2 0x22D3 JUMPI PUSH1 0x2 SUB PUSH2 0x2299 JUMPI DUP1 DUP8 ADD DUP1 SLOAD PUSH1 0x1 PUSH1 0x1 PUSH1 0xA0 SHL SUB SWAP9 SWAP1 CALLER SWAP1 DUP11 AND SUB PUSH2 0x2267 JUMPI PUSH1 0xD DUP4 ADD SWAP3 DUP4 SLOAD DUP6 DUP2 AND ISZERO PUSH2 0x222D JUMPI DUP6 DUP2 PUSH1 0x8 SHR AND SWAP1 DUP4 DUP3 LT ISZERO PUSH2 0x21F3 JUMPI PUSH1 0x10 SHR DUP7 AND DUP2 GT PUSH2 0x219C JUMPI SWAP2 DUP10 PUSH1 0x1 DUP10 SWAP6 SWAP4 PUSH2 0x20D9 PUSH2 0x20C3 PUSH2 0x2117 SWAP15 SWAP16 SWAP8 PUSH2 0x2696 JUMP JUMPDEST DUP10 SLOAD PUSH2 0xFF00 NOT AND PUSH1 0x8 SWAP2 SWAP1 SWAP2 SHL PUSH2 0xFF00 AND OR DUP10 SSTORE JUMP JUMPDEST ADD SLOAD PUSH1 0x2 SHR SWAP4 DUP1 PUSH1 0x1 SLOAD AND SWAP4 SLOAD AND SWAP2 DUP9 MLOAD SWAP12 DUP13 SWAP6 DUP7 SWAP5 DUP6 SWAP4 PUSH4 0xA9059CBB PUSH1 0xE0 SHL DUP6 MSTORE DUP5 ADD PUSH1 0x20 SWAP1 SWAP4 SWAP3 SWAP2 SWAP4 PUSH1 0x40 DUP2 ADD SWAP5 PUSH1 0x1 DUP1 PUSH1 0xA0 SHL SUB AND DUP2 MSTORE ADD MSTORE JUMP JUMPDEST SUB SWAP3 GAS CALL SWAP6 DUP7 ISZERO PUSH2 0x2192 JUMPI PUSH32 0x7295BD8752B481DC6869531AC9C8F450952E61BE3C8166E644EDFD6C4CD94152 SWAP6 SWAP7 PUSH2 0x2155 SWAP2 DUP10 SWAP2 PUSH2 0x2175 JUMPI POP PUSH2 0x26BC JUMP JUMPDEST SLOAD PUSH1 0x8 SHR AND SWAP1 MLOAD SWAP1 DUP2 MSTORE LOG2 PUSH1 0x1 PUSH1 0x0 DUP1 MLOAD PUSH1 0x20 PUSH2 0x2955 DUP4 CODECOPY DUP2 MLOAD SWAP2 MSTORE SSTORE DUP1 RETURN JUMPDEST PUSH2 0x218C SWAP2 POP DUP7 RETURNDATASIZE DUP9 GT PUSH2 0x394 JUMPI PUSH2 0x386 DUP2 DUP4 PUSH2 0x2585 JUMP JUMPDEST DUP10 PUSH2 0x300 JUMP JUMPDEST DUP4 MLOAD RETURNDATASIZE DUP10 DUP3 RETURNDATACOPY RETURNDATASIZE SWAP1 REVERT JUMPDEST DUP7 MLOAD PUSH3 0x461BCD PUSH1 0xE5 SHL DUP2 MSTORE DUP1 DUP5 ADD DUP10 SWAP1 MSTORE PUSH1 0x2B PUSH1 0x24 DUP3 ADD MSTORE PUSH32 0x52657061792070726576696F7573207472616E63686520666972737420746F20 PUSH1 0x44 DUP3 ADD MSTORE PUSH11 0x1D5B9B1BD8DAC81B995E1D PUSH1 0xAA SHL PUSH1 0x64 DUP3 ADD MSTORE PUSH1 0x84 SWAP1 REVERT JUMPDEST DUP8 MLOAD PUSH3 0x461BCD PUSH1 0xE5 SHL DUP2 MSTORE DUP1 DUP6 ADD DUP11 SWAP1 MSTORE PUSH1 0x14 PUSH1 0x24 DUP3 ADD MSTORE PUSH20 0x105B1B081D1C985B98DA195CC818DB185A5B5959 PUSH1 0x62 SHL PUSH1 0x44 DUP3 ADD MSTORE PUSH1 0x64 SWAP1 REVERT JUMPDEST DUP7 MLOAD PUSH3 0x461BCD PUSH1 0xE5 SHL DUP2 MSTORE DUP1 DUP5 ADD DUP10 SWAP1 MSTORE PUSH1 0x14 PUSH1 0x24 DUP3 ADD MSTORE PUSH20 0x2737BA10309036B4B632B9BA37B732903637B0B7 PUSH1 0x61 SHL PUSH1 0x44 DUP3 ADD MSTORE PUSH1 0x64 SWAP1 REVERT JUMPDEST DUP5 MLOAD PUSH3 0x461BCD PUSH1 0xE5 SHL DUP2 MSTORE SWAP1 DUP2 ADD DUP7 SWAP1 MSTORE PUSH1 0xC PUSH1 0x24 DUP3 ADD MSTORE PUSH12 0x2737BA103137B93937BBB2B9 PUSH1 0xA1 SHL PUSH1 0x44 DUP3 ADD MSTORE PUSH1 0x64 SWAP1 REVERT JUMPDEST DUP3 MLOAD PUSH3 0x461BCD PUSH1 0xE5 SHL DUP2 MSTORE DUP1 DUP9 ADD DUP6 SWAP1 MSTORE PUSH1 0x14 PUSH1 0x24 DUP3 ADD MSTORE PUSH20 0x139BDD081858DD1A5D994BD91A5CD89D5C9CD959 PUSH1 0x62 SHL PUSH1 0x44 DUP3 ADD MSTORE PUSH1 0x64 SWAP1 REVERT JUMPDEST PUSH4 0x4E487B71 PUSH1 0xE0 SHL DUP8 MSTORE PUSH1 0x21 DUP9 MSTORE PUSH1 0x24 DUP8 REVERT JUMPDEST POP DUP3 CALLVALUE PUSH2 0x9E1 JUMPI PUSH1 0x20 DUP1 PUSH1 0x3 NOT CALLDATASIZE ADD SLT PUSH2 0xD41 JUMPI DUP4 CALLDATALOAD SWAP3 PUSH2 0x2305 PUSH2 0x2758 JUMP JUMPDEST CALLER DUP4 MSTORE PUSH1 0x9 DUP3 MSTORE PUSH2 0x231C PUSH1 0xFF DUP3 DUP6 KECCAK256 SLOAD AND ISZERO PUSH2 0x25BD JUMP JUMPDEST DUP4 DUP4 MSTORE PUSH1 0x3 DUP3 MSTORE DUP1 DUP4 KECCAK256 SWAP2 PUSH1 0xFF PUSH1 0x8 DUP5 ADD SLOAD PUSH1 0x10 SHR AND PUSH1 0x6 DUP2 LT ISZERO PUSH2 0x24E9 JUMPI PUSH1 0x3 SUB PUSH2 0x24BA JUMPI DUP4 SWAP5 DUP5 JUMPDEST DUP2 DUP7 MSTORE DUP8 DUP4 MSTORE DUP4 DUP7 KECCAK256 DUP1 SLOAD DUP3 LT ISZERO PUSH2 0x2430 JUMPI DUP2 PUSH2 0x2362 SWAP2 PUSH2 0x2569 JUMP JUMPDEST POP SLOAD PUSH1 0x1 PUSH1 0x1 PUSH1 0xA0 SHL SUB AND CALLER EQ DUP1 PUSH2 0x2411 JUMPI JUMPDEST PUSH2 0x2382 JUMPI JUMPDEST PUSH1 0x1 ADD PUSH2 0x2346 JUMP JUMPDEST DUP2 DUP7 MSTORE DUP8 DUP4 MSTORE PUSH2 0x2394 DUP2 DUP6 DUP9 KECCAK256 PUSH2 0x2569 JUMP JUMPDEST POP SWAP7 PUSH1 0x1 DUP1 SWAP9 ADD SLOAD PUSH1 0xC DUP8 ADD SLOAD SWAP1 DUP2 DUP2 MUL SWAP2 DUP2 DUP4 DIV EQ SWAP1 ISZERO OR ISZERO PUSH2 0x23FE JUMPI DUP9 DUP8 ADD SLOAD SWAP1 DUP2 ISZERO PUSH2 0x23EB JUMPI PUSH1 0x1 SWAP4 SWAP3 DUP10 SWAP3 PUSH2 0x23CE SWAP3 DIV SWAP1 PUSH2 0x2624 JUMP JUMPDEST SWAP9 DUP5 DUP3 MSTORE DUP11 DUP7 MSTORE PUSH2 0x23E1 DUP4 DUP9 DUP5 KECCAK256 PUSH2 0x2569 JUMP JUMPDEST POP ADD SSTORE SWAP1 POP PUSH2 0x237A JUMP JUMPDEST PUSH4 0x4E487B71 PUSH1 0xE0 SHL DUP10 MSTORE PUSH1 0x12 DUP12 MSTORE PUSH1 0x24 DUP10 REVERT JUMPDEST PUSH4 0x4E487B71 PUSH1 0xE0 SHL DUP9 MSTORE PUSH1 0x11 DUP11 MSTORE PUSH1 0x24 DUP9 REVERT JUMPDEST POP DUP2 DUP7 MSTORE DUP8 DUP4 MSTORE PUSH1 0x1 PUSH2 0x2426 DUP3 DUP7 DUP10 KECCAK256 PUSH2 0x2569 JUMP JUMPDEST POP ADD SLOAD ISZERO ISZERO PUSH2 0x2375 JUMP JUMPDEST POP POP DUP5 SWAP3 DUP3 PUSH2 0x2447 DUP9 SWAP5 DUP6 DUP12 PUSH2 0x17E0 DUP3 ISZERO ISZERO PUSH2 0x2647 JUMP JUMPDEST SUB SWAP3 GAS CALL SWAP1 DUP2 ISZERO PUSH2 0x188D JUMPI DUP7 SWAP2 PUSH2 0x249D JUMPI JUMPDEST POP ISZERO PUSH2 0xD3D JUMPI PUSH32 0xCE6A22BBF33075E9460462739AB01C9D01AFBE41EB32F517824218012B2E656E SWAP2 MLOAD SWAP4 DUP5 MSTORE CALLER SWAP4 LOG3 PUSH1 0x1 PUSH1 0x0 DUP1 MLOAD PUSH1 0x20 PUSH2 0x2955 DUP4 CODECOPY DUP2 MLOAD SWAP2 MSTORE SSTORE DUP1 RETURN JUMPDEST PUSH2 0x24B4 SWAP2 POP DUP3 RETURNDATASIZE DUP5 GT PUSH2 0x394 JUMPI PUSH2 0x386 DUP2 DUP4 PUSH2 0x2585 JUMP JUMPDEST DUP7 PUSH2 0x2459 JUMP JUMPDEST DUP6 SWAP1 PUSH1 0x64 SWAP3 MLOAD SWAP2 PUSH3 0x461BCD PUSH1 0xE5 SHL DUP4 MSTORE DUP3 ADD MSTORE PUSH1 0xA PUSH1 0x24 DUP3 ADD MSTORE PUSH10 0x139BDD081C995C185A59 PUSH1 0xB2 SHL PUSH1 0x44 DUP3 ADD MSTORE REVERT JUMPDEST PUSH4 0x4E487B71 PUSH1 0xE0 SHL DUP6 MSTORE PUSH1 0x21 DUP8 MSTORE PUSH1 0x24 DUP6 REVERT JUMPDEST PUSH1 0x24 CALLDATALOAD SWAP1 PUSH1 0x1 PUSH1 0x1 PUSH1 0xA0 SHL SUB DUP3 AND DUP3 SUB PUSH2 0x2512 JUMPI JUMP JUMPDEST PUSH1 0x0 DUP1 REVERT JUMPDEST PUSH1 0x4 CALLDATALOAD SWAP1 PUSH1 0x1 PUSH1 0x1 PUSH1 0xA0 SHL SUB DUP3 AND DUP3 SUB PUSH2 0x2512 JUMPI JUMP JUMPDEST PUSH1 0x3 DUP3 LT ISZERO PUSH2 0x253D JUMPI ADD SWAP1 PUSH1 0x0 SWAP1 JUMP JUMPDEST PUSH4 0x4E487B71 PUSH1 0xE0 SHL PUSH1 0x0 MSTORE PUSH1 0x32 PUSH1 0x4 MSTORE PUSH1 0x24 PUSH1 0x0 REVERT JUMPDEST PUSH1 0x40 SWAP1 PUSH1 0x3 NOT ADD SLT PUSH2 0x2512 JUMPI PUSH1 0x4 CALLDATALOAD SWAP1 PUSH1 0x24 CALLDATALOAD SWAP1 JUMP JUMPDEST DUP1 SLOAD DUP3 LT ISZERO PUSH2 0x253D JUMPI PUSH1 0x0 MSTORE PUSH1 0x20 PUSH1 0x0 KECCAK256 SWAP1 PUSH1 0x1 SHL ADD SWAP1 PUSH1 0x0 SWAP1 JUMP JUMPDEST SWAP1 PUSH1 0x1F DUP1 NOT SWAP2 ADD AND DUP2 ADD SWAP1 DUP2 LT PUSH8 0xFFFFFFFFFFFFFFFF DUP3 GT OR PUSH2 0x25A7 JUMPI PUSH1 0x40 MSTORE JUMP JUMPDEST PUSH4 0x4E487B71 PUSH1 0xE0 SHL PUSH1 0x0 MSTORE PUSH1 0x41 PUSH1 0x4 MSTORE PUSH1 0x24 PUSH1 0x0 REVERT JUMPDEST ISZERO PUSH2 0x25C4 JUMPI JUMP JUMPDEST PUSH1 0x40 MLOAD PUSH3 0x461BCD PUSH1 0xE5 SHL DUP2 MSTORE PUSH1 0x20 PUSH1 0x4 DUP3 ADD MSTORE PUSH1 0x32 PUSH1 0x24 DUP3 ADD MSTORE PUSH32 0x4C6F616E506F7563683A2057616C6C6574206973206C6F636B65642076696120 PUSH1 0x44 DUP3 ADD MSTORE PUSH18 0x534D5320656D657267656E6379206D6F6465 PUSH1 0x70 SHL PUSH1 0x64 DUP3 ADD MSTORE PUSH1 0x84 SWAP1 REVERT JUMPDEST SWAP2 SWAP1 DUP3 ADD DUP1 SWAP3 GT PUSH2 0x2631 JUMPI JUMP JUMPDEST PUSH4 0x4E487B71 PUSH1 0xE0 SHL PUSH1 0x0 MSTORE PUSH1 0x11 PUSH1 0x4 MSTORE PUSH1 0x24 PUSH1 0x0 REVERT JUMPDEST ISZERO PUSH2 0x264E JUMPI JUMP JUMPDEST PUSH1 0x40 MLOAD PUSH3 0x461BCD PUSH1 0xE5 SHL DUP2 MSTORE PUSH1 0x20 PUSH1 0x4 DUP3 ADD MSTORE PUSH1 0x8 PUSH1 0x24 DUP3 ADD MSTORE PUSH8 0x4E6F2066756E6473 PUSH1 0xC0 SHL PUSH1 0x44 DUP3 ADD MSTORE PUSH1 0x64 SWAP1 REVERT JUMPDEST SWAP1 DUP2 PUSH1 0x20 SWAP2 SUB SLT PUSH2 0x2512 JUMPI MLOAD DUP1 ISZERO ISZERO DUP2 SUB PUSH2 0x2512 JUMPI SWAP1 JUMP JUMPDEST PUSH1 0xFF PUSH1 0x1 SWAP2 AND ADD SWAP1 PUSH1 0xFF DUP3 GT PUSH2 0x2631 JUMPI JUMP JUMPDEST SWAP1 PUSH1 0xFF DUP1 SWAP2 AND SWAP2 AND ADD SWAP1 PUSH1 0xFF DUP3 GT PUSH2 0x2631 JUMPI JUMP JUMPDEST ISZERO PUSH2 0x26C3 JUMPI JUMP JUMPDEST PUSH1 0x40 MLOAD PUSH3 0x461BCD PUSH1 0xE5 SHL DUP2 MSTORE PUSH1 0x20 PUSH1 0x4 DUP3 ADD MSTORE PUSH1 0xF PUSH1 0x24 DUP3 ADD MSTORE PUSH15 0x151C985B9CD9995C8819985A5B1959 PUSH1 0x8A SHL PUSH1 0x44 DUP3 ADD MSTORE PUSH1 0x64 SWAP1 REVERT JUMPDEST PUSH1 0x0 NOT DUP2 EQ PUSH2 0x2631 JUMPI PUSH1 0x1 ADD SWAP1 JUMP JUMPDEST ISZERO PUSH2 0x2710 JUMPI JUMP JUMPDEST PUSH1 0x40 MLOAD PUSH3 0x461BCD PUSH1 0xE5 SHL DUP2 MSTORE PUSH1 0x20 PUSH1 0x4 DUP3 ADD MSTORE PUSH1 0xE PUSH1 0x24 DUP3 ADD MSTORE PUSH14 0x139BDD08185D5D1A1BDC9A5E9959 PUSH1 0x92 SHL PUSH1 0x44 DUP3 ADD MSTORE PUSH1 0x64 SWAP1 REVERT JUMPDEST SWAP1 PUSH1 0x0 NOT DUP3 ADD SWAP2 DUP3 SGT PUSH1 0x1 AND PUSH2 0x2631 JUMPI JUMP JUMPDEST PUSH1 0x0 DUP1 MLOAD PUSH1 0x20 PUSH2 0x2955 DUP4 CODECOPY DUP2 MLOAD SWAP2 MSTORE PUSH1 0x2 DUP2 SLOAD EQ PUSH2 0x2776 JUMPI PUSH1 0x2 SWAP1 SSTORE JUMP JUMPDEST PUSH1 0x40 MLOAD PUSH4 0x3EE5AEB5 PUSH1 0xE0 SHL DUP2 MSTORE PUSH1 0x4 SWAP1 REVERT JUMPDEST SWAP1 PUSH1 0x0 JUMPDEST PUSH1 0x3 DUP1 DUP3 LT ISZERO PUSH2 0x27D7 JUMPI DUP4 PUSH1 0x0 MSTORE DUP1 PUSH1 0x20 MSTORE PUSH2 0x27AF DUP3 PUSH1 0x5 PUSH1 0x40 PUSH1 0x0 KECCAK256 ADD PUSH2 0x252D JUMP JUMPDEST SWAP1 SLOAD SWAP2 SHL SHR PUSH1 0x1 PUSH1 0x1 PUSH1 0xA0 SHL SUB SWAP1 DUP2 AND SWAP1 DUP4 AND EQ PUSH2 0x27CF JUMPI PUSH1 0x1 ADD PUSH2 0x278C JUMP JUMPDEST POP POP POP PUSH1 0x1 SWAP1 JUMP JUMPDEST POP POP POP POP PUSH1 0x0 SWAP1 JUMP JUMPDEST PUSH1 0x0 SLOAD PUSH1 0x1 PUSH1 0x1 PUSH1 0xA0 SHL SUB AND CALLER SUB PUSH2 0x27F4 JUMPI JUMP JUMPDEST PUSH1 0x40 MLOAD PUSH4 0x118CDAA7 PUSH1 0xE0 SHL DUP2 MSTORE CALLER PUSH1 0x4 DUP3 ADD MSTORE PUSH1 0x24 SWAP1 REVERT JUMPDEST SWAP1 PUSH1 0x0 JUMPDEST PUSH1 0x3 DUP1 DUP3 LT ISZERO PUSH2 0x27D7 JUMPI PUSH1 0x1 DUP1 PUSH1 0xA0 SHL SUB DUP1 SWAP2 DUP2 DUP7 AND PUSH1 0x0 MSTORE PUSH1 0xA PUSH1 0x20 MSTORE PUSH2 0x283C DUP5 PUSH1 0x40 PUSH1 0x0 KECCAK256 PUSH2 0x252D JUMP JUMPDEST SWAP1 SLOAD SWAP2 SHL SHR AND SWAP1 DUP4 AND EQ PUSH2 0x27CF JUMPI PUSH1 0x1 ADD PUSH2 0x2810 JUMP JUMPDEST PUSH1 0x8 DUP2 ADD DUP1 SLOAD PUSH3 0xFF0000 NOT AND PUSH3 0x30000 OR SWAP1 SSTORE SWAP1 ISZERO DUP1 ISZERO PUSH2 0x2926 JUMPI PUSH1 0x4 DUP3 ADD SLOAD PUSH1 0x1 PUSH1 0x1 PUSH1 0xA0 SHL SUB AND PUSH1 0x0 SWAP1 DUP2 MSTORE PUSH1 0x8 PUSH1 0x20 MSTORE PUSH1 0x40 DUP2 KECCAK256 DUP1 SLOAD PUSH1 0x1 DUP2 DUP2 ADD SWAP4 SWAP1 SWAP2 SLT DUP1 ISZERO SWAP2 DUP5 SLT SWAP2 DUP3 AND SWAP2 ISZERO AND OR PUSH2 0x2631 JUMPI SSTORE JUMPDEST PUSH1 0x4 DUP3 ADD SWAP1 PUSH1 0x1 DUP1 PUSH1 0xA0 SHL SUB SWAP1 DUP2 DUP4 SLOAD AND PUSH1 0x0 MSTORE PUSH1 0x6 PUSH1 0x20 MSTORE PUSH1 0x40 PUSH1 0x0 KECCAK256 DUP1 SLOAD SWAP1 DUP2 PUSH2 0x290D JUMPI JUMPDEST POP POP PUSH1 0x40 SWAP1 PUSH1 0xC PUSH32 0x2010DE6EC11F83338B76CF98D4924C7EA74A036C590A8180872A82D2871C47CA SWAP4 DUP7 SLOAD SWAP6 SLOAD AND SWAP6 ADD SLOAD SWAP1 DUP3 MLOAD SWAP2 DUP3 MSTORE ISZERO PUSH1 0x20 DUP3 ADD MSTORE LOG3 JUMP JUMPDEST PUSH1 0x0 NOT DUP3 ADD SWAP3 SWAP2 DUP4 GT PUSH2 0x2631 JUMPI SWAP2 SWAP1 SWAP2 SSTORE DUP1 PUSH1 0xC PUSH2 0x28CD JUMP JUMPDEST PUSH1 0x4 DUP3 ADD SLOAD PUSH1 0x1 PUSH1 0x1 PUSH1 0xA0 SHL SUB AND PUSH1 0x0 SWAP1 DUP2 MSTORE PUSH1 0x8 PUSH1 0x20 MSTORE PUSH1 0x40 SWAP1 KECCAK256 DUP1 SLOAD PUSH2 0x294D SWAP1 PUSH2 0x2746 JUMP JUMPDEST SWAP1 SSTORE PUSH2 0x28A6 JUMP INVALID SWAP12 PUSH24 0x9B17422D0DF92223018B32B4D1FA46E071723D6817E2486D STOP EXTCODESIZE 0xEC 0xC5 PUSH0 STOP LOG2 PUSH5 0x6970667358 0x22 SLT KECCAK256 RETURN 0xC5 PUSH5 0x1EF21A41FD PUSH1 0x29 DUP16 PUSH4 0x5C23E03E 0x23 0x2E DUP5 PUSH5 0x56EDA9C187 RETURNDATASIZE MSTORE8 0xAC DUP6 ADD DUP3 CODECOPY PUSH5 0x736F6C6343 STOP ADDMOD XOR STOP CALLER "},"methodIdentifiers":{"activeLoansCount(address)":"9445ae04","approveByGuardian(uint256)":"ed0ffc89","approveRecovery(address,address)":"9614ddd8","approvedRecovery(address,uint256,address)":"d1a28706","binrToken()":"ac9c68d4","checkFundingTimeout(uint256)":"53ed9394","claimDisbursementTranche(uint256)":"06fe2031","claimRefund(uint256)":"5b7baf64","claimRepayment(uint256)":"00d878e8","fundLoan(uint256,uint256)":"f4512bb6","hasGuardianVoted(uint256,address)":"0734a351","initiateRecovery(address,address)":"a52d92cf","isLocked(address)":"4a4fbeec","isZkVerified(address)":"77172334","loanContributions(uint256,uint256)":"36630cd6","loans(uint256)":"e1ec3c68","markDefault(uint256)":"e1d927c8","nextLoanId()":"87c51459","owner()":"8da5cb5b","panicTransfer(uint256,address)":"d9f12fdf","recoveryApprovals(address)":"6b3ce74f","recoveryNonce(address)":"49bcad0a","recoveryTarget(address)":"a8a007e4","rejectByGuardian(uint256)":"1c98a2b6","renounceOwnership()":"715018a6","repayLoan(uint256)":"ab7b1c89","requestLoan(uint256,uint256,address[3],uint256,uint256)":"482351d5","setRecoveryGuardians(address[3])":"ab777a45","setWalletLock(address,bool)":"60aae920","transferOwnership(address)":"f2fde38b","trustScores(address)":"12df0fc4","userRecoveryGuardians(address,uint256)":"349d66cf","verifyIdentityProof(address,bytes)":"db2eb837"}}}}}