{
  "_format": "hh-sol-artifact-1",
  "contractName": "IdentityRegistry",
  "sourceName": "contracts/IdentityRegistry.sol",
  "abi": [
    {
      "inputs": [],
      "stateMutability": "nonpayable",
      "type": "constructor"
    },
    {
      "inputs": [
        {
          "internalType": "address",
          "name": "owner",
          "type": "address"
        }
      ],
      "name": "OwnableInvalidOwner",
      "type": "error"
    },
    {
      "inputs": [
        {
          "internalType": "address",
          "name": "account",
          "type": "address"
        }
      ],
      "name": "OwnableUnauthorizedAccount",
      "type": "error"
    },
    {
      "anonymous": false,
      "inputs": [
        {
          "indexed": true,
          "internalType": "address",
          "name": "wallet",
          "type": "address"
        },
        {
          "indexed": true,
          "internalType": "bytes32",
          "name": "phoneHash",
          "type": "bytes32"
        },
        {
          "indexed": true,
          "internalType": "bytes32",
          "name": "docHash",
          "type": "bytes32"
        },
        {
          "indexed": false,
          "internalType": "bytes32",
          "name": "commitment",
          "type": "bytes32"
        }
      ],
      "name": "IdentityRegistered",
      "type": "event"
    },
    {
      "anonymous": false,
      "inputs": [
        {
          "indexed": true,
          "internalType": "address",
          "name": "previousOwner",
          "type": "address"
        },
        {
          "indexed": true,
          "internalType": "address",
          "name": "newOwner",
          "type": "address"
        }
      ],
      "name": "OwnershipTransferred",
      "type": "event"
    },
    {
      "inputs": [
        {
          "internalType": "bytes32",
          "name": "",
          "type": "bytes32"
        }
      ],
      "name": "docHashToWallet",
      "outputs": [
        {
          "internalType": "address",
          "name": "",
          "type": "address"
        }
      ],
      "stateMutability": "view",
      "type": "function"
    },
    {
      "inputs": [],
      "name": "owner",
      "outputs": [
        {
          "internalType": "address",
          "name": "",
          "type": "address"
        }
      ],
      "stateMutability": "view",
      "type": "function"
    },
    {
      "inputs": [
        {
          "internalType": "bytes32",
          "name": "",
          "type": "bytes32"
        }
      ],
      "name": "phoneHashToWallet",
      "outputs": [
        {
          "internalType": "address",
          "name": "",
          "type": "address"
        }
      ],
      "stateMutability": "view",
      "type": "function"
    },
    {
      "inputs": [
        {
          "internalType": "address",
          "name": "wallet",
          "type": "address"
        },
        {
          "internalType": "bytes32",
          "name": "phoneHash",
          "type": "bytes32"
        },
        {
          "internalType": "bytes32",
          "name": "docHash",
          "type": "bytes32"
        },
        {
          "internalType": "bytes32",
          "name": "commitment",
          "type": "bytes32"
        }
      ],
      "name": "registerIdentity",
      "outputs": [],
      "stateMutability": "nonpayable",
      "type": "function"
    },
    {
      "inputs": [],
      "name": "renounceOwnership",
      "outputs": [],
      "stateMutability": "nonpayable",
      "type": "function"
    },
    {
      "inputs": [
        {
          "internalType": "address",
          "name": "newOwner",
          "type": "address"
        }
      ],
      "name": "transferOwnership",
      "outputs": [],
      "stateMutability": "nonpayable",
      "type": "function"
    },
    {
      "inputs": [
        {
          "internalType": "address",
          "name": "",
          "type": "address"
        }
      ],
      "name": "walletToIdentity",
      "outputs": [
        {
          "internalType": "address",
          "name": "wallet",
          "type": "address"
        },
        {
          "internalType": "bytes32",
          "name": "phoneHash",
          "type": "bytes32"
        },
        {
          "internalType": "bytes32",
          "name": "docHash",
          "type": "bytes32"
        },
        {
          "internalType": "bytes32",
          "name": "commitment",
          "type": "bytes32"
        },
        {
          "internalType": "uint256",
          "name": "registeredAt",
          "type": "uint256"
        }
      ],
      "stateMutability": "view",
      "type": "function"
    }
  ],
  "bytecode": "0x6080806040523461007a5733156100645760008054336001600160a01b03198216811783556040519290916001600160a01b0316907f8be0079c531659141344cd1fd0a4f28419497f9722a3daafe3b4186f6b6457e09080a36105cb90816100808239f35b631e4fbdf760e01b815260006004820152602490fd5b600080fdfe6080604081815260048036101561001557600080fd5b600092833560e01c908163231a6159146104e557508063700ccbf3146104b3578063715018a6146104565780638da5cb5b1461042e578063d6dcc9a7146103fc578063f23f0c89146100f95763f2fde38b1461007057600080fd5b346100f55760203660031901126100f55761008961054e565b90610092610569565b6001600160a01b039182169283156100df57505082546001600160a01b0319811683178455167f8be0079c531659141344cd1fd0a4f28419497f9722a3daafe3b4186f6b6457e08380a380f35b51631e4fbdf760e01b8152908101849052602490fd5b8280fd5b509190346103f85760803660031901126103f85761011561054e565b92602480359160449081359460649384359261012f610569565b6001600160a01b03998a169586156103c757871561039257881561035f57878a52602095600187528b858c205416888115918215610355575b50501561031857898b52600287528b858c20541688811591821561030e575b5050156102d15750508589526003855282892080548b16610290575082519160a083019083821067ffffffffffffffff83111761027f575098809a7f95b269b7e97f7df334c7aa390d9466e49ad59f960164fa09a3d6906eafb5dadb9798999a85528884528684018a8152858501908c825260608601928884528760808801954287528d815260038c52209651166bffffffffffffffffffffffff60a01b875416178655516001860155516002850155516003840155519101555b858852600183528088206bffffffffffffffffffffffff60a01b9086828254161790558789526002845285828a209182541617905551908152a480f35b634e487b7160e01b8b52604183528afd5b877f95b269b7e97f7df334c7aa390d9466e49ad59f960164fa09a3d6906eafb5dadb9798999a9b508593506003925060018201558960028201550155610242565b601b7f646f63756d656e7420616c72656164792072656769737465726564000000000092948887519562461bcd60e51b8752860152840152820152fd5b1490508838610187565b60187f70686f6e6520616c72656164792072656769737465726564000000000000000092948887519562461bcd60e51b8752860152840152820152fd5b1490508838610168565b9185601170191bd8c81a185cda081c995c5d5a5c9959607a1b92602087519562461bcd60e51b8752860152840152820152fd5b91856013721c1a1bdb99481a185cda081c995c5d5a5c9959606a1b92602087519562461bcd60e51b8752860152840152820152fd5b9185600f6e1dd85b1b195d081c995c5d5a5c9959608a1b92602087519562461bcd60e51b8752860152840152820152fd5b5080fd5b50346100f55760203660031901126100f55735825260026020908152918190205490516001600160a01b039091168152f35b5050346103f857816003193601126103f857905490516001600160a01b039091168152602090f35b83346104b057806003193601126104b05761046f610569565b80546001600160a01b03198116825581906001600160a01b03167f8be0079c531659141344cd1fd0a4f28419497f9722a3daafe3b4186f6b6457e08280a380f35b80fd5b50346100f55760203660031901126100f55735825260016020908152918190205490516001600160a01b039091168152f35b929190503461054a57602036600319011261054a5760a0936001600160a01b03919083908361051261054e565b168152600360205220918254169260018301546002840154926003850154940154948652602086015284015260608301526080820152f35b8380fd5b600435906001600160a01b038216820361056457565b600080fd5b6000546001600160a01b0316330361057d57565b60405163118cdaa760e01b8152336004820152602490fdfea2646970667358221220146275c16dacf143c171eb2245e2da8f800d86f75dc766f45d9be3e2bb28e29b64736f6c63430008180033",
  "linkReferences": {},
  "deployedLinkReferences": {}
}