{
  "_format": "hh-sol-artifact-1",
  "contractName": "BioLendEscrow",
  "sourceName": "contracts/BioLendEscrow.sol",
  "abi": [
    {
      "inputs": [
        {
          "internalType": "address",
          "name": "_binrAddress",
          "type": "address"
        }
      ],
      "stateMutability": "nonpayable",
      "type": "constructor"
    },
    {
      "inputs": [
        {
          "internalType": "address",
          "name": "owner",
          "type": "address"
        }
      ],
      "name": "OwnableInvalidOwner",
      "type": "error"
    },
    {
      "inputs": [
        {
          "internalType": "address",
          "name": "account",
          "type": "address"
        }
      ],
      "name": "OwnableUnauthorizedAccount",
      "type": "error"
    },
    {
      "inputs": [],
      "name": "ReentrancyGuardReentrantCall",
      "type": "error"
    },
    {
      "anonymous": false,
      "inputs": [
        {
          "indexed": true,
          "internalType": "uint256",
          "name": "loanId",
          "type": "uint256"
        },
        {
          "indexed": true,
          "internalType": "address",
          "name": "guardian",
          "type": "address"
        }
      ],
      "name": "GuardianApproved",
      "type": "event"
    },
    {
      "anonymous": false,
      "inputs": [
        {
          "indexed": true,
          "internalType": "uint256",
          "name": "loanId",
          "type": "uint256"
        },
        {
          "indexed": true,
          "internalType": "address",
          "name": "borrower",
          "type": "address"
        }
      ],
      "name": "LoanDefaulted",
      "type": "event"
    },
    {
      "anonymous": false,
      "inputs": [
        {
          "indexed": true,
          "internalType": "uint256",
          "name": "loanId",
          "type": "uint256"
        },
        {
          "indexed": true,
          "internalType": "address",
          "name": "borrower",
          "type": "address"
        }
      ],
      "name": "LoanDisbursed",
      "type": "event"
    },
    {
      "anonymous": false,
      "inputs": [
        {
          "indexed": true,
          "internalType": "uint256",
          "name": "loanId",
          "type": "uint256"
        },
        {
          "indexed": true,
          "internalType": "address",
          "name": "lender",
          "type": "address"
        }
      ],
      "name": "LoanFunded",
      "type": "event"
    },
    {
      "anonymous": false,
      "inputs": [
        {
          "indexed": true,
          "internalType": "uint256",
          "name": "loanId",
          "type": "uint256"
        },
        {
          "indexed": true,
          "internalType": "address",
          "name": "borrower",
          "type": "address"
        }
      ],
      "name": "LoanRepaid",
      "type": "event"
    },
    {
      "anonymous": false,
      "inputs": [
        {
          "indexed": true,
          "internalType": "uint256",
          "name": "loanId",
          "type": "uint256"
        },
        {
          "indexed": true,
          "internalType": "address",
          "name": "borrower",
          "type": "address"
        },
        {
          "indexed": false,
          "internalType": "uint256",
          "name": "amount",
          "type": "uint256"
        }
      ],
      "name": "LoanRequested",
      "type": "event"
    },
    {
      "anonymous": false,
      "inputs": [
        {
          "indexed": true,
          "internalType": "address",
          "name": "previousOwner",
          "type": "address"
        },
        {
          "indexed": true,
          "internalType": "address",
          "name": "newOwner",
          "type": "address"
        }
      ],
      "name": "OwnershipTransferred",
      "type": "event"
    },
    {
      "anonymous": false,
      "inputs": [
        {
          "indexed": true,
          "internalType": "address",
          "name": "user",
          "type": "address"
        },
        {
          "indexed": false,
          "internalType": "bool",
          "name": "isLocked",
          "type": "bool"
        }
      ],
      "name": "WalletLockToggled",
      "type": "event"
    },
    {
      "inputs": [
        {
          "internalType": "uint256",
          "name": "loanId",
          "type": "uint256"
        }
      ],
      "name": "approveByGuardian",
      "outputs": [],
      "stateMutability": "nonpayable",
      "type": "function"
    },
    {
      "inputs": [],
      "name": "binrToken",
      "outputs": [
        {
          "internalType": "contract IERC20",
          "name": "",
          "type": "address"
        }
      ],
      "stateMutability": "view",
      "type": "function"
    },
    {
      "inputs": [
        {
          "internalType": "uint256",
          "name": "loanId",
          "type": "uint256"
        }
      ],
      "name": "fundLoan",
      "outputs": [],
      "stateMutability": "nonpayable",
      "type": "function"
    },
    {
      "inputs": [
        {
          "internalType": "uint256",
          "name": "",
          "type": "uint256"
        },
        {
          "internalType": "address",
          "name": "",
          "type": "address"
        }
      ],
      "name": "hasGuardianApproved",
      "outputs": [
        {
          "internalType": "bool",
          "name": "",
          "type": "bool"
        }
      ],
      "stateMutability": "view",
      "type": "function"
    },
    {
      "inputs": [
        {
          "internalType": "address",
          "name": "",
          "type": "address"
        }
      ],
      "name": "isLocked",
      "outputs": [
        {
          "internalType": "bool",
          "name": "",
          "type": "bool"
        }
      ],
      "stateMutability": "view",
      "type": "function"
    },
    {
      "inputs": [
        {
          "internalType": "uint256",
          "name": "",
          "type": "uint256"
        }
      ],
      "name": "loans",
      "outputs": [
        {
          "internalType": "uint256",
          "name": "id",
          "type": "uint256"
        },
        {
          "internalType": "uint256",
          "name": "amount",
          "type": "uint256"
        },
        {
          "internalType": "uint256",
          "name": "interestAmount",
          "type": "uint256"
        },
        {
          "internalType": "address",
          "name": "borrower",
          "type": "address"
        },
        {
          "internalType": "address",
          "name": "lender",
          "type": "address"
        },
        {
          "internalType": "uint8",
          "name": "approvals",
          "type": "uint8"
        },
        {
          "internalType": "bool",
          "name": "isFunded",
          "type": "bool"
        },
        {
          "internalType": "bool",
          "name": "isDisbursed",
          "type": "bool"
        },
        {
          "internalType": "bool",
          "name": "isRepaid",
          "type": "bool"
        },
        {
          "internalType": "bool",
          "name": "isDefaulted",
          "type": "bool"
        },
        {
          "internalType": "uint256",
          "name": "deadline",
          "type": "uint256"
        }
      ],
      "stateMutability": "view",
      "type": "function"
    },
    {
      "inputs": [
        {
          "internalType": "uint256",
          "name": "loanId",
          "type": "uint256"
        }
      ],
      "name": "markDefault",
      "outputs": [],
      "stateMutability": "nonpayable",
      "type": "function"
    },
    {
      "inputs": [],
      "name": "nextLoanId",
      "outputs": [
        {
          "internalType": "uint256",
          "name": "",
          "type": "uint256"
        }
      ],
      "stateMutability": "view",
      "type": "function"
    },
    {
      "inputs": [],
      "name": "owner",
      "outputs": [
        {
          "internalType": "address",
          "name": "",
          "type": "address"
        }
      ],
      "stateMutability": "view",
      "type": "function"
    },
    {
      "inputs": [
        {
          "internalType": "uint256",
          "name": "amount",
          "type": "uint256"
        },
        {
          "internalType": "address",
          "name": "decoyVault",
          "type": "address"
        }
      ],
      "name": "panicTransfer",
      "outputs": [],
      "stateMutability": "nonpayable",
      "type": "function"
    },
    {
      "inputs": [],
      "name": "renounceOwnership",
      "outputs": [],
      "stateMutability": "nonpayable",
      "type": "function"
    },
    {
      "inputs": [
        {
          "internalType": "uint256",
          "name": "loanId",
          "type": "uint256"
        }
      ],
      "name": "repayLoan",
      "outputs": [],
      "stateMutability": "nonpayable",
      "type": "function"
    },
    {
      "inputs": [
        {
          "internalType": "uint256",
          "name": "_amount",
          "type": "uint256"
        },
        {
          "internalType": "uint256",
          "name": "_interestAmount",
          "type": "uint256"
        },
        {
          "internalType": "address[3]",
          "name": "_guardians",
          "type": "address[3]"
        }
      ],
      "name": "requestLoan",
      "outputs": [],
      "stateMutability": "nonpayable",
      "type": "function"
    },
    {
      "inputs": [
        {
          "internalType": "address",
          "name": "user",
          "type": "address"
        },
        {
          "internalType": "bool",
          "name": "status",
          "type": "bool"
        }
      ],
      "name": "setWalletLock",
      "outputs": [],
      "stateMutability": "nonpayable",
      "type": "function"
    },
    {
      "inputs": [
        {
          "internalType": "address",
          "name": "newOwner",
          "type": "address"
        }
      ],
      "name": "transferOwnership",
      "outputs": [],
      "stateMutability": "nonpayable",
      "type": "function"
    },
    {
      "inputs": [
        {
          "internalType": "address",
          "name": "",
          "type": "address"
        }
      ],
      "name": "trustScores",
      "outputs": [
        {
          "internalType": "int256",
          "name": "",
          "type": "int256"
        }
      ],
      "stateMutability": "view",
      "type": "function"
    }
  ],
  "bytecode": "0x60806040523480156200001157600080fd5b5060405162002fd338038062002fd3833981810160405281019062000037919062000293565b33600073ffffffffffffffffffffffffffffffffffffffff168173ffffffffffffffffffffffffffffffffffffffff1603620000ad5760006040517f1e4fbdf7000000000000000000000000000000000000000000000000000000008152600401620000a49190620002d6565b60405180910390fd5b620000be816200013060201b60201c565b506001620000e1620000d5620001f460201b60201c565b6200021f60201b60201c565b6000018190555080600160006101000a81548173ffffffffffffffffffffffffffffffffffffffff021916908373ffffffffffffffffffffffffffffffffffffffff16021790555050620002f3565b60008060009054906101000a900473ffffffffffffffffffffffffffffffffffffffff169050816000806101000a81548173ffffffffffffffffffffffffffffffffffffffff021916908373ffffffffffffffffffffffffffffffffffffffff1602179055508173ffffffffffffffffffffffffffffffffffffffff168173ffffffffffffffffffffffffffffffffffffffff167f8be0079c531659141344cd1fd0a4f28419497f9722a3daafe3b4186f6b6457e060405160405180910390a35050565b60007f9b779b17422d0df92223018b32b4d1fa46e071723d6817e2486d003becc55f0060001b905090565b6000819050919050565b600080fd5b600073ffffffffffffffffffffffffffffffffffffffff82169050919050565b60006200025b826200022e565b9050919050565b6200026d816200024e565b81146200027957600080fd5b50565b6000815190506200028d8162000262565b92915050565b600060208284031215620002ac57620002ab62000229565b5b6000620002bc848285016200027c565b91505092915050565b620002d0816200024e565b82525050565b6000602082019050620002ed6000830184620002c5565b92915050565b612cd080620003036000396000f3fe608060405234801561001057600080fd5b50600436106101005760003560e01c8063ab7b1c8911610097578063e1ec3c6811610066578063e1ec3c6814610285578063ed0ffc89146102bf578063f2fde38b146102db578063fade6608146102f757610100565b8063ab7b1c8914610213578063ac9c68d41461022f578063d9f12fdf1461024d578063e1d927c81461026957610100565b8063715018a6116100d3578063715018a6146101b1578063846b909a146101bb57806387c51459146101d75780638da5cb5b146101f557610100565b806312df0fc4146101055780634a4fbeec14610135578063560df8011461016557806360aae92014610195575b600080fd5b61011f600480360381019061011a9190611cc0565b610313565b60405161012c9190611d06565b60405180910390f35b61014f600480360381019061014a9190611cc0565b61032b565b60405161015c9190611d3c565b60405180910390f35b61017f600480360381019061017a9190611d8d565b61034b565b60405161018c9190611d3c565b60405180910390f35b6101af60048036038101906101aa9190611df9565b61037a565b005b6101b96104ce565b005b6101d560048036038101906101d09190611e39565b6104e2565b005b6101df610821565b6040516101ec9190611e75565b60405180910390f35b6101fd610827565b60405161020a9190611e9f565b60405180910390f35b61022d60048036038101906102289190611e39565b610850565b005b610237610c1d565b6040516102449190611f19565b60405180910390f35b61026760048036038101906102629190611d8d565b610c43565b005b610283600480360381019061027e9190611e39565b610d38565b005b61029f600480360381019061029a9190611e39565b61105d565b6040516102b69b9a99989796959493929190611f50565b60405180910390f35b6102d960048036038101906102d49190611e39565b611138565b005b6102f560048036038101906102f09190611cc0565b611742565b005b610311600480360381019061030c9190612142565b6117c8565b005b60056020528060005260406000206000915090505481565b60066020528060005260406000206000915054906101000a900460ff1681565b60046020528160005260406000206020528060005260406000206000915091509054906101000a900460ff1681565b8173ffffffffffffffffffffffffffffffffffffffff163373ffffffffffffffffffffffffffffffffffffffff1614806103e657506103b7610827565b73ffffffffffffffffffffffffffffffffffffffff163373ffffffffffffffffffffffffffffffffffffffff16145b610425576040517f08c379a000000000000000000000000000000000000000000000000000000000815260040161041c906121f2565b60405180910390fd5b80600660008473ffffffffffffffffffffffffffffffffffffffff1673ffffffffffffffffffffffffffffffffffffffff16815260200190815260200160002060006101000a81548160ff0219169083151502179055508173ffffffffffffffffffffffffffffffffffffffff167f28d3d7f2bd6ab428a99355b8c20ffc826f9061be615da2f44341df2df113aeb6826040516104c29190611d3c565b60405180910390a25050565b6104d6611994565b6104e06000611a1b565b565b33600660008273ffffffffffffffffffffffffffffffffffffffff1673ffffffffffffffffffffffffffffffffffffffff16815260200190815260200160002060009054906101000a900460ff1615610570576040517f08c379a000000000000000000000000000000000000000000000000000000000815260040161056790612284565b60405180910390fd5b610578611adf565b6000600360008481526020019081526020016000209050600073ffffffffffffffffffffffffffffffffffffffff168160030160009054906101000a900473ffffffffffffffffffffffffffffffffffffffff1673ffffffffffffffffffffffffffffffffffffffff1603610622576040517f08c379a0000000000000000000000000000000000000000000000000000000008152600401610619906122f0565b60405180910390fd5b8060080160019054906101000a900460ff1615610674576040517f08c379a000000000000000000000000000000000000000000000000000000000815260040161066b9061235c565b60405180910390fd5b338160040160006101000a81548173ffffffffffffffffffffffffffffffffffffffff021916908373ffffffffffffffffffffffffffffffffffffffff16021790555060018160080160016101000a81548160ff02191690831515021790555062278d00426106e391906123ab565b8160090181905550600160009054906101000a900473ffffffffffffffffffffffffffffffffffffffff1673ffffffffffffffffffffffffffffffffffffffff166323b872dd333084600101546040518463ffffffff1660e01b815260040161074e939291906123df565b6020604051808303816000875af115801561076d573d6000803e3d6000fd5b505050506040513d601f19601f82011682018060405250810190610791919061242b565b6107d0576040517f08c379a00000000000000000000000000000000000000000000000000000000081526004016107c7906124a4565b60405180910390fd5b3373ffffffffffffffffffffffffffffffffffffffff16837f15feab5d3eb17171632762cf769709a315dd15f487a556c0dfb8a259c8f186cc60405160405180910390a35061081d611b02565b5050565b60025481565b60008060009054906101000a900473ffffffffffffffffffffffffffffffffffffffff16905090565b33600660008273ffffffffffffffffffffffffffffffffffffffff1673ffffffffffffffffffffffffffffffffffffffff16815260200190815260200160002060009054906101000a900460ff16156108de576040517f08c379a00000000000000000000000000000000000000000000000000000000081526004016108d590612284565b60405180910390fd5b6108e6611adf565b60006003600084815260200190815260200160002090508060080160029054906101000a900460ff1661094e576040517f08c379a000000000000000000000000000000000000000000000000000000000815260040161094590612510565b60405180910390fd5b8060080160039054906101000a900460ff16156109a0576040517f08c379a00000000000000000000000000000000000000000000000000000000081526004016109979061257c565b60405180910390fd5b8060080160049054906101000a900460ff16156109f2576040517f08c379a00000000000000000000000000000000000000000000000000000000081526004016109e9906125e8565b60405180910390fd5b600081600201548260010154610a0891906123ab565b905060018260080160036101000a81548160ff0219169083151502179055506001600560008460030160009054906101000a900473ffffffffffffffffffffffffffffffffffffffff1673ffffffffffffffffffffffffffffffffffffffff1673ffffffffffffffffffffffffffffffffffffffff1681526020019081526020016000206000828254610a9b9190612608565b92505081905550600160009054906101000a900473ffffffffffffffffffffffffffffffffffffffff1673ffffffffffffffffffffffffffffffffffffffff166323b872dd338460040160009054906101000a900473ffffffffffffffffffffffffffffffffffffffff16846040518463ffffffff1660e01b8152600401610b25939291906123df565b6020604051808303816000875af1158015610b44573d6000803e3d6000fd5b505050506040513d601f19601f82011682018060405250810190610b68919061242b565b610ba7576040517f08c379a0000000000000000000000000000000000000000000000000000000008152600401610b9e90612698565b60405180910390fd5b8160030160009054906101000a900473ffffffffffffffffffffffffffffffffffffffff1673ffffffffffffffffffffffffffffffffffffffff16847fe69d7686a8bc68278b8c5419579f91716b3ef2ac2fac0d8cf80b8011f8f458a460405160405180910390a35050610c19611b02565b5050565b600160009054906101000a900473ffffffffffffffffffffffffffffffffffffffff1681565b610c4b611adf565b600160009054906101000a900473ffffffffffffffffffffffffffffffffffffffff1673ffffffffffffffffffffffffffffffffffffffff166323b872dd3383856040518463ffffffff1660e01b8152600401610caa939291906123df565b6020604051808303816000875af1158015610cc9573d6000803e3d6000fd5b505050506040513d601f19601f82011682018060405250810190610ced919061242b565b610d2c576040517f08c379a0000000000000000000000000000000000000000000000000000000008152600401610d2390612704565b60405180910390fd5b610d34611b02565b5050565b60006003600083815260200190815260200160002090508060080160029054906101000a900460ff16610da0576040517f08c379a0000000000000000000000000000000000000000000000000000000008152600401610d9790612510565b60405180910390fd5b8060080160039054906101000a900460ff1615610df2576040517f08c379a0000000000000000000000000000000000000000000000000000000008152600401610de99061257c565b60405180910390fd5b8060080160049054906101000a900460ff1615610e44576040517f08c379a0000000000000000000000000000000000000000000000000000000008152600401610e3b90612770565b60405180910390fd5b8060040160009054906101000a900473ffffffffffffffffffffffffffffffffffffffff1673ffffffffffffffffffffffffffffffffffffffff163373ffffffffffffffffffffffffffffffffffffffff161480610ed45750610ea5610827565b73ffffffffffffffffffffffffffffffffffffffff163373ffffffffffffffffffffffffffffffffffffffff16145b610f13576040517f08c379a0000000000000000000000000000000000000000000000000000000008152600401610f0a906127dc565b60405180910390fd5b80600901544211610f59576040517f08c379a0000000000000000000000000000000000000000000000000000000008152600401610f5090612848565b60405180910390fd5b60018160080160046101000a81548160ff0219169083151502179055506001600560008360030160009054906101000a900473ffffffffffffffffffffffffffffffffffffffff1673ffffffffffffffffffffffffffffffffffffffff1673ffffffffffffffffffffffffffffffffffffffff1681526020019081526020016000206000828254610fea9190612868565b925050819055508060030160009054906101000a900473ffffffffffffffffffffffffffffffffffffffff1673ffffffffffffffffffffffffffffffffffffffff16827f13b88e6866f0156d706fecfa22b678de5fc2b749c1d2307f6f47eb541385f1ec60405160405180910390a35050565b60036020528060005260406000206000915090508060000154908060010154908060020154908060030160009054906101000a900473ffffffffffffffffffffffffffffffffffffffff16908060040160009054906101000a900473ffffffffffffffffffffffffffffffffffffffff16908060080160009054906101000a900460ff16908060080160019054906101000a900460ff16908060080160029054906101000a900460ff16908060080160039054906101000a900460ff16908060080160049054906101000a900460ff1690806009015490508b565b611140611adf565b33600660008273ffffffffffffffffffffffffffffffffffffffff1673ffffffffffffffffffffffffffffffffffffffff16815260200190815260200160002060009054906101000a900460ff16156111ce576040517f08c379a00000000000000000000000000000000000000000000000000000000081526004016111c590612284565b60405180910390fd5b6000600360008481526020019081526020016000209050600660008260030160009054906101000a900473ffffffffffffffffffffffffffffffffffffffff1673ffffffffffffffffffffffffffffffffffffffff1673ffffffffffffffffffffffffffffffffffffffff16815260200190815260200160002060009054906101000a900460ff1615611296576040517f08c379a000000000000000000000000000000000000000000000000000000000815260040161128d9061291d565b60405180910390fd5b8060080160019054906101000a900460ff166112e7576040517f08c379a00000000000000000000000000000000000000000000000000000000081526004016112de90612989565b60405180910390fd5b8060080160029054906101000a900460ff1615611339576040517f08c379a0000000000000000000000000000000000000000000000000000000008152600401611330906129f5565b60405180910390fd5b6004600084815260200190815260200160002060003373ffffffffffffffffffffffffffffffffffffffff1673ffffffffffffffffffffffffffffffffffffffff16815260200190815260200160002060009054906101000a900460ff16156113d7576040517f08c379a00000000000000000000000000000000000000000000000000000000081526004016113ce90612a61565b60405180910390fd5b6000805b6003811015611464573373ffffffffffffffffffffffffffffffffffffffff1683600501826003811061141157611410612a81565b5b0160009054906101000a900473ffffffffffffffffffffffffffffffffffffffff1673ffffffffffffffffffffffffffffffffffffffff16036114575760019150611464565b80806001019150506113db565b50806114a5576040517f08c379a000000000000000000000000000000000000000000000000000000000815260040161149c90612afc565b60405180910390fd5b60016004600086815260200190815260200160002060003373ffffffffffffffffffffffffffffffffffffffff1673ffffffffffffffffffffffffffffffffffffffff16815260200190815260200160002060006101000a81548160ff02191690831515021790555060018260080160008282829054906101000a900460ff1661152f9190612b1c565b92506101000a81548160ff021916908360ff1602179055503373ffffffffffffffffffffffffffffffffffffffff16847f79fabecec253afacf6f463953c9593ed9a5a910b601f3bfd30be8e404c45f1ab60405160405180910390a360028260080160009054906101000a900460ff1660ff16106117345760018260080160026101000a81548160ff021916908315150217905550600160009054906101000a900473ffffffffffffffffffffffffffffffffffffffff1673ffffffffffffffffffffffffffffffffffffffff1663a9059cbb8360030160009054906101000a900473ffffffffffffffffffffffffffffffffffffffff1684600101546040518363ffffffff1660e01b8152600401611649929190612b51565b6020604051808303816000875af1158015611668573d6000803e3d6000fd5b505050506040513d601f19601f8201168201806040525081019061168c919061242b565b6116cb576040517f08c379a00000000000000000000000000000000000000000000000000000000081526004016116c290612bc6565b60405180910390fd5b8160030160009054906101000a900473ffffffffffffffffffffffffffffffffffffffff1673ffffffffffffffffffffffffffffffffffffffff16847f9e003ed43b1d48ee01bd3dab23f09cfefaa5155ccae549cf83967adf17e8492660405160405180910390a35b50505061173f611b02565b50565b61174a611994565b600073ffffffffffffffffffffffffffffffffffffffff168173ffffffffffffffffffffffffffffffffffffffff16036117bc5760006040517f1e4fbdf70000000000000000000000000000000000000000000000000000000081526004016117b39190611e9f565b60405180910390fd5b6117c581611a1b565b50565b33600660008273ffffffffffffffffffffffffffffffffffffffff1673ffffffffffffffffffffffffffffffffffffffff16815260200190815260200160002060009054906101000a900460ff1615611856576040517f08c379a000000000000000000000000000000000000000000000000000000000815260040161184d90612284565b60405180910390fd5b60008411611899576040517f08c379a000000000000000000000000000000000000000000000000000000000815260040161189090612c32565b60405180910390fd5b6000600260008154809291906118ae90612c52565b9190505590506000600360008381526020019081526020016000209050818160000181905550858160010181905550848160020181905550338160030160006101000a81548173ffffffffffffffffffffffffffffffffffffffff021916908373ffffffffffffffffffffffffffffffffffffffff160217905550838160050190600361193c929190611bb9565b503373ffffffffffffffffffffffffffffffffffffffff16827f97e04be2fd6414727fe9d0400464568f4384aa8b06264119565ca8f6cc2a4b7a886040516119849190611e75565b60405180910390a3505050505050565b61199c611b1d565b73ffffffffffffffffffffffffffffffffffffffff166119ba610827565b73ffffffffffffffffffffffffffffffffffffffff1614611a19576119dd611b1d565b6040517f118cdaa7000000000000000000000000000000000000000000000000000000008152600401611a109190611e9f565b60405180910390fd5b565b60008060009054906101000a900473ffffffffffffffffffffffffffffffffffffffff169050816000806101000a81548173ffffffffffffffffffffffffffffffffffffffff021916908373ffffffffffffffffffffffffffffffffffffffff1602179055508173ffffffffffffffffffffffffffffffffffffffff168173ffffffffffffffffffffffffffffffffffffffff167f8be0079c531659141344cd1fd0a4f28419497f9722a3daafe3b4186f6b6457e060405160405180910390a35050565b611ae7611b25565b6002611af9611af4611b66565b611b91565b60000181905550565b6001611b14611b0f611b66565b611b91565b60000181905550565b600033905090565b611b2d611b9b565b15611b64576040517f3ee5aeb500000000000000000000000000000000000000000000000000000000815260040160405180910390fd5b565b60007f9b779b17422d0df92223018b32b4d1fa46e071723d6817e2486d003becc55f0060001b905090565b6000819050919050565b60006002611baf611baa611b66565b611b91565b6000015414905090565b8260038101928215611c25579160200282015b82811115611c245782518260006101000a81548173ffffffffffffffffffffffffffffffffffffffff021916908373ffffffffffffffffffffffffffffffffffffffff16021790555091602001919060010190611bcc565b5b509050611c329190611c36565b5090565b5b80821115611c4f576000816000905550600101611c37565b5090565b6000604051905090565b600080fd5b600073ffffffffffffffffffffffffffffffffffffffff82169050919050565b6000611c8d82611c62565b9050919050565b611c9d81611c82565b8114611ca857600080fd5b50565b600081359050611cba81611c94565b92915050565b600060208284031215611cd657611cd5611c5d565b5b6000611ce484828501611cab565b91505092915050565b6000819050919050565b611d0081611ced565b82525050565b6000602082019050611d1b6000830184611cf7565b92915050565b60008115159050919050565b611d3681611d21565b82525050565b6000602082019050611d516000830184611d2d565b92915050565b6000819050919050565b611d6a81611d57565b8114611d7557600080fd5b50565b600081359050611d8781611d61565b92915050565b60008060408385031215611da457611da3611c5d565b5b6000611db285828601611d78565b9250506020611dc385828601611cab565b9150509250929050565b611dd681611d21565b8114611de157600080fd5b50565b600081359050611df381611dcd565b92915050565b60008060408385031215611e1057611e0f611c5d565b5b6000611e1e85828601611cab565b9250506020611e2f85828601611de4565b9150509250929050565b600060208284031215611e4f57611e4e611c5d565b5b6000611e5d84828501611d78565b91505092915050565b611e6f81611d57565b82525050565b6000602082019050611e8a6000830184611e66565b92915050565b611e9981611c82565b82525050565b6000602082019050611eb46000830184611e90565b92915050565b6000819050919050565b6000611edf611eda611ed584611c62565b611eba565b611c62565b9050919050565b6000611ef182611ec4565b9050919050565b6000611f0382611ee6565b9050919050565b611f1381611ef8565b82525050565b6000602082019050611f2e6000830184611f0a565b92915050565b600060ff82169050919050565b611f4a81611f34565b82525050565b600061016082019050611f66600083018e611e66565b611f73602083018d611e66565b611f80604083018c611e66565b611f8d606083018b611e90565b611f9a608083018a611e90565b611fa760a0830189611f41565b611fb460c0830188611d2d565b611fc160e0830187611d2d565b611fcf610100830186611d2d565b611fdd610120830185611d2d565b611feb610140830184611e66565b9c9b505050505050505050505050565b600080fd5b6000601f19601f8301169050919050565b7f4e487b7100000000000000000000000000000000000000000000000000000000600052604160045260246000fd5b61204982612000565b810181811067ffffffffffffffff8211171561206857612067612011565b5b80604052505050565b600061207b611c53565b90506120878282612040565b919050565b600067ffffffffffffffff8211156120a7576120a6612011565b5b602082029050919050565b600080fd5b60006120ca6120c58461208c565b612071565b905080602084028301858111156120e4576120e36120b2565b5b835b8181101561210d57806120f98882611cab565b8452602084019350506020810190506120e6565b5050509392505050565b600082601f83011261212c5761212b611ffb565b5b60036121398482856120b7565b91505092915050565b600080600060a0848603121561215b5761215a611c5d565b5b600061216986828701611d78565b935050602061217a86828701611d78565b925050604061218b86828701612117565b9150509250925092565b600082825260208201905092915050565b7f42696f4c656e643a204e6f7420617574686f72697a6564000000000000000000600082015250565b60006121dc601783612195565b91506121e7826121a6565b602082019050919050565b6000602082019050818103600083015261220b816121cf565b9050919050565b7f42696f4c656e643a2057616c6c6574206973206c6f636b65642076696120534d60008201527f5320656d657267656e6379206d6f646500000000000000000000000000000000602082015250565b600061226e603083612195565b915061227982612212565b604082019050919050565b6000602082019050818103600083015261229d81612261565b9050919050565b7f4c6f616e20646f6573206e6f7420657869737400000000000000000000000000600082015250565b60006122da601383612195565b91506122e5826122a4565b602082019050919050565b60006020820190508181036000830152612309816122cd565b9050919050565b7f4c6f616e20616c72656164792066756e64656400000000000000000000000000600082015250565b6000612346601383612195565b915061235182612310565b602082019050919050565b6000602082019050818103600083015261237581612339565b9050919050565b7f4e487b7100000000000000000000000000000000000000000000000000000000600052601160045260246000fd5b60006123b682611d57565b91506123c183611d57565b92508282019050808211156123d9576123d861237c565b5b92915050565b60006060820190506123f46000830186611e90565b6124016020830185611e90565b61240e6040830184611e66565b949350505050565b60008151905061242581611dcd565b92915050565b60006020828403121561244157612440611c5d565b5b600061244f84828501612416565b91505092915050565b7f5472616e73666572206661696c65640000000000000000000000000000000000600082015250565b600061248e600f83612195565b915061249982612458565b602082019050919050565b600060208201905081810360008301526124bd81612481565b9050919050565b7f4c6f616e206e6f74206469736275727365640000000000000000000000000000600082015250565b60006124fa601283612195565b9150612505826124c4565b602082019050919050565b60006020820190508181036000830152612529816124ed565b9050919050565b7f416c726561647920726570616964000000000000000000000000000000000000600082015250565b6000612566600e83612195565b915061257182612530565b602082019050919050565b6000602082019050818103600083015261259581612559565b9050919050565b7f4c6f616e20697320696e2064656661756c742073746174650000000000000000600082015250565b60006125d2601883612195565b91506125dd8261259c565b602082019050919050565b60006020820190508181036000830152612601816125c5565b9050919050565b600061261382611ced565b915061261e83611ced565b9250828201905082811215600083121683821260008412151617156126465761264561237c565b5b92915050565b7f52657061796d656e74207472616e73666572206661696c656400000000000000600082015250565b6000612682601983612195565b915061268d8261264c565b602082019050919050565b600060208201905081810360008301526126b181612675565b9050919050565b7f50616e6963207472616e73666572206661696c65640000000000000000000000600082015250565b60006126ee601583612195565b91506126f9826126b8565b602082019050919050565b6000602082019050818103600083015261271d816126e1565b9050919050565b7f416c72656164792064656661756c746564000000000000000000000000000000600082015250565b600061275a601183612195565b915061276582612724565b602082019050919050565b600060208201905081810360008301526127898161274d565b9050919050565b7f4e6f7420617574686f72697a6564000000000000000000000000000000000000600082015250565b60006127c6600e83612195565b91506127d182612790565b602082019050919050565b600060208201905081810360008301526127f5816127b9565b9050919050565b7f446561646c696e65206e6f742070617373656420796574000000000000000000600082015250565b6000612832601783612195565b915061283d826127fc565b602082019050919050565b6000602082019050818103600083015261286181612825565b9050919050565b600061287382611ced565b915061287e83611ced565b92508282039050818112600084121682821360008512151617156128a5576128a461237c565b5b92915050565b7f42696f4c656e643a20426f72726f7765722077616c6c6574206973206c6f636b60008201527f6564000000000000000000000000000000000000000000000000000000000000602082015250565b6000612907602283612195565b9150612912826128ab565b604082019050919050565b60006020820190508181036000830152612936816128fa565b9050919050565b7f4c6f616e206d7573742062652066756e64656420666972737400000000000000600082015250565b6000612973601983612195565b915061297e8261293d565b602082019050919050565b600060208201905081810360008301526129a281612966565b9050919050565b7f4c6f616e20616c72656164792064697362757273656400000000000000000000600082015250565b60006129df601683612195565b91506129ea826129a9565b602082019050919050565b60006020820190508181036000830152612a0e816129d2565b9050919050565b7f416c726561647920617070726f76656400000000000000000000000000000000600082015250565b6000612a4b601083612195565b9150612a5682612a15565b602082019050919050565b60006020820190508181036000830152612a7a81612a3e565b9050919050565b7f4e487b7100000000000000000000000000000000000000000000000000000000600052603260045260246000fd5b7f4e6f7420612064657369676e6174656420677561726469616e00000000000000600082015250565b6000612ae6601983612195565b9150612af182612ab0565b602082019050919050565b60006020820190508181036000830152612b1581612ad9565b9050919050565b6000612b2782611f34565b9150612b3283611f34565b9250828201905060ff811115612b4b57612b4a61237c565b5b92915050565b6000604082019050612b666000830185611e90565b612b736020830184611e66565b9392505050565b7f44697362757273656d656e74206661696c656400000000000000000000000000600082015250565b6000612bb0601383612195565b9150612bbb82612b7a565b602082019050919050565b60006020820190508181036000830152612bdf81612ba3565b9050919050565b7f416d6f756e74206d757374206265203e20300000000000000000000000000000600082015250565b6000612c1c601283612195565b9150612c2782612be6565b602082019050919050565b60006020820190508181036000830152612c4b81612c0f565b9050919050565b6000612c5d82611d57565b91507fffffffffffffffffffffffffffffffffffffffffffffffffffffffffffffffff8203612c8f57612c8e61237c565b5b60018201905091905056fea2646970667358221220be81f9cd6df3ffd4fd102d90cc58905c12c1812d842ddee76ee0f3833d3ca9ae64736f6c63430008180033",
  "linkReferences": {},
  "deployedLinkReferences": {}
}