{
  "_format": "hh-sol-artifact-1",
  "contractName": "LoanPouchEscrow",
  "sourceName": "contracts/LoanPouchEscrow.sol",
  "abi": [
    {
      "inputs": [
        {
          "internalType": "address",
          "name": "_binrAddress",
          "type": "address"
        }
      ],
      "stateMutability": "nonpayable",
      "type": "constructor"
    },
    {
      "inputs": [
        {
          "internalType": "address",
          "name": "owner",
          "type": "address"
        }
      ],
      "name": "OwnableInvalidOwner",
      "type": "error"
    },
    {
      "inputs": [
        {
          "internalType": "address",
          "name": "account",
          "type": "address"
        }
      ],
      "name": "OwnableUnauthorizedAccount",
      "type": "error"
    },
    {
      "inputs": [],
      "name": "ReentrancyGuardReentrantCall",
      "type": "error"
    },
    {
      "anonymous": false,
      "inputs": [
        {
          "indexed": true,
          "internalType": "uint256",
          "name": "loanId",
          "type": "uint256"
        },
        {
          "indexed": true,
          "internalType": "address",
          "name": "guardian",
          "type": "address"
        },
        {
          "indexed": false,
          "internalType": "uint8",
          "name": "weightApplied",
          "type": "uint8"
        }
      ],
      "name": "GuardianApproved",
      "type": "event"
    },
    {
      "anonymous": false,
      "inputs": [
        {
          "indexed": true,
          "internalType": "uint256",
          "name": "loanId",
          "type": "uint256"
        },
        {
          "indexed": true,
          "internalType": "address",
          "name": "guardian",
          "type": "address"
        }
      ],
      "name": "GuardianRejected",
      "type": "event"
    },
    {
      "anonymous": false,
      "inputs": [
        {
          "indexed": true,
          "internalType": "address",
          "name": "oldWallet",
          "type": "address"
        },
        {
          "indexed": false,
          "internalType": "address",
          "name": "newWallet",
          "type": "address"
        }
      ],
      "name": "IdentityRecovered",
      "type": "event"
    },
    {
      "anonymous": false,
      "inputs": [
        {
          "indexed": true,
          "internalType": "uint256",
          "name": "loanId",
          "type": "uint256"
        },
        {
          "indexed": false,
          "internalType": "uint8",
          "name": "trancheNumber",
          "type": "uint8"
        }
      ],
      "name": "InstallmentRepaid",
      "type": "event"
    },
    {
      "anonymous": false,
      "inputs": [
        {
          "indexed": true,
          "internalType": "uint256",
          "name": "loanId",
          "type": "uint256"
        },
        {
          "indexed": false,
          "internalType": "string",
          "name": "reason",
          "type": "string"
        }
      ],
      "name": "LoanCancelled",
      "type": "event"
    },
    {
      "anonymous": false,
      "inputs": [
        {
          "indexed": true,
          "internalType": "uint256",
          "name": "loanId",
          "type": "uint256"
        },
        {
          "indexed": true,
          "internalType": "address",
          "name": "borrower",
          "type": "address"
        }
      ],
      "name": "LoanDefaulted",
      "type": "event"
    },
    {
      "anonymous": false,
      "inputs": [
        {
          "indexed": true,
          "internalType": "uint256",
          "name": "loanId",
          "type": "uint256"
        },
        {
          "indexed": true,
          "internalType": "address",
          "name": "borrower",
          "type": "address"
        }
      ],
      "name": "LoanDisbursed",
      "type": "event"
    },
    {
      "anonymous": false,
      "inputs": [
        {
          "indexed": true,
          "internalType": "uint256",
          "name": "loanId",
          "type": "uint256"
        },
        {
          "indexed": true,
          "internalType": "address",
          "name": "lender",
          "type": "address"
        },
        {
          "indexed": false,
          "internalType": "uint256",
          "name": "amount",
          "type": "uint256"
        },
        {
          "indexed": false,
          "internalType": "uint256",
          "name": "currentTotal",
          "type": "uint256"
        }
      ],
      "name": "LoanFunded",
      "type": "event"
    },
    {
      "anonymous": false,
      "inputs": [
        {
          "indexed": true,
          "internalType": "uint256",
          "name": "loanId",
          "type": "uint256"
        },
        {
          "indexed": true,
          "internalType": "address",
          "name": "borrower",
          "type": "address"
        },
        {
          "indexed": false,
          "internalType": "uint256",
          "name": "totalAmount",
          "type": "uint256"
        },
        {
          "indexed": false,
          "internalType": "bool",
          "name": "late",
          "type": "bool"
        }
      ],
      "name": "LoanRepaid",
      "type": "event"
    },
    {
      "anonymous": false,
      "inputs": [
        {
          "indexed": true,
          "internalType": "uint256",
          "name": "loanId",
          "type": "uint256"
        },
        {
          "indexed": true,
          "internalType": "address",
          "name": "borrower",
          "type": "address"
        },
        {
          "indexed": false,
          "internalType": "uint256",
          "name": "amount",
          "type": "uint256"
        }
      ],
      "name": "LoanRequested",
      "type": "event"
    },
    {
      "anonymous": false,
      "inputs": [
        {
          "indexed": true,
          "internalType": "address",
          "name": "previousOwner",
          "type": "address"
        },
        {
          "indexed": true,
          "internalType": "address",
          "name": "newOwner",
          "type": "address"
        }
      ],
      "name": "OwnershipTransferred",
      "type": "event"
    },
    {
      "anonymous": false,
      "inputs": [
        {
          "indexed": true,
          "internalType": "uint256",
          "name": "loanId",
          "type": "uint256"
        },
        {
          "indexed": true,
          "internalType": "address",
          "name": "lender",
          "type": "address"
        },
        {
          "indexed": false,
          "internalType": "uint256",
          "name": "amount",
          "type": "uint256"
        }
      ],
      "name": "RefundClaimed",
      "type": "event"
    },
    {
      "anonymous": false,
      "inputs": [
        {
          "indexed": true,
          "internalType": "uint256",
          "name": "loanId",
          "type": "uint256"
        },
        {
          "indexed": true,
          "internalType": "address",
          "name": "lender",
          "type": "address"
        },
        {
          "indexed": false,
          "internalType": "uint256",
          "name": "amount",
          "type": "uint256"
        }
      ],
      "name": "RepaymentClaimed",
      "type": "event"
    },
    {
      "anonymous": false,
      "inputs": [
        {
          "indexed": true,
          "internalType": "uint256",
          "name": "loanId",
          "type": "uint256"
        },
        {
          "indexed": false,
          "internalType": "uint8",
          "name": "trancheNumber",
          "type": "uint8"
        }
      ],
      "name": "TrancheClaimed",
      "type": "event"
    },
    {
      "anonymous": false,
      "inputs": [
        {
          "indexed": true,
          "internalType": "address",
          "name": "user",
          "type": "address"
        },
        {
          "indexed": false,
          "internalType": "bool",
          "name": "isLocked",
          "type": "bool"
        }
      ],
      "name": "WalletLockToggled",
      "type": "event"
    },
    {
      "inputs": [
        {
          "internalType": "address",
          "name": "",
          "type": "address"
        }
      ],
      "name": "activeLoansCount",
      "outputs": [
        {
          "internalType": "uint256",
          "name": "",
          "type": "uint256"
        }
      ],
      "stateMutability": "view",
      "type": "function"
    },
    {
      "inputs": [
        {
          "internalType": "uint256",
          "name": "loanId",
          "type": "uint256"
        }
      ],
      "name": "approveByGuardian",
      "outputs": [],
      "stateMutability": "nonpayable",
      "type": "function"
    },
    {
      "inputs": [
        {
          "internalType": "address",
          "name": "oldWallet",
          "type": "address"
        },
        {
          "internalType": "address",
          "name": "newWallet",
          "type": "address"
        }
      ],
      "name": "approveRecovery",
      "outputs": [],
      "stateMutability": "nonpayable",
      "type": "function"
    },
    {
      "inputs": [
        {
          "internalType": "address",
          "name": "",
          "type": "address"
        },
        {
          "internalType": "uint256",
          "name": "",
          "type": "uint256"
        },
        {
          "internalType": "address",
          "name": "",
          "type": "address"
        }
      ],
      "name": "approvedRecovery",
      "outputs": [
        {
          "internalType": "bool",
          "name": "",
          "type": "bool"
        }
      ],
      "stateMutability": "view",
      "type": "function"
    },
    {
      "inputs": [],
      "name": "binrToken",
      "outputs": [
        {
          "internalType": "contract IERC20",
          "name": "",
          "type": "address"
        }
      ],
      "stateMutability": "view",
      "type": "function"
    },
    {
      "inputs": [
        {
          "internalType": "uint256",
          "name": "loanId",
          "type": "uint256"
        }
      ],
      "name": "checkFundingTimeout",
      "outputs": [],
      "stateMutability": "nonpayable",
      "type": "function"
    },
    {
      "inputs": [
        {
          "internalType": "uint256",
          "name": "loanId",
          "type": "uint256"
        }
      ],
      "name": "claimDisbursementTranche",
      "outputs": [],
      "stateMutability": "nonpayable",
      "type": "function"
    },
    {
      "inputs": [
        {
          "internalType": "uint256",
          "name": "loanId",
          "type": "uint256"
        }
      ],
      "name": "claimRefund",
      "outputs": [],
      "stateMutability": "nonpayable",
      "type": "function"
    },
    {
      "inputs": [
        {
          "internalType": "uint256",
          "name": "loanId",
          "type": "uint256"
        }
      ],
      "name": "claimRepayment",
      "outputs": [],
      "stateMutability": "nonpayable",
      "type": "function"
    },
    {
      "inputs": [
        {
          "internalType": "uint256",
          "name": "loanId",
          "type": "uint256"
        },
        {
          "internalType": "uint256",
          "name": "fundAmount",
          "type": "uint256"
        }
      ],
      "name": "fundLoan",
      "outputs": [],
      "stateMutability": "nonpayable",
      "type": "function"
    },
    {
      "inputs": [
        {
          "internalType": "uint256",
          "name": "",
          "type": "uint256"
        },
        {
          "internalType": "address",
          "name": "",
          "type": "address"
        }
      ],
      "name": "hasGuardianVoted",
      "outputs": [
        {
          "internalType": "bool",
          "name": "",
          "type": "bool"
        }
      ],
      "stateMutability": "view",
      "type": "function"
    },
    {
      "inputs": [
        {
          "internalType": "address",
          "name": "oldWallet",
          "type": "address"
        },
        {
          "internalType": "address",
          "name": "newWallet",
          "type": "address"
        }
      ],
      "name": "initiateRecovery",
      "outputs": [],
      "stateMutability": "nonpayable",
      "type": "function"
    },
    {
      "inputs": [
        {
          "internalType": "address",
          "name": "",
          "type": "address"
        }
      ],
      "name": "isLocked",
      "outputs": [
        {
          "internalType": "bool",
          "name": "",
          "type": "bool"
        }
      ],
      "stateMutability": "view",
      "type": "function"
    },
    {
      "inputs": [
        {
          "internalType": "address",
          "name": "",
          "type": "address"
        }
      ],
      "name": "isZkVerified",
      "outputs": [
        {
          "internalType": "bool",
          "name": "",
          "type": "bool"
        }
      ],
      "stateMutability": "view",
      "type": "function"
    },
    {
      "inputs": [
        {
          "internalType": "uint256",
          "name": "",
          "type": "uint256"
        },
        {
          "internalType": "uint256",
          "name": "",
          "type": "uint256"
        }
      ],
      "name": "loanContributions",
      "outputs": [
        {
          "internalType": "address",
          "name": "lender",
          "type": "address"
        },
        {
          "internalType": "uint256",
          "name": "amount",
          "type": "uint256"
        }
      ],
      "stateMutability": "view",
      "type": "function"
    },
    {
      "inputs": [
        {
          "internalType": "uint256",
          "name": "",
          "type": "uint256"
        }
      ],
      "name": "loans",
      "outputs": [
        {
          "internalType": "uint256",
          "name": "id",
          "type": "uint256"
        },
        {
          "internalType": "uint256",
          "name": "targetAmount",
          "type": "uint256"
        },
        {
          "internalType": "uint256",
          "name": "gatheredAmount",
          "type": "uint256"
        },
        {
          "internalType": "uint256",
          "name": "targetInterest",
          "type": "uint256"
        },
        {
          "internalType": "address",
          "name": "borrower",
          "type": "address"
        },
        {
          "internalType": "uint8",
          "name": "approvals",
          "type": "uint8"
        },
        {
          "internalType": "uint8",
          "name": "rejections",
          "type": "uint8"
        },
        {
          "internalType": "enum LoanPouchEscrow.LoanState",
          "name": "state",
          "type": "uint8"
        },
        {
          "internalType": "uint256",
          "name": "fundingDeadline",
          "type": "uint256"
        },
        {
          "internalType": "uint256",
          "name": "guardianDeadline",
          "type": "uint256"
        },
        {
          "internalType": "uint256",
          "name": "repaymentDeadline",
          "type": "uint256"
        },
        {
          "internalType": "uint256",
          "name": "totalRepaidAmount",
          "type": "uint256"
        },
        {
          "internalType": "bool",
          "name": "isMilestone",
          "type": "bool"
        },
        {
          "internalType": "uint8",
          "name": "claimedTranches",
          "type": "uint8"
        },
        {
          "internalType": "uint8",
          "name": "repaidTranches",
          "type": "uint8"
        }
      ],
      "stateMutability": "view",
      "type": "function"
    },
    {
      "inputs": [
        {
          "internalType": "uint256",
          "name": "loanId",
          "type": "uint256"
        }
      ],
      "name": "markDefault",
      "outputs": [],
      "stateMutability": "nonpayable",
      "type": "function"
    },
    {
      "inputs": [],
      "name": "nextLoanId",
      "outputs": [
        {
          "internalType": "uint256",
          "name": "",
          "type": "uint256"
        }
      ],
      "stateMutability": "view",
      "type": "function"
    },
    {
      "inputs": [],
      "name": "owner",
      "outputs": [
        {
          "internalType": "address",
          "name": "",
          "type": "address"
        }
      ],
      "stateMutability": "view",
      "type": "function"
    },
    {
      "inputs": [
        {
          "internalType": "uint256",
          "name": "amount",
          "type": "uint256"
        },
        {
          "internalType": "address",
          "name": "decoyVault",
          "type": "address"
        }
      ],
      "name": "panicTransfer",
      "outputs": [],
      "stateMutability": "nonpayable",
      "type": "function"
    },
    {
      "inputs": [
        {
          "internalType": "address",
          "name": "",
          "type": "address"
        }
      ],
      "name": "recoveryApprovals",
      "outputs": [
        {
          "internalType": "uint8",
          "name": "",
          "type": "uint8"
        }
      ],
      "stateMutability": "view",
      "type": "function"
    },
    {
      "inputs": [
        {
          "internalType": "address",
          "name": "",
          "type": "address"
        }
      ],
      "name": "recoveryNonce",
      "outputs": [
        {
          "internalType": "uint256",
          "name": "",
          "type": "uint256"
        }
      ],
      "stateMutability": "view",
      "type": "function"
    },
    {
      "inputs": [
        {
          "internalType": "address",
          "name": "",
          "type": "address"
        }
      ],
      "name": "recoveryTarget",
      "outputs": [
        {
          "internalType": "address",
          "name": "",
          "type": "address"
        }
      ],
      "stateMutability": "view",
      "type": "function"
    },
    {
      "inputs": [
        {
          "internalType": "uint256",
          "name": "loanId",
          "type": "uint256"
        }
      ],
      "name": "rejectByGuardian",
      "outputs": [],
      "stateMutability": "nonpayable",
      "type": "function"
    },
    {
      "inputs": [],
      "name": "renounceOwnership",
      "outputs": [],
      "stateMutability": "nonpayable",
      "type": "function"
    },
    {
      "inputs": [
        {
          "internalType": "uint256",
          "name": "loanId",
          "type": "uint256"
        }
      ],
      "name": "repayLoan",
      "outputs": [],
      "stateMutability": "nonpayable",
      "type": "function"
    },
    {
      "inputs": [
        {
          "internalType": "uint256",
          "name": "_targetAmount",
          "type": "uint256"
        },
        {
          "internalType": "uint256",
          "name": "_targetInterest",
          "type": "uint256"
        },
        {
          "internalType": "address[3]",
          "name": "_guardians",
          "type": "address[3]"
        },
        {
          "internalType": "uint256",
          "name": "_fundingDurationSecs",
          "type": "uint256"
        },
        {
          "internalType": "uint256",
          "name": "_repaymentDurationSecs",
          "type": "uint256"
        }
      ],
      "name": "requestLoan",
      "outputs": [],
      "stateMutability": "nonpayable",
      "type": "function"
    },
    {
      "inputs": [
        {
          "internalType": "address[3]",
          "name": "_guardians",
          "type": "address[3]"
        }
      ],
      "name": "setRecoveryGuardians",
      "outputs": [],
      "stateMutability": "nonpayable",
      "type": "function"
    },
    {
      "inputs": [
        {
          "internalType": "address",
          "name": "user",
          "type": "address"
        },
        {
          "internalType": "bool",
          "name": "status",
          "type": "bool"
        }
      ],
      "name": "setWalletLock",
      "outputs": [],
      "stateMutability": "nonpayable",
      "type": "function"
    },
    {
      "inputs": [
        {
          "internalType": "address",
          "name": "newOwner",
          "type": "address"
        }
      ],
      "name": "transferOwnership",
      "outputs": [],
      "stateMutability": "nonpayable",
      "type": "function"
    },
    {
      "inputs": [
        {
          "internalType": "address",
          "name": "",
          "type": "address"
        }
      ],
      "name": "trustScores",
      "outputs": [
        {
          "internalType": "int256",
          "name": "",
          "type": "int256"
        }
      ],
      "stateMutability": "view",
      "type": "function"
    },
    {
      "inputs": [
        {
          "internalType": "address",
          "name": "",
          "type": "address"
        },
        {
          "internalType": "uint256",
          "name": "",
          "type": "uint256"
        }
      ],
      "name": "userRecoveryGuardians",
      "outputs": [
        {
          "internalType": "address",
          "name": "",
          "type": "address"
        }
      ],
      "stateMutability": "view",
      "type": "function"
    },
    {
      "inputs": [
        {
          "internalType": "address",
          "name": "user",
          "type": "address"
        },
        {
          "internalType": "bytes",
          "name": "",
          "type": "bytes"
        }
      ],
      "name": "verifyIdentityProof",
      "outputs": [],
      "stateMutability": "nonpayable",
      "type": "function"
    }
  ],
  "bytecode": "0x6080346100ec57601f62002ab238819003918201601f19168301916001600160401b038311848410176100f1578084926020946040528339810103126100ec57516001600160a01b0390818116908190036100ec5733156100d35760005460018060a01b0319903382821617600055604051933391167f8be0079c531659141344cd1fd0a4f28419497f9722a3daafe3b4186f6b6457e0600080a360017f9b779b17422d0df92223018b32b4d1fa46e071723d6817e2486d003becc55f005560015416176001556129aa9081620001088239f35b604051631e4fbdf760e01b815260006004820152602490fd5b600080fd5b634e487b7160e01b600052604160045260246000fdfe60406080815260048036101561001457600080fd5b600091823560e01c8062d878e8146122e657806306fe20311461200e5780630734a35114611fc757806312df0fc414611f8f5780631c98a2b614611da1578063349d66cf14611d4957806336630cd614611cf7578063482351d514611a6057806349bcad0a14611a285780634a4fbeec146119ea57806353ed9394146118dd5780635b7baf64146116d557806360aae920146116365780636b3ce74f146115fa578063715018a6146115a0578063771723341461156257806387c51459146115435780638da5cb5b1461151b5780639445ae04146114e35780639614ddd814611287578063a52d92cf1461118e578063a8a007e414611153578063ab777a45146110df578063ab7b1c8914610d6e578063ac9c68d414610d45578063d1a2870614610cdd578063d9f12fdf14610be1578063db2eb83714610b15578063e1d927c8146109e4578063e1ec3c68146108e1578063ed0ffc8914610520578063f2fde38b146104995763f4512bb61461018a57600080fd5b346104955761019836612553565b91338552602090600982526101b360ff8288205416156125bd565b6101bb612758565b8286526003825280862093600885019360ff855460101c1660068110156104825761044657600986015442116104115760028601928354936101fd8486612624565b9460018901958654106103dd578461021491612624565b8155828a52888652818a2082519083820182811067ffffffffffffffff8211176103ca57845233825287820190868252805490680100000000000000008210156103b7579061026891600182018155612569565b9190916103a557915181546001600160a01b0319166001600160a01b0391821617825591516001918201555483516323b872dd60e01b815233818d019081523060208201526040810188905290928992849291169082908f90829060600103925af190811561039b577f567027d9aa89256c975e4bcd5e02580005533592e2fa5ed2dab60de95722ded8939291610306918d9161036e575b506126bc565b54809682519586528501523393a35414610331575b8360016000805160206129558339815191525580f35b6201000062ff0000198254161790556203f48042019182421161035b5750600a015538808061031b565b634e487b7160e01b845260119052602483fd5b61038e9150893d8b11610394575b6103868183612585565b81019061267e565b38610300565b503d61037c565b83513d8d823e3d90fd5b634e487b7160e01b8d528c8c5260248dfd5b634e487b7160e01b8e5260418d5260248efd5b634e487b7160e01b8d5260418c5260248dfd5b825162461bcd60e51b8152808b01889052600e60248201526d115e18d959591cc81d185c99d95d60921b6044820152606490fd5b825162461bcd60e51b8152808801859052600f60248201526e119d5b991a5b99c8195e1c1a5c9959608a1b6044820152606490fd5b825162461bcd60e51b815280880185905260166024820152754e6f7420696e20676174686572696e6720706861736560501b6044820152606490fd5b634e487b7160e01b895260218852602489fd5b8280fd5b509034610495576020366003190112610495576104b4612517565b906104bd6127e0565b6001600160a01b0391821692831561050a57505082546001600160a01b0319811683178455167f8be0079c531659141344cd1fd0a4f28419497f9722a3daafe3b4186f6b6457e08380a380f35b51631e4fbdf760e01b8152908101849052602490fd5b503461049557602090816003193601126108dd5782359161053f612758565b3385526009815260ff93610558858488205416156125bd565b83865260038252828620908082019260018060a01b03948585541689526009825287818a2054166108a3576008840188815460101c169860068a1015610890576001809a0361085557600a860154421161082157888b5260058452828b20338c52845280838c2054166107ee576105cf338a612788565b156107ab57918a9593918a95938a8852600584528288203389528452603283808a209960ff199a8a8c82541617905560088752205412156000146107a4576002905b82549181610621828286166126a8565b1691828b85161785558551911681528c7f18e70e28c5841bdcdd53d1ca354744e1669c8586d8f8b72b7f3b158cdcd8185f873393a36002811015610675575b8d886000805160206129558339815191525580f35b620200009162ff00ff191617179055600b8401610693815442612624565b90558385015469d3c21bcecceda100000081106106f15750505050600d01918254161790555b5416907f9e003ed43b1d48ee01bd3dab23f09cfefaa5155ccae549cf83967adf17e849268480a3388080808481808080808080610660565b9093506107339295508782955416888854168c865180968195829463a9059cbb60e01b84528c840160209093929193604081019460018060a01b031681520152565b03925af190811561079a57899161077d575b5015610753575050506106b9565b5162461bcd60e51b815291820152600660248201526511985a5b195960d21b604482015260649150fd5b6107949150833d8511610394576103868183612585565b38610745565b82513d8b823e3d90fd5b8690610611565b50505162461bcd60e51b815291820152601960248201527f4e6f7420612064657369676e6174656420677561726469616e00000000000000604482015260649150fd5b50505162461bcd60e51b815291820152600d60248201526c105b1c9958591e481d9bdd1959609a1b604482015260649150fd5b50505162461bcd60e51b815291820152600e60248201526d159bdd1a5b99c8195e1c1a5c995960921b604482015260649150fd5b50505162461bcd60e51b81529182015260156024820152744e6f742070656e64696e6720677561726469616e7360581b604482015260649150fd5b634e487b7160e01b8b526021855260248bfd5b5162461bcd60e51b8152918201526016602482015275109bdc9c9bddd95c881dd85b1b195d081b1bd8dad95960521b604482015260649150fd5b8380fd5b5082346109e15760203660031901126109e157823581526003602052818120805492600182015492600283015490600384015490600160a01b6001900388860154169060088601548060101c60ff1692600988015494600a89015496600b8a015498600c8b01549a600d01549b8151809e8152602001528c015260608b015260808a015260ff811660a08a015260081c60ff1660c089015260068210156109ce576101e08860ff89898989898960e08801526101008701526101208601526101408501526101608401528181161515610180840152818160081c166101a084015260101c166101c0820152f35b634e487b7160e01b815260218952602490fd5b80fd5b5090346104955760209160206003193601126108dd57813591828552600360205281852093600885019384549560ff8760101c166006811015610b0257600203610afe57600b810154421115610afe578754336001600160a01b039182161497909690895b891580610aec575b15610a8a57848b52868652610a6881898d20612569565b505489163314610a81575b610a7c906126fa565b610a49565b60019950610a73565b5090929762050000929450610a9e90612709565b62ff00001916179055019082825416855260086020528420610ac08154612746565b90555416907f13b88e6866f0156d706fecfa22b678de5fc2b749c1d2307f6f47eb541385f1ec8380a380f35b50848b52868652878b20548110610a51565b8780fd5b634e487b7160e01b895260218552602489fd5b509034610495578160031936011261049557610b2f612517565b60243567ffffffffffffffff808211610bdd5736602383011215610bdd5781840135908111610bdd57369101602401116108dd5783546001600160a01b03929083163303610b90575016825260076020528120805460ff1916600117905580f35b608490602085519162461bcd60e51b8352820152602160248201527f4f6e6c792074727573746564204f7261636c6520666f72204861636b6174686f6044820152603760f91b6064820152fd5b8580fd5b5034610495578060031936011261049557826020610c4b610c006124fc565b610c08612758565b60015485516323b872dd60e01b8152338882019081526001600160a01b039384166020820152883560408201529095869493909216928492918391606090910190565b03925af1908115610cd3578491610cb4575b5015610c79578260016000805160206129558339815191525580f35b906020606492519162461bcd60e51b8352820152601560248201527414185b9a58c81d1c985b9cd9995c8819985a5b1959605a1b6044820152fd5b610ccd915060203d602011610394576103868183612585565b38610c5d565b82513d86823e3d90fd5b838234610d41576060366003190112610d4157610cf8612517565b6001600160a01b036044358181169290839003610d3d579360ff928492602096168252600d865282822060243583528652828220908252855220541690519015158152f35b8480fd5b5080fd5b838234610d415781600319360112610d415760015490516001600160a01b039091168152602090f35b503461049557602091826003193601126108dd578035913385526009845260ff92610d9e848388205416156125bd565b610da6612758565b808652600385528186209484600887015460101c1660068110156110cc5760020361109a57600b8601544211948560038801549061105c575b600d88019082825416600014610fa6578154838160101c1688811015610f6c57848260081c16811015610f2957610e8f92869262ff0000610e22610e3a94612696565b60101b169062ff0000191617855560018c0154612624565b60021c600c8b01610e4c828254612624565b905560015488516323b872dd60e01b8152338b820190815230602082015260408101939093529384926001600160a01b039092169183918f918391606090910190565b03925af1908115610f1f577fa9966d244b9c730e0af825c1a7a0ddae6976a17aad6765d9732d3d5db93f019b94939291610ecf918c91610f0857506126bc565b5460101c169351848152a214610ef8575b50505b60016000805160206129558339815191525580f35b610f0191612852565b3880610ee0565b61038e9150853d8711610394576103868183612585565b86513d8c823e3d90fd5b875162461bcd60e51b8152808a01879052601860248201527f436c61696d206e657874207472616e63686520666972737400000000000000006044820152606490fd5b875162461bcd60e51b8152808a01879052601460248201527346756c6c792072657061696420616c726561647960601b6044820152606490fd5b83945088969250610fc09150600161100996990154612624565b600c860181905560015488516323b872dd60e01b8152339381019384523060208501526040840192909252909485926001600160a01b039092169183918b918391606090910190565b03925af194851561105357509361102c91611031958792611036575b50506126bc565b612852565b610ee3565b61104c9250803d10610394576103868183612585565b3880611025565b513d87823e3d90fd5b60018801548060011b908082046002149015171561108757906064611082920490612624565b610ddf565b634e487b7160e01b8a526011875260248afd5b8360649184519162461bcd60e51b8352820152600d60248201526c4e6f7420726570617961626c6560981b6044820152fd5b634e487b7160e01b885260218552602488fd5b5034610495576060366003190112610495573660641161049557338352602090600960205261111460ff8286205416156125bd565b338452600a6020528320919083915b6003831061112f578480f35b8035926001600160a01b0384168403610bdd57826001920193818601550191611123565b838234610d41576020366003190112610d41576020916001600160a01b039082908261117d612517565b168152600b85522054169051908152f35b50346104955780600319360112610495576111a7612517565b916111b06124fc565b906111bb338561280c565b15611244575090600191828060a01b0380941693848652602094600c86528387206111e681546126fa565b90558652600b855282862091166bffffffffffffffffffffffff60a01b825416179055600e83528084209260ff19938385825416179055600d8152818520600c82528286205486528152818520903386525283209182541617905580f35b606490602084519162461bcd60e51b8352820152601760248201527f4e6f742061207265636f7665727920677561726469616e0000000000000000006044820152fd5b5090346104955781600319360112610495576112a1612517565b6112a96124fc565b6112b3338361280c565b156114af5760018060a01b0380921693848652602092600b8452808288205416921680920361147b57848652600d8352808620600c84528187205487528352808620338752835260ff9384828820541661144757858752600d8452818720600c8552828820548852845281872033885284528187209060ff1991600183825416179055868852600e8552828820918254918783169088821461143457506001889101169116179055848652600e835260028482882054161015611374578580f35b6114107fa21ddbc03abf84198e4d9ac1758f66585d389637848501302cebbcbe38bf8471946008855282882054848952838920558688528783812055600985526113d481848a205416858a52848a209060ff801983541691151516179055565b8688526006855282882054848952838920558688526103e7838920556007855282882054168388528288209060ff801983541691151516179055565b848652600c835280862061142481546126fa565b905551908152a238808080808580f35b634e487b7160e01b8b526011905260248afd5b83606492519162461bcd60e51b8352820152601060248201526f105b1c9958591e48185c1c1c9bdd995960821b6044820152fd5b5162461bcd60e51b8152808401839052600f60248201526e0a8c2e4cecae840dad2e6dac2e8c6d608b1b6044820152606490fd5b835162461bcd60e51b8152602081850152600e60248201526d2737ba10309033bab0b93234b0b760911b6044820152606490fd5b838234610d41576020366003190112610d415760209181906001600160a01b0361150b612517565b1681526006845220549051908152f35b838234610d415781600319360112610d4157905490516001600160a01b039091168152602090f35b838234610d415781600319360112610d41576020906002549051908152f35b838234610d41576020366003190112610d415760209160ff9082906001600160a01b0361158d612517565b1681526007855220541690519015158152f35b83346109e157806003193601126109e1576115b96127e0565b80546001600160a01b03198116825581906001600160a01b03167f8be0079c531659141344cd1fd0a4f28419497f9722a3daafe3b4186f6b6457e08280a380f35b838234610d41576020366003190112610d415760209160ff9082906001600160a01b03611625612517565b168152600e85522054169051908152f35b838234610d415780600319360112610d4157611650612517565b90602435801515808203610d3d577f28d3d7f2bd6ab428a99355b8c20ffc826f9061be615da2f44341df2df113aeb6926116c06020936116a560018060a01b03809816978833149081156116c8575b50612709565b868852600985528288209060ff801983541691151516179055565b51908152a280f35b905089541633148a61169f565b5091346109e15760209182600319360112610d415780356116f4612758565b3383526009845261170b60ff8685205416156125bd565b8083526003845260ff6008868520015460101c1660068110156118ca578203611897578291835b82855281865286852080548210156117cb579061175181600193612569565b503390838060a01b0390541614806117ad575b61176f575b01611732565b83865282875285611792611785838b8420612569565b5096848098015490612624565b958582528489526117a5838b8420612569565b500155611769565b50838652828752816117c1828a8920612569565b5001541515611764565b50508461181a818589946117e0821515612647565b600154865163a9059cbb60e01b8152339281019283526020830193909352919384926001600160a01b03169183918b918391604090910190565b03925af190811561188d578691611870575b5015610d3d577ff3f402280ef0a7905e124aa621b65eaeb2725c343e8b36d398ed78c29daf285c91519384523393a360016000805160206129558339815191525580f35b6118879150823d8411610394576103868183612585565b8661182c565b83513d88823e3d90fd5b845162461bcd60e51b8152808301859052600d60248201526c139bdd0818d85b98d95b1b1959609a1b6044820152606490fd5b634e487b7160e01b845260218352602484fd5b503461049557602036600319011261049557813591828452600360205281842060088101805460ff8160101c1660068110156110cc576119e65760098301544211156119e65762ff00001916620400001790558101546001600160a01b0316845260066020528184208054918261199c575b5050506060816c15185c99d95d081b5a5cdcd959609a1b7f83e3b895aa4a4ef6e066aa875cce363daec37aca73344a2035a9ddcda9fc1fe393519160208352600d6020840152820152a280f35b60001983019283116119d357505560607f83e3b895aa4a4ef6e066aa875cce363daec37aca73344a2035a9ddcda9fc1fe33861194f565b634e487b7160e01b865260119052602485fd5b8680fd5b838234610d41576020366003190112610d415760209160ff9082906001600160a01b03611a15612517565b1681526009855220541690519015158152f35b838234610d41576020366003190112610d415760209181906001600160a01b03611a50612517565b168152600c845220549051908152f35b50346104955760e0366003190112610495578135916024913660631215610d3d578051926060840184811067ffffffffffffffff821117611ce55782528360a43660a411610afe576044915b818310611cc15750505033865260209260098452611ad060ff8489205416156125bd565b8515611c8c57338752600684526002838820541015611c4c5769d3c21bcecceda1000000861015611be7575b3387526006845282872090815460019260018201809211611bd5575560025495611b25876126fa565b6002558689526003808752858a20888155600181018a905594358582015591840180546001600160a01b03191633179055885b828110611bb85750505060088201805462ff000019169055507f97e04be2fd6414727fe9d0400464568f4384aa8b06264119565ca8f6cc2a4b7a929190611ba160a43542612624565b6009820155600b60c435910155519384523393a380f35b81516001600160a01b031685820160050155908601908301611b58565b634e487b7160e01b8a5260118352848afd5b3387526007845260ff8388205416611afc57602a6084928585519362461bcd60e51b85528401528201527f5a4b204964656e746974792050726f6f6620726571756972656420666f72206c6044820152696f616e73203e3d20314d60b01b6064820152fd5b60186064928585519362461bcd60e51b85528401528201527f4d617820616374697665206c6f616e73207265616368656400000000000000006044820152fd5b60126064928585519362461bcd60e51b8552840152820152710416d6f756e74206d757374206265203e20360741b6044820152fd5b82356001600160a01b0381168103611ce157815260209283019201611aac565b8980fd5b50634e487b7160e01b86526041835285fd5b50903461049557611d0736612553565b9190845260205281832080548210156108dd5790611d2491612569565b50805460019091015491516001600160a01b0390911681526020810191909152604090f35b838234610d415780600319360112610d4157611d63612517565b6001600160a01b039081168352600a6020528183206024359360038510156109e15750602093611d929161252d565b90549060031b1c169051908152f35b503461049557602090816003193601126108dd57823592611dc0612758565b33855260098352611dd760ff8387205416156125bd565b838552600383528185206008810160ff815460101c166006811015611f7c576001036119e65785875260058552838720338852855260ff84882054166119e657611e213387612788565b156119e657858752600585528387203388528552838720805460ff191660011790556008855283872054603213611f6f57611e7e611e6860025b60ff845460081c166126a8565b825461ff00191660089190911b61ff0016178255565b8054600260ff8260081c161015611ea6575b8760016000805160206129558339815191525580f35b62ff00001916620400001790558101546001600160a01b031685526006835281852080549182611f2d575b5050507f83e3b895aa4a4ef6e066aa875cce363daec37aca73344a2035a9ddcda9fc1fe3917452656a656374656420627920677561726469616e7360581b8260156060945193808552840152820152a238808080808080611e90565b6000198301928311611f5c575055817452656a656374656420627920677561726469616e7360581b6060611ed1565b634e487b7160e01b875260119052602486fd5b611e7e611e686001611e5b565b634e487b7160e01b885260218452602488fd5b838234610d41576020366003190112610d415760209181906001600160a01b03611fb7612517565b1681526008845220549051908152f35b5090346104955781600319360112610495578160209360ff92611fe86124fc565b90358252600586528282206001600160a01b039091168252855220549151911615158152f35b50829034610d41576020806003193601126104955783359161202e612758565b3384526009825260ff612046818387205416156125bd565b8385526003835281852081600882015460101c1660068110156122d3576002036122995780870180546001600160a01b03989033908a160361226757600d83019283548581161561222d57858160081c1690838210156121f35760101c8616811161219c57918960018995936120d96120c36121179e9f97612696565b895461ff00191660089190911b61ff0016178955565b015460021c9380600154169354169188519b8c958694859363a9059cbb60e01b8552840160209093929193604081019460018060a01b031681520152565b03925af1958615612192577f7295bd8752b481dc6869531ac9c8f450952e61be3c8166e644edfd6c4cd94152959661215591899161217557506126bc565b5460081c169051908152a260016000805160206129558339815191525580f35b61218c9150863d8811610394576103868183612585565b89610300565b83513d89823e3d90fd5b865162461bcd60e51b8152808401899052602b60248201527f52657061792070726576696f7573207472616e63686520666972737420746f2060448201526a1d5b9b1bd8dac81b995e1d60aa1b6064820152608490fd5b875162461bcd60e51b81528085018a90526014602482015273105b1b081d1c985b98da195cc818db185a5b595960621b6044820152606490fd5b865162461bcd60e51b815280840189905260146024820152732737ba10309036b4b632b9ba37b732903637b0b760611b6044820152606490fd5b845162461bcd60e51b8152908101869052600c60248201526b2737ba103137b93937bbb2b960a11b6044820152606490fd5b825162461bcd60e51b81528088018590526014602482015273139bdd081858dd1a5d994bd91a5cd89d5c9cd95960621b6044820152606490fd5b634e487b7160e01b875260218852602487fd5b5082346109e157602080600319360112610d4157833592612305612758565b3383526009825261231c60ff8285205416156125bd565b838352600382528083209160ff600884015460101c1660068110156124e9576003036124ba578394845b8186528783528386208054821015612430578161236291612569565b50546001600160a01b0316331480612411575b612382575b600101612346565b81865287835261239481858820612569565b5096600180980154600c870154908181029181830414901517156123fe57888701549081156123eb576001939289926123ce920490612624565b988482528a86526123e183888420612569565b500155905061237a565b634e487b7160e01b895260128b52602489fd5b634e487b7160e01b885260118a52602488fd5b50818652878352600161242682868920612569565b5001541515612375565b50508492826124478894858b6117e0821515612647565b03925af190811561188d57869161249d575b5015610d3d577fce6a22bbf33075e9460462739ab01c9d01afbe41eb32f517824218012b2e656e91519384523393a360016000805160206129558339815191525580f35b6124b49150823d8411610394576103868183612585565b86612459565b8590606492519162461bcd60e51b8352820152600a602482015269139bdd081c995c185a5960b21b6044820152fd5b634e487b7160e01b855260218752602485fd5b602435906001600160a01b038216820361251257565b600080fd5b600435906001600160a01b038216820361251257565b600382101561253d570190600090565b634e487b7160e01b600052603260045260246000fd5b6040906003190112612512576004359060243590565b805482101561253d5760005260206000209060011b0190600090565b90601f8019910116810190811067ffffffffffffffff8211176125a757604052565b634e487b7160e01b600052604160045260246000fd5b156125c457565b60405162461bcd60e51b815260206004820152603260248201527f4c6f616e506f7563683a2057616c6c6574206973206c6f636b65642076696120604482015271534d5320656d657267656e6379206d6f646560701b6064820152608490fd5b9190820180921161263157565b634e487b7160e01b600052601160045260246000fd5b1561264e57565b60405162461bcd60e51b81526020600482015260086024820152674e6f2066756e647360c01b6044820152606490fd5b90816020910312612512575180151581036125125790565b60ff60019116019060ff821161263157565b9060ff8091169116019060ff821161263157565b156126c357565b60405162461bcd60e51b815260206004820152600f60248201526e151c985b9cd9995c8819985a5b1959608a1b6044820152606490fd5b60001981146126315760010190565b1561271057565b60405162461bcd60e51b815260206004820152600e60248201526d139bdd08185d5d1a1bdc9a5e995960921b6044820152606490fd5b90600019820191821360011661263157565b60008051602061295583398151915260028154146127765760029055565b604051633ee5aeb560e01b8152600490fd5b9060005b6003808210156127d75783600052806020526127af82600560406000200161252d565b9054911b1c6001600160a01b03908116908316146127cf5760010161278c565b505050600190565b50505050600090565b6000546001600160a01b031633036127f457565b60405163118cdaa760e01b8152336004820152602490fd5b9060005b6003808210156127d75760018060a01b038091818616600052600a60205261283c84604060002061252d565b9054911b1c16908316146127cf57600101612810565b60088101805462ff0000191662030000179055901580156129265760048201546001600160a01b03166000908152600860205260408120805460018181019390911280159184129182169115161761263157555b600482019060018060a01b039081835416600052600660205260406000208054908161290d575b5050604090600c7f2010de6ec11f83338b76cf98d4924c7ea74a036c590a8180872a82d2871c47ca938654955416950154908251918252156020820152a3565b600019820192918311612631579190915580600c6128cd565b60048201546001600160a01b03166000908152600860205260409020805461294d90612746565b90556128a656fe9b779b17422d0df92223018b32b4d1fa46e071723d6817e2486d003becc55f00a2646970667358221220f3c5641ef21a41fd60298f635c23e03e232e846456eda9c1873d53ac8501823964736f6c63430008180033",
  "linkReferences": {},
  "deployedLinkReferences": {}
}