{
  "_format": "hh-sol-artifact-1",
  "contractName": "LoanPouchEscrow",
  "sourceName": "contracts/LoanPouchEscrow.sol",
  "abi": [
    {
      "inputs": [
        {
          "internalType": "address",
          "name": "_binrAddress",
          "type": "address"
        }
      ],
      "stateMutability": "nonpayable",
      "type": "constructor"
    },
    {
      "inputs": [
        {
          "internalType": "address",
          "name": "owner",
          "type": "address"
        }
      ],
      "name": "OwnableInvalidOwner",
      "type": "error"
    },
    {
      "inputs": [
        {
          "internalType": "address",
          "name": "account",
          "type": "address"
        }
      ],
      "name": "OwnableUnauthorizedAccount",
      "type": "error"
    },
    {
      "inputs": [],
      "name": "ReentrancyGuardReentrantCall",
      "type": "error"
    },
    {
      "anonymous": false,
      "inputs": [
        {
          "indexed": true,
          "internalType": "uint256",
          "name": "loanId",
          "type": "uint256"
        },
        {
          "indexed": true,
          "internalType": "address",
          "name": "guardian",
          "type": "address"
        }
      ],
      "name": "GuardianApprovedEscrow",
      "type": "event"
    },
    {
      "anonymous": false,
      "inputs": [
        {
          "indexed": true,
          "internalType": "address",
          "name": "oldWallet",
          "type": "address"
        },
        {
          "indexed": false,
          "internalType": "address",
          "name": "newWallet",
          "type": "address"
        }
      ],
      "name": "IdentityRecovered",
      "type": "event"
    },
    {
      "anonymous": false,
      "inputs": [
        {
          "indexed": true,
          "internalType": "uint256",
          "name": "loanId",
          "type": "uint256"
        },
        {
          "indexed": true,
          "internalType": "address",
          "name": "borrower",
          "type": "address"
        }
      ],
      "name": "LoanDefaulted",
      "type": "event"
    },
    {
      "anonymous": false,
      "inputs": [
        {
          "indexed": true,
          "internalType": "uint256",
          "name": "loanId",
          "type": "uint256"
        },
        {
          "indexed": true,
          "internalType": "address",
          "name": "borrower",
          "type": "address"
        }
      ],
      "name": "LoanDisbursed",
      "type": "event"
    },
    {
      "anonymous": false,
      "inputs": [
        {
          "indexed": true,
          "internalType": "uint256",
          "name": "loanId",
          "type": "uint256"
        },
        {
          "indexed": true,
          "internalType": "address",
          "name": "lender",
          "type": "address"
        },
        {
          "indexed": false,
          "internalType": "uint256",
          "name": "amount",
          "type": "uint256"
        }
      ],
      "name": "LoanFunded",
      "type": "event"
    },
    {
      "anonymous": false,
      "inputs": [
        {
          "indexed": true,
          "internalType": "uint256",
          "name": "loanId",
          "type": "uint256"
        },
        {
          "indexed": true,
          "internalType": "address",
          "name": "borrower",
          "type": "address"
        }
      ],
      "name": "LoanRepaid",
      "type": "event"
    },
    {
      "anonymous": false,
      "inputs": [
        {
          "indexed": true,
          "internalType": "uint256",
          "name": "loanId",
          "type": "uint256"
        },
        {
          "indexed": true,
          "internalType": "address",
          "name": "borrower",
          "type": "address"
        },
        {
          "indexed": false,
          "internalType": "uint256",
          "name": "amount",
          "type": "uint256"
        }
      ],
      "name": "LoanRequested",
      "type": "event"
    },
    {
      "anonymous": false,
      "inputs": [
        {
          "indexed": true,
          "internalType": "address",
          "name": "previousOwner",
          "type": "address"
        },
        {
          "indexed": true,
          "internalType": "address",
          "name": "newOwner",
          "type": "address"
        }
      ],
      "name": "OwnershipTransferred",
      "type": "event"
    },
    {
      "anonymous": false,
      "inputs": [
        {
          "indexed": true,
          "internalType": "address",
          "name": "user",
          "type": "address"
        }
      ],
      "name": "RecoveryGuardiansSet",
      "type": "event"
    },
    {
      "anonymous": false,
      "inputs": [
        {
          "indexed": true,
          "internalType": "address",
          "name": "oldWallet",
          "type": "address"
        },
        {
          "indexed": false,
          "internalType": "address",
          "name": "newWallet",
          "type": "address"
        }
      ],
      "name": "RecoveryInitiated",
      "type": "event"
    },
    {
      "anonymous": false,
      "inputs": [
        {
          "indexed": true,
          "internalType": "uint256",
          "name": "loanId",
          "type": "uint256"
        },
        {
          "indexed": false,
          "internalType": "uint256",
          "name": "newExpiry",
          "type": "uint256"
        }
      ],
      "name": "RequestRenewed",
      "type": "event"
    },
    {
      "anonymous": false,
      "inputs": [
        {
          "indexed": true,
          "internalType": "address",
          "name": "user",
          "type": "address"
        },
        {
          "indexed": false,
          "internalType": "bool",
          "name": "isLocked",
          "type": "bool"
        }
      ],
      "name": "WalletLockToggled",
      "type": "event"
    },
    {
      "inputs": [
        {
          "internalType": "address",
          "name": "",
          "type": "address"
        }
      ],
      "name": "activeLoansCount",
      "outputs": [
        {
          "internalType": "uint256",
          "name": "",
          "type": "uint256"
        }
      ],
      "stateMutability": "view",
      "type": "function"
    },
    {
      "inputs": [
        {
          "internalType": "uint256",
          "name": "loanId",
          "type": "uint256"
        }
      ],
      "name": "approveByGuardian",
      "outputs": [],
      "stateMutability": "nonpayable",
      "type": "function"
    },
    {
      "inputs": [
        {
          "internalType": "address",
          "name": "oldWallet",
          "type": "address"
        },
        {
          "internalType": "address",
          "name": "newWallet",
          "type": "address"
        }
      ],
      "name": "approveRecovery",
      "outputs": [],
      "stateMutability": "nonpayable",
      "type": "function"
    },
    {
      "inputs": [
        {
          "internalType": "address",
          "name": "",
          "type": "address"
        },
        {
          "internalType": "uint256",
          "name": "",
          "type": "uint256"
        },
        {
          "internalType": "address",
          "name": "",
          "type": "address"
        }
      ],
      "name": "approvedRecovery",
      "outputs": [
        {
          "internalType": "bool",
          "name": "",
          "type": "bool"
        }
      ],
      "stateMutability": "view",
      "type": "function"
    },
    {
      "inputs": [],
      "name": "binrToken",
      "outputs": [
        {
          "internalType": "contract IERC20",
          "name": "",
          "type": "address"
        }
      ],
      "stateMutability": "view",
      "type": "function"
    },
    {
      "inputs": [
        {
          "internalType": "uint256",
          "name": "loanId",
          "type": "uint256"
        },
        {
          "internalType": "uint256",
          "name": "amount",
          "type": "uint256"
        }
      ],
      "name": "fundLoan",
      "outputs": [],
      "stateMutability": "nonpayable",
      "type": "function"
    },
    {
      "inputs": [
        {
          "internalType": "uint256",
          "name": "",
          "type": "uint256"
        },
        {
          "internalType": "address",
          "name": "",
          "type": "address"
        }
      ],
      "name": "hasGuardianApprovedEscrow",
      "outputs": [
        {
          "internalType": "bool",
          "name": "",
          "type": "bool"
        }
      ],
      "stateMutability": "view",
      "type": "function"
    },
    {
      "inputs": [
        {
          "internalType": "address",
          "name": "oldWallet",
          "type": "address"
        },
        {
          "internalType": "address",
          "name": "newWallet",
          "type": "address"
        }
      ],
      "name": "initiateRecovery",
      "outputs": [],
      "stateMutability": "nonpayable",
      "type": "function"
    },
    {
      "inputs": [
        {
          "internalType": "address",
          "name": "",
          "type": "address"
        }
      ],
      "name": "isLocked",
      "outputs": [
        {
          "internalType": "bool",
          "name": "",
          "type": "bool"
        }
      ],
      "stateMutability": "view",
      "type": "function"
    },
    {
      "inputs": [
        {
          "internalType": "uint256",
          "name": "",
          "type": "uint256"
        },
        {
          "internalType": "uint256",
          "name": "",
          "type": "uint256"
        }
      ],
      "name": "loanContributions",
      "outputs": [
        {
          "internalType": "address",
          "name": "lender",
          "type": "address"
        },
        {
          "internalType": "uint256",
          "name": "amount",
          "type": "uint256"
        }
      ],
      "stateMutability": "view",
      "type": "function"
    },
    {
      "inputs": [
        {
          "internalType": "uint256",
          "name": "",
          "type": "uint256"
        }
      ],
      "name": "loans",
      "outputs": [
        {
          "internalType": "uint256",
          "name": "id",
          "type": "uint256"
        },
        {
          "internalType": "uint256",
          "name": "amount",
          "type": "uint256"
        },
        {
          "internalType": "uint256",
          "name": "fundedAmount",
          "type": "uint256"
        },
        {
          "internalType": "uint256",
          "name": "interestAmount",
          "type": "uint256"
        },
        {
          "internalType": "address",
          "name": "borrower",
          "type": "address"
        },
        {
          "internalType": "uint8",
          "name": "guardianApprovals",
          "type": "uint8"
        },
        {
          "internalType": "bool",
          "name": "isFunded",
          "type": "bool"
        },
        {
          "internalType": "bool",
          "name": "isDisbursed",
          "type": "bool"
        },
        {
          "internalType": "bool",
          "name": "isRepaid",
          "type": "bool"
        },
        {
          "internalType": "bool",
          "name": "isDefaulted",
          "type": "bool"
        },
        {
          "internalType": "uint256",
          "name": "expiresAt",
          "type": "uint256"
        },
        {
          "internalType": "uint256",
          "name": "deadline",
          "type": "uint256"
        }
      ],
      "stateMutability": "view",
      "type": "function"
    },
    {
      "inputs": [
        {
          "internalType": "uint256",
          "name": "loanId",
          "type": "uint256"
        }
      ],
      "name": "markDefault",
      "outputs": [],
      "stateMutability": "nonpayable",
      "type": "function"
    },
    {
      "inputs": [],
      "name": "nextLoanId",
      "outputs": [
        {
          "internalType": "uint256",
          "name": "",
          "type": "uint256"
        }
      ],
      "stateMutability": "view",
      "type": "function"
    },
    {
      "inputs": [],
      "name": "owner",
      "outputs": [
        {
          "internalType": "address",
          "name": "",
          "type": "address"
        }
      ],
      "stateMutability": "view",
      "type": "function"
    },
    {
      "inputs": [
        {
          "internalType": "uint256",
          "name": "amount",
          "type": "uint256"
        },
        {
          "internalType": "address",
          "name": "decoyVault",
          "type": "address"
        }
      ],
      "name": "panicTransfer",
      "outputs": [],
      "stateMutability": "nonpayable",
      "type": "function"
    },
    {
      "inputs": [
        {
          "internalType": "address",
          "name": "",
          "type": "address"
        }
      ],
      "name": "recoveryApprovals",
      "outputs": [
        {
          "internalType": "uint8",
          "name": "",
          "type": "uint8"
        }
      ],
      "stateMutability": "view",
      "type": "function"
    },
    {
      "inputs": [
        {
          "internalType": "address",
          "name": "",
          "type": "address"
        }
      ],
      "name": "recoveryNonce",
      "outputs": [
        {
          "internalType": "uint256",
          "name": "",
          "type": "uint256"
        }
      ],
      "stateMutability": "view",
      "type": "function"
    },
    {
      "inputs": [
        {
          "internalType": "address",
          "name": "",
          "type": "address"
        }
      ],
      "name": "recoveryTarget",
      "outputs": [
        {
          "internalType": "address",
          "name": "",
          "type": "address"
        }
      ],
      "stateMutability": "view",
      "type": "function"
    },
    {
      "inputs": [
        {
          "internalType": "uint256",
          "name": "loanId",
          "type": "uint256"
        }
      ],
      "name": "renewRequest",
      "outputs": [],
      "stateMutability": "nonpayable",
      "type": "function"
    },
    {
      "inputs": [],
      "name": "renounceOwnership",
      "outputs": [],
      "stateMutability": "nonpayable",
      "type": "function"
    },
    {
      "inputs": [
        {
          "internalType": "uint256",
          "name": "loanId",
          "type": "uint256"
        }
      ],
      "name": "repayLoan",
      "outputs": [],
      "stateMutability": "nonpayable",
      "type": "function"
    },
    {
      "inputs": [
        {
          "internalType": "uint256",
          "name": "_amount",
          "type": "uint256"
        },
        {
          "internalType": "uint256",
          "name": "_interestAmount",
          "type": "uint256"
        },
        {
          "internalType": "address[3]",
          "name": "_guardians",
          "type": "address[3]"
        }
      ],
      "name": "requestLoan",
      "outputs": [],
      "stateMutability": "nonpayable",
      "type": "function"
    },
    {
      "inputs": [
        {
          "internalType": "address[3]",
          "name": "_guardians",
          "type": "address[3]"
        }
      ],
      "name": "setRecoveryGuardians",
      "outputs": [],
      "stateMutability": "nonpayable",
      "type": "function"
    },
    {
      "inputs": [
        {
          "internalType": "address",
          "name": "user",
          "type": "address"
        },
        {
          "internalType": "bool",
          "name": "status",
          "type": "bool"
        }
      ],
      "name": "setWalletLock",
      "outputs": [],
      "stateMutability": "nonpayable",
      "type": "function"
    },
    {
      "inputs": [
        {
          "internalType": "address",
          "name": "newOwner",
          "type": "address"
        }
      ],
      "name": "transferOwnership",
      "outputs": [],
      "stateMutability": "nonpayable",
      "type": "function"
    },
    {
      "inputs": [
        {
          "internalType": "address",
          "name": "",
          "type": "address"
        }
      ],
      "name": "trustScores",
      "outputs": [
        {
          "internalType": "int256",
          "name": "",
          "type": "int256"
        }
      ],
      "stateMutability": "view",
      "type": "function"
    },
    {
      "inputs": [
        {
          "internalType": "address",
          "name": "",
          "type": "address"
        },
        {
          "internalType": "uint256",
          "name": "",
          "type": "uint256"
        }
      ],
      "name": "userRecoveryGuardians",
      "outputs": [
        {
          "internalType": "address",
          "name": "",
          "type": "address"
        }
      ],
      "stateMutability": "view",
      "type": "function"
    }
  ],
  "bytecode": "0x60806040523480156200001157600080fd5b5060405162004dba38038062004dba833981810160405281019062000037919062000293565b33600073ffffffffffffffffffffffffffffffffffffffff168173ffffffffffffffffffffffffffffffffffffffff1603620000ad5760006040517f1e4fbdf7000000000000000000000000000000000000000000000000000000008152600401620000a49190620002d6565b60405180910390fd5b620000be816200013060201b60201c565b506001620000e1620000d5620001f460201b60201c565b6200021f60201b60201c565b6000018190555080600160006101000a81548173ffffffffffffffffffffffffffffffffffffffff021916908373ffffffffffffffffffffffffffffffffffffffff16021790555050620002f3565b60008060009054906101000a900473ffffffffffffffffffffffffffffffffffffffff169050816000806101000a81548173ffffffffffffffffffffffffffffffffffffffff021916908373ffffffffffffffffffffffffffffffffffffffff1602179055508173ffffffffffffffffffffffffffffffffffffffff168173ffffffffffffffffffffffffffffffffffffffff167f8be0079c531659141344cd1fd0a4f28419497f9722a3daafe3b4186f6b6457e060405160405180910390a35050565b60007f9b779b17422d0df92223018b32b4d1fa46e071723d6817e2486d003becc55f0060001b905090565b6000819050919050565b600080fd5b600073ffffffffffffffffffffffffffffffffffffffff82169050919050565b60006200025b826200022e565b9050919050565b6200026d816200024e565b81146200027957600080fd5b50565b6000815190506200028d8162000262565b92915050565b600060208284031215620002ac57620002ab62000229565b5b6000620002bc848285016200027c565b91505092915050565b620002d0816200024e565b82525050565b6000602082019050620002ed6000830184620002c5565b92915050565b614ab780620003036000396000f3fe608060405234801561001057600080fd5b50600436106101a95760003560e01c8063a52d92cf116100f9578063e1d927c811610097578063f2fde38b11610071578063f2fde38b1461050e578063f4512bb61461052a578063fade660814610546578063ff2bcd0814610562576101a9565b8063e1d927c81461049b578063e1ec3c68146104b7578063ed0ffc89146104f2576101a9565b8063ab7b1c89116100d3578063ab7b1c8914610415578063ac9c68d414610431578063d1a287061461044f578063d9f12fdf1461047f576101a9565b8063a52d92cf146103ad578063a8a007e4146103c9578063ab777a45146103f9576101a9565b806368f147251161016657806387c514591161014057806387c51459146103255780638da5cb5b146103435780639445ae04146103615780639614ddd814610391576101a9565b806368f14725146102bb5780636b3ce74f146102eb578063715018a61461031b576101a9565b806312df0fc4146101ae578063349d66cf146101de57806336630cd61461020e57806349bcad0a1461023f5780634a4fbeec1461026f57806360aae9201461029f575b600080fd5b6101c860048036038101906101c391906134bc565b61057e565b6040516101d59190613502565b60405180910390f35b6101f860048036038101906101f39190613553565b610596565b60405161020591906135a2565b60405180910390f35b610228600480360381019061022391906135bd565b6105db565b60405161023692919061360c565b60405180910390f35b610259600480360381019061025491906134bc565b61063c565b6040516102669190613635565b60405180910390f35b610289600480360381019061028491906134bc565b610654565b604051610296919061366b565b60405180910390f35b6102b960048036038101906102b491906136b2565b610674565b005b6102d560048036038101906102d091906136f2565b6107c8565b6040516102e2919061366b565b60405180910390f35b610305600480360381019061030091906134bc565b6107f7565b604051610312919061374e565b60405180910390f35b610323610817565b005b61032d61082b565b60405161033a9190613635565b60405180910390f35b61034b610831565b60405161035891906135a2565b60405180910390f35b61037b600480360381019061037691906134bc565b61085a565b6040516103889190613635565b60405180910390f35b6103ab60048036038101906103a69190613769565b610872565b005b6103c760048036038101906103c29190613769565b610f2f565b005b6103e360048036038101906103de91906134bc565b6111db565b6040516103f091906135a2565b60405180910390f35b610413600480360381019061040e91906137d0565b61120e565b005b61042f600480360381019061042a91906137fd565b611332565b005b6104396119e6565b6040516104469190613889565b60405180910390f35b610469600480360381019061046491906138a4565b611a0c565b604051610476919061366b565b60405180910390f35b610499600480360381019061049491906136f2565b611a48565b005b6104b560048036038101906104b091906137fd565b611b3d565b005b6104d160048036038101906104cc91906137fd565b611f8c565b6040516104e99c9b9a999897969594939291906138f7565b60405180910390f35b61050c600480360381019061050791906137fd565b61204d565b005b610528600480360381019061052391906134bc565b612657565b005b610544600480360381019061053f91906135bd565b6126dd565b005b610560600480360381019061055b9190613af3565b612b7d565b005b61057c600480360381019061057791906137fd565b612e43565b005b60076020528060005260406000206000915090505481565b600960205281600052604060002081600381106105b257600080fd5b016000915091509054906101000a900473ffffffffffffffffffffffffffffffffffffffff1681565b600460205281600052604060002081815481106105f757600080fd5b9060005260206000209060020201600091509150508060000160009054906101000a900473ffffffffffffffffffffffffffffffffffffffff16908060010154905082565b600b6020528060005260406000206000915090505481565b60086020528060005260406000206000915054906101000a900460ff1681565b8173ffffffffffffffffffffffffffffffffffffffff163373ffffffffffffffffffffffffffffffffffffffff1614806106e057506106b1610831565b73ffffffffffffffffffffffffffffffffffffffff163373ffffffffffffffffffffffffffffffffffffffff16145b61071f576040517f08c379a000000000000000000000000000000000000000000000000000000000815260040161071690613ba3565b60405180910390fd5b80600860008473ffffffffffffffffffffffffffffffffffffffff1673ffffffffffffffffffffffffffffffffffffffff16815260200190815260200160002060006101000a81548160ff0219169083151502179055508173ffffffffffffffffffffffffffffffffffffffff167f28d3d7f2bd6ab428a99355b8c20ffc826f9061be615da2f44341df2df113aeb6826040516107bc919061366b565b60405180910390a25050565b60056020528160005260406000206020528060005260406000206000915091509054906101000a900460ff1681565b600d6020528060005260406000206000915054906101000a900460ff1681565b61081f613024565b61082960006130ab565b565b60025481565b60008060009054906101000a900473ffffffffffffffffffffffffffffffffffffffff16905090565b60066020528060005260406000206000915090505481565b61087c823361316f565b6108bb576040517f08c379a00000000000000000000000000000000000000000000000000000000081526004016108b290613c0f565b60405180910390fd5b8073ffffffffffffffffffffffffffffffffffffffff16600a60008473ffffffffffffffffffffffffffffffffffffffff1673ffffffffffffffffffffffffffffffffffffffff16815260200190815260200160002060009054906101000a900473ffffffffffffffffffffffffffffffffffffffff1673ffffffffffffffffffffffffffffffffffffffff1614610988576040517f08c379a000000000000000000000000000000000000000000000000000000000815260040161097f90613c7b565b60405180910390fd5b600c60008373ffffffffffffffffffffffffffffffffffffffff1673ffffffffffffffffffffffffffffffffffffffff1681526020019081526020016000206000600b60008573ffffffffffffffffffffffffffffffffffffffff1673ffffffffffffffffffffffffffffffffffffffff16815260200190815260200160002054815260200190815260200160002060003373ffffffffffffffffffffffffffffffffffffffff1673ffffffffffffffffffffffffffffffffffffffff16815260200190815260200160002060009054906101000a900460ff1615610aa2576040517f08c379a0000000000000000000000000000000000000000000000000000000008152600401610a9990613ce7565b60405180910390fd5b6001600c60008473ffffffffffffffffffffffffffffffffffffffff1673ffffffffffffffffffffffffffffffffffffffff1681526020019081526020016000206000600b60008673ffffffffffffffffffffffffffffffffffffffff1673ffffffffffffffffffffffffffffffffffffffff16815260200190815260200160002054815260200190815260200160002060003373ffffffffffffffffffffffffffffffffffffffff1673ffffffffffffffffffffffffffffffffffffffff16815260200190815260200160002060006101000a81548160ff021916908315150217905550600d60008373ffffffffffffffffffffffffffffffffffffffff1673ffffffffffffffffffffffffffffffffffffffff168152602001908152602001600020600081819054906101000a900460ff1680929190610be390613d36565b91906101000a81548160ff021916908360ff160217905550506002600d60008473ffffffffffffffffffffffffffffffffffffffff1673ffffffffffffffffffffffffffffffffffffffff16815260200190815260200160002060009054906101000a900460ff1660ff1610610f2b57600760008373ffffffffffffffffffffffffffffffffffffffff1673ffffffffffffffffffffffffffffffffffffffff16815260200190815260200160002054600760008373ffffffffffffffffffffffffffffffffffffffff1673ffffffffffffffffffffffffffffffffffffffff168152602001908152602001600020819055506000600760008473ffffffffffffffffffffffffffffffffffffffff1673ffffffffffffffffffffffffffffffffffffffff16815260200190815260200160002081905550600860008373ffffffffffffffffffffffffffffffffffffffff1673ffffffffffffffffffffffffffffffffffffffff16815260200190815260200160002060009054906101000a900460ff16600860008373ffffffffffffffffffffffffffffffffffffffff1673ffffffffffffffffffffffffffffffffffffffff16815260200190815260200160002060006101000a81548160ff021916908315150217905550600660008373ffffffffffffffffffffffffffffffffffffffff1673ffffffffffffffffffffffffffffffffffffffff16815260200190815260200160002054600660008373ffffffffffffffffffffffffffffffffffffffff1673ffffffffffffffffffffffffffffffffffffffff168152602001908152602001600020819055506103e7600660008473ffffffffffffffffffffffffffffffffffffffff1673ffffffffffffffffffffffffffffffffffffffff16815260200190815260200160002081905550600b60008373ffffffffffffffffffffffffffffffffffffffff1673ffffffffffffffffffffffffffffffffffffffff1681526020019081526020016000206000815480929190610ed790613d5f565b91905055508173ffffffffffffffffffffffffffffffffffffffff167fa21ddbc03abf84198e4d9ac1758f66585d389637848501302cebbcbe38bf847182604051610f2291906135a2565b60405180910390a25b5050565b610f39823361316f565b610f78576040517f08c379a0000000000000000000000000000000000000000000000000000000008152600401610f6f90613c0f565b60405180910390fd5b600b60008373ffffffffffffffffffffffffffffffffffffffff1673ffffffffffffffffffffffffffffffffffffffff1681526020019081526020016000206000815480929190610fc890613d5f565b919050555080600a60008473ffffffffffffffffffffffffffffffffffffffff1673ffffffffffffffffffffffffffffffffffffffff16815260200190815260200160002060006101000a81548173ffffffffffffffffffffffffffffffffffffffff021916908373ffffffffffffffffffffffffffffffffffffffff1602179055506001600d60008473ffffffffffffffffffffffffffffffffffffffff1673ffffffffffffffffffffffffffffffffffffffff16815260200190815260200160002060006101000a81548160ff021916908360ff1602179055506001600c60008473ffffffffffffffffffffffffffffffffffffffff1673ffffffffffffffffffffffffffffffffffffffff1681526020019081526020016000206000600b60008673ffffffffffffffffffffffffffffffffffffffff1673ffffffffffffffffffffffffffffffffffffffff16815260200190815260200160002054815260200190815260200160002060003373ffffffffffffffffffffffffffffffffffffffff1673ffffffffffffffffffffffffffffffffffffffff16815260200190815260200160002060006101000a81548160ff0219169083151502179055508173ffffffffffffffffffffffffffffffffffffffff167fe7eb1bf44bc7e6084d5d89f19e76a2b46fed60ff3eb9e650f3db79a386391c61826040516111cf91906135a2565b60405180910390a25050565b600a6020528060005260406000206000915054906101000a900473ffffffffffffffffffffffffffffffffffffffff1681565b33600860008273ffffffffffffffffffffffffffffffffffffffff1673ffffffffffffffffffffffffffffffffffffffff16815260200190815260200160002060009054906101000a900460ff161561129c576040517f08c379a000000000000000000000000000000000000000000000000000000000815260040161129390613e19565b60405180910390fd5b81600960003373ffffffffffffffffffffffffffffffffffffffff1673ffffffffffffffffffffffffffffffffffffffff1681526020019081526020016000209060036112ea929190613322565b503373ffffffffffffffffffffffffffffffffffffffff167fd4b9ec87acfdadec1158e8beffd74fc73008966099325e4a60a9ee7897c328f660405160405180910390a25050565b33600860008273ffffffffffffffffffffffffffffffffffffffff1673ffffffffffffffffffffffffffffffffffffffff16815260200190815260200160002060009054906101000a900460ff16156113c0576040517f08c379a00000000000000000000000000000000000000000000000000000000081526004016113b790613e19565b60405180910390fd5b6113c8613248565b60006003600084815260200190815260200160002090508060080160029054906101000a900460ff16611430576040517f08c379a000000000000000000000000000000000000000000000000000000000815260040161142790613e85565b60405180910390fd5b8060080160039054906101000a900460ff1615611482576040517f08c379a000000000000000000000000000000000000000000000000000000000815260040161147990613ef1565b60405180910390fd5b8060080160049054906101000a900460ff16156114d4576040517f08c379a00000000000000000000000000000000000000000000000000000000081526004016114cb90613f5d565b60405180910390fd5b60018160080160036101000a81548160ff0219169083151502179055506001600760008360040160009054906101000a900473ffffffffffffffffffffffffffffffffffffffff1673ffffffffffffffffffffffffffffffffffffffff1673ffffffffffffffffffffffffffffffffffffffff16815260200190815260200160002060008282546115659190613f7d565b925050819055506000600660008360040160009054906101000a900473ffffffffffffffffffffffffffffffffffffffff1673ffffffffffffffffffffffffffffffffffffffff1673ffffffffffffffffffffffffffffffffffffffff168152602001908152602001600020541115611654576001600660008360040160009054906101000a900473ffffffffffffffffffffffffffffffffffffffff1673ffffffffffffffffffffffffffffffffffffffff1673ffffffffffffffffffffffffffffffffffffffff168152602001908152602001600020600082825461164c9190613fc1565b925050819055505b60008160030154826001015461166a9190613ff5565b9050600160009054906101000a900473ffffffffffffffffffffffffffffffffffffffff1673ffffffffffffffffffffffffffffffffffffffff166323b872dd3330846040518463ffffffff1660e01b81526004016116cb93929190614029565b6020604051808303816000875af11580156116ea573d6000803e3d6000fd5b505050506040513d601f19601f8201168201806040525081019061170e9190614075565b61174d576040517f08c379a0000000000000000000000000000000000000000000000000000000008152600401611744906140ee565b60405180910390fd5b600060046000868152602001908152602001600020805480602002602001604051908101604052809291908181526020016000905b8282101561181457838290600052602060002090600202016040518060400160405290816000820160009054906101000a900473ffffffffffffffffffffffffffffffffffffffff1673ffffffffffffffffffffffffffffffffffffffff1673ffffffffffffffffffffffffffffffffffffffff16815260200160018201548152505081526020019060010190611782565b50505050905060005b815181101561196e57600084600101548383815181106118405761183f61410e565b5b60200260200101516020015185611857919061413d565b61186191906141ae565b9050600160009054906101000a900473ffffffffffffffffffffffffffffffffffffffff1673ffffffffffffffffffffffffffffffffffffffff1663a9059cbb8484815181106118b4576118b361410e565b5b602002602001015160000151836040518363ffffffff1660e01b81526004016118de92919061360c565b6020604051808303816000875af11580156118fd573d6000803e3d6000fd5b505050506040513d601f19601f820116820180604052508101906119219190614075565b611960576040517f08c379a00000000000000000000000000000000000000000000000000000000081526004016119579061422b565b60405180910390fd5b50808060010191505061181d565b508260040160009054906101000a900473ffffffffffffffffffffffffffffffffffffffff1673ffffffffffffffffffffffffffffffffffffffff16857fe69d7686a8bc68278b8c5419579f91716b3ef2ac2fac0d8cf80b8011f8f458a460405160405180910390a35050506119e261326b565b5050565b600160009054906101000a900473ffffffffffffffffffffffffffffffffffffffff1681565b600c602052826000526040600020602052816000526040600020602052806000526040600020600092509250509054906101000a900460ff1681565b611a50613248565b600160009054906101000a900473ffffffffffffffffffffffffffffffffffffffff1673ffffffffffffffffffffffffffffffffffffffff166323b872dd3383856040518463ffffffff1660e01b8152600401611aaf93929190614029565b6020604051808303816000875af1158015611ace573d6000803e3d6000fd5b505050506040513d601f19601f82011682018060405250810190611af29190614075565b611b31576040517f08c379a0000000000000000000000000000000000000000000000000000000008152600401611b2890614297565b60405180910390fd5b611b3961326b565b5050565b60006003600083815260200190815260200160002090508060080160029054906101000a900460ff16611ba5576040517f08c379a0000000000000000000000000000000000000000000000000000000008152600401611b9c90613e85565b60405180910390fd5b8060080160039054906101000a900460ff1615611bf7576040517f08c379a0000000000000000000000000000000000000000000000000000000008152600401611bee90613ef1565b60405180910390fd5b8060080160049054906101000a900460ff1615611c49576040517f08c379a0000000000000000000000000000000000000000000000000000000008152600401611c4090614303565b60405180910390fd5b6000611c53610831565b73ffffffffffffffffffffffffffffffffffffffff163373ffffffffffffffffffffffffffffffffffffffff1614611dc457600060046000858152602001908152602001600020805480602002602001604051908101604052809291908181526020016000905b82821015611d4c57838290600052602060002090600202016040518060400160405290816000820160009054906101000a900473ffffffffffffffffffffffffffffffffffffffff1673ffffffffffffffffffffffffffffffffffffffff1673ffffffffffffffffffffffffffffffffffffffff16815260200160018201548152505081526020019060010190611cba565b50505050905060005b8151811015611dc1573373ffffffffffffffffffffffffffffffffffffffff16828281518110611d8857611d8761410e565b5b60200260200101516000015173ffffffffffffffffffffffffffffffffffffffff1603611db457600192505b8080600101915050611d55565b50505b8080611e025750611dd3610831565b73ffffffffffffffffffffffffffffffffffffffff163373ffffffffffffffffffffffffffffffffffffffff16145b611e41576040517f08c379a0000000000000000000000000000000000000000000000000000000008152600401611e389061436f565b60405180910390fd5b81600a01544211611e87576040517f08c379a0000000000000000000000000000000000000000000000000000000008152600401611e7e906143db565b60405180910390fd5b60018260080160046101000a81548160ff0219169083151502179055506001600760008460040160009054906101000a900473ffffffffffffffffffffffffffffffffffffffff1673ffffffffffffffffffffffffffffffffffffffff1673ffffffffffffffffffffffffffffffffffffffff1681526020019081526020016000206000828254611f1891906143fb565b925050819055508160040160009054906101000a900473ffffffffffffffffffffffffffffffffffffffff1673ffffffffffffffffffffffffffffffffffffffff16837f13b88e6866f0156d706fecfa22b678de5fc2b749c1d2307f6f47eb541385f1ec60405160405180910390a3505050565b60036020528060005260406000206000915090508060000154908060010154908060020154908060030154908060040160009054906101000a900473ffffffffffffffffffffffffffffffffffffffff16908060080160009054906101000a900460ff16908060080160019054906101000a900460ff16908060080160029054906101000a900460ff16908060080160039054906101000a900460ff16908060080160049054906101000a900460ff169080600901549080600a015490508c565b612055613248565b33600860008273ffffffffffffffffffffffffffffffffffffffff1673ffffffffffffffffffffffffffffffffffffffff16815260200190815260200160002060009054906101000a900460ff16156120e3576040517f08c379a00000000000000000000000000000000000000000000000000000000081526004016120da90613e19565b60405180910390fd5b6000600360008481526020019081526020016000209050600860008260040160009054906101000a900473ffffffffffffffffffffffffffffffffffffffff1673ffffffffffffffffffffffffffffffffffffffff1673ffffffffffffffffffffffffffffffffffffffff16815260200190815260200160002060009054906101000a900460ff16156121ab576040517f08c379a00000000000000000000000000000000000000000000000000000000081526004016121a2906144b0565b60405180910390fd5b8060080160019054906101000a900460ff166121fc576040517f08c379a00000000000000000000000000000000000000000000000000000000081526004016121f39061451c565b60405180910390fd5b8060080160029054906101000a900460ff161561224e576040517f08c379a000000000000000000000000000000000000000000000000000000000815260040161224590614588565b60405180910390fd5b6005600084815260200190815260200160002060003373ffffffffffffffffffffffffffffffffffffffff1673ffffffffffffffffffffffffffffffffffffffff16815260200190815260200160002060009054906101000a900460ff16156122ec576040517f08c379a00000000000000000000000000000000000000000000000000000000081526004016122e390613ce7565b60405180910390fd5b6000805b6003811015612379573373ffffffffffffffffffffffffffffffffffffffff168360050182600381106123265761232561410e565b5b0160009054906101000a900473ffffffffffffffffffffffffffffffffffffffff1673ffffffffffffffffffffffffffffffffffffffff160361236c5760019150612379565b80806001019150506122f0565b50806123ba576040517f08c379a00000000000000000000000000000000000000000000000000000000081526004016123b1906145f4565b60405180910390fd5b60016005600086815260200190815260200160002060003373ffffffffffffffffffffffffffffffffffffffff1673ffffffffffffffffffffffffffffffffffffffff16815260200190815260200160002060006101000a81548160ff02191690831515021790555060018260080160008282829054906101000a900460ff166124449190614614565b92506101000a81548160ff021916908360ff1602179055503373ffffffffffffffffffffffffffffffffffffffff16847f0cf555645adbb2b904098fcc38421172408010d5bd0c49188d6b6d8684c99f7f60405160405180910390a360028260080160009054906101000a900460ff1660ff16106126495760018260080160026101000a81548160ff021916908315150217905550600160009054906101000a900473ffffffffffffffffffffffffffffffffffffffff1673ffffffffffffffffffffffffffffffffffffffff1663a9059cbb8360040160009054906101000a900473ffffffffffffffffffffffffffffffffffffffff1684600101546040518363ffffffff1660e01b815260040161255e92919061360c565b6020604051808303816000875af115801561257d573d6000803e3d6000fd5b505050506040513d601f19601f820116820180604052508101906125a19190614075565b6125e0576040517f08c379a00000000000000000000000000000000000000000000000000000000081526004016125d790614695565b60405180910390fd5b8160040160009054906101000a900473ffffffffffffffffffffffffffffffffffffffff1673ffffffffffffffffffffffffffffffffffffffff16847f9e003ed43b1d48ee01bd3dab23f09cfefaa5155ccae549cf83967adf17e8492660405160405180910390a35b50505061265461326b565b50565b61265f613024565b600073ffffffffffffffffffffffffffffffffffffffff168173ffffffffffffffffffffffffffffffffffffffff16036126d15760006040517f1e4fbdf70000000000000000000000000000000000000000000000000000000081526004016126c891906135a2565b60405180910390fd5b6126da816130ab565b50565b33600860008273ffffffffffffffffffffffffffffffffffffffff1673ffffffffffffffffffffffffffffffffffffffff16815260200190815260200160002060009054906101000a900460ff161561276b576040517f08c379a000000000000000000000000000000000000000000000000000000000815260040161276290613e19565b60405180910390fd5b612773613248565b600082116127b6576040517f08c379a00000000000000000000000000000000000000000000000000000000081526004016127ad90614701565b60405180910390fd5b6000600360008581526020019081526020016000209050600073ffffffffffffffffffffffffffffffffffffffff168160040160009054906101000a900473ffffffffffffffffffffffffffffffffffffffff1673ffffffffffffffffffffffffffffffffffffffff1603612860576040517f08c379a00000000000000000000000000000000000000000000000000000000081526004016128579061476d565b60405180910390fd5b8060080160019054906101000a900460ff16156128b2576040517f08c379a00000000000000000000000000000000000000000000000000000000081526004016128a9906147d9565b60405180910390fd5b80600901544211156128f9576040517f08c379a00000000000000000000000000000000000000000000000000000000081526004016128f090614845565b60405180910390fd5b60008160020154826001015461290f9190613fc1565b905060008185116129205784612922565b815b9050808360020160008282546129389190613ff5565b925050819055506004600087815260200190815260200160002060405180604001604052803373ffffffffffffffffffffffffffffffffffffffff16815260200183815250908060018154018082558091505060019003906000526020600020906002020160009091909190915060008201518160000160006101000a81548173ffffffffffffffffffffffffffffffffffffffff021916908373ffffffffffffffffffffffffffffffffffffffff160217905550602082015181600101555050600160009054906101000a900473ffffffffffffffffffffffffffffffffffffffff1673ffffffffffffffffffffffffffffffffffffffff166323b872dd3330846040518463ffffffff1660e01b8152600401612a5893929190614029565b6020604051808303816000875af1158015612a77573d6000803e3d6000fd5b505050506040513d601f19601f82011682018060405250810190612a9b9190614075565b612ada576040517f08c379a0000000000000000000000000000000000000000000000000000000008152600401612ad1906148b1565b60405180910390fd5b8260010154836002015403612b1e5760018360080160016101000a81548160ff02191690831515021790555062278d0042612b159190613ff5565b83600a01819055505b3373ffffffffffffffffffffffffffffffffffffffff16867fbd7ef6c6281278f6c8ac4ae9ef2f205b52425813c288dd47c377cb6b59c5076e83604051612b659190613635565b60405180910390a3505050612b7861326b565b505050565b33600860008273ffffffffffffffffffffffffffffffffffffffff1673ffffffffffffffffffffffffffffffffffffffff16815260200190815260200160002060009054906101000a900460ff1615612c0b576040517f08c379a0000000000000000000000000000000000000000000000000000000008152600401612c0290613e19565b60405180910390fd5b60008411612c4e576040517f08c379a0000000000000000000000000000000000000000000000000000000008152600401612c459061491d565b60405180910390fd5b6002600660003373ffffffffffffffffffffffffffffffffffffffff1673ffffffffffffffffffffffffffffffffffffffff1681526020019081526020016000205410612cd0576040517f08c379a0000000000000000000000000000000000000000000000000000000008152600401612cc790614989565b60405180910390fd5b6001600660003373ffffffffffffffffffffffffffffffffffffffff1673ffffffffffffffffffffffffffffffffffffffff1681526020019081526020016000206000828254612d209190613ff5565b92505081905550600060026000815480929190612d3c90613d5f565b919050559050600060036000838152602001908152602001600020905081816000018190555085816001018190555060008160020181905550848160030181905550338160040160006101000a81548173ffffffffffffffffffffffffffffffffffffffff021916908373ffffffffffffffffffffffffffffffffffffffff1602179055508381600501906003612dd49291906133b5565b506203f48042612de49190613ff5565b81600901819055503373ffffffffffffffffffffffffffffffffffffffff16827f97e04be2fd6414727fe9d0400464568f4384aa8b06264119565ca8f6cc2a4b7a88604051612e339190613635565b60405180910390a3505050505050565b33600860008273ffffffffffffffffffffffffffffffffffffffff1673ffffffffffffffffffffffffffffffffffffffff16815260200190815260200160002060009054906101000a900460ff1615612ed1576040517f08c379a0000000000000000000000000000000000000000000000000000000008152600401612ec890613e19565b60405180910390fd5b60006003600084815260200190815260200160002090503373ffffffffffffffffffffffffffffffffffffffff168160040160009054906101000a900473ffffffffffffffffffffffffffffffffffffffff1673ffffffffffffffffffffffffffffffffffffffff1614612f7a576040517f08c379a0000000000000000000000000000000000000000000000000000000008152600401612f71906149f5565b60405180910390fd5b8060080160019054906101000a900460ff1615612fcc576040517f08c379a0000000000000000000000000000000000000000000000000000000008152600401612fc390614a61565b60405180910390fd5b6203f48042612fdb9190613ff5565b8160090181905550827ffa3ea27c137c6cfc3472a51d519055b4da1c4e591037055ab32748a903c19bc482600901546040516130179190613635565b60405180910390a2505050565b61302c613286565b73ffffffffffffffffffffffffffffffffffffffff1661304a610831565b73ffffffffffffffffffffffffffffffffffffffff16146130a95761306d613286565b6040517f118cdaa70000000000000000000000000000000000000000000000000000000081526004016130a091906135a2565b60405180910390fd5b565b60008060009054906101000a900473ffffffffffffffffffffffffffffffffffffffff169050816000806101000a81548173ffffffffffffffffffffffffffffffffffffffff021916908373ffffffffffffffffffffffffffffffffffffffff1602179055508173ffffffffffffffffffffffffffffffffffffffff168173ffffffffffffffffffffffffffffffffffffffff167f8be0079c531659141344cd1fd0a4f28419497f9722a3daafe3b4186f6b6457e060405160405180910390a35050565b600080600090505b600381101561323c578273ffffffffffffffffffffffffffffffffffffffff16600960008673ffffffffffffffffffffffffffffffffffffffff1673ffffffffffffffffffffffffffffffffffffffff16815260200190815260200160002082600381106131e8576131e761410e565b5b0160009054906101000a900473ffffffffffffffffffffffffffffffffffffffff1673ffffffffffffffffffffffffffffffffffffffff160361322f576001915050613242565b8080600101915050613177565b50600090505b92915050565b61325061328e565b600261326261325d6132cf565b6132fa565b60000181905550565b600161327d6132786132cf565b6132fa565b60000181905550565b600033905090565b613296613304565b156132cd576040517f3ee5aeb500000000000000000000000000000000000000000000000000000000815260040160405180910390fd5b565b60007f9b779b17422d0df92223018b32b4d1fa46e071723d6817e2486d003becc55f0060001b905090565b6000819050919050565b600060026133186133136132cf565b6132fa565b6000015414905090565b82600381019282156133a4579160200282015b828111156133a357823573ffffffffffffffffffffffffffffffffffffffff168260006101000a81548173ffffffffffffffffffffffffffffffffffffffff021916908373ffffffffffffffffffffffffffffffffffffffff16021790555091602001919060010190613335565b5b5090506133b19190613432565b5090565b8260038101928215613421579160200282015b828111156134205782518260006101000a81548173ffffffffffffffffffffffffffffffffffffffff021916908373ffffffffffffffffffffffffffffffffffffffff160217905550916020019190600101906133c8565b5b50905061342e9190613432565b5090565b5b8082111561344b576000816000905550600101613433565b5090565b6000604051905090565b600080fd5b600073ffffffffffffffffffffffffffffffffffffffff82169050919050565b60006134898261345e565b9050919050565b6134998161347e565b81146134a457600080fd5b50565b6000813590506134b681613490565b92915050565b6000602082840312156134d2576134d1613459565b5b60006134e0848285016134a7565b91505092915050565b6000819050919050565b6134fc816134e9565b82525050565b600060208201905061351760008301846134f3565b92915050565b6000819050919050565b6135308161351d565b811461353b57600080fd5b50565b60008135905061354d81613527565b92915050565b6000806040838503121561356a57613569613459565b5b6000613578858286016134a7565b92505060206135898582860161353e565b9150509250929050565b61359c8161347e565b82525050565b60006020820190506135b76000830184613593565b92915050565b600080604083850312156135d4576135d3613459565b5b60006135e28582860161353e565b92505060206135f38582860161353e565b9150509250929050565b6136068161351d565b82525050565b60006040820190506136216000830185613593565b61362e60208301846135fd565b9392505050565b600060208201905061364a60008301846135fd565b92915050565b60008115159050919050565b61366581613650565b82525050565b6000602082019050613680600083018461365c565b92915050565b61368f81613650565b811461369a57600080fd5b50565b6000813590506136ac81613686565b92915050565b600080604083850312156136c9576136c8613459565b5b60006136d7858286016134a7565b92505060206136e88582860161369d565b9150509250929050565b6000806040838503121561370957613708613459565b5b60006137178582860161353e565b9250506020613728858286016134a7565b9150509250929050565b600060ff82169050919050565b61374881613732565b82525050565b6000602082019050613763600083018461373f565b92915050565b600080604083850312156137805761377f613459565b5b600061378e858286016134a7565b925050602061379f858286016134a7565b9150509250929050565b600080fd5b6000819050826020600302820111156137ca576137c96137a9565b5b92915050565b6000606082840312156137e6576137e5613459565b5b60006137f4848285016137ae565b91505092915050565b60006020828403121561381357613812613459565b5b60006138218482850161353e565b91505092915050565b6000819050919050565b600061384f61384a6138458461345e565b61382a565b61345e565b9050919050565b600061386182613834565b9050919050565b600061387382613856565b9050919050565b61388381613868565b82525050565b600060208201905061389e600083018461387a565b92915050565b6000806000606084860312156138bd576138bc613459565b5b60006138cb868287016134a7565b93505060206138dc8682870161353e565b92505060406138ed868287016134a7565b9150509250925092565b60006101808201905061390d600083018f6135fd565b61391a602083018e6135fd565b613927604083018d6135fd565b613934606083018c6135fd565b613941608083018b613593565b61394e60a083018a61373f565b61395b60c083018961365c565b61396860e083018861365c565b61397661010083018761365c565b61398461012083018661365c565b6139926101408301856135fd565b6139a06101608301846135fd565b9d9c50505050505050505050505050565b600080fd5b6000601f19601f8301169050919050565b7f4e487b7100000000000000000000000000000000000000000000000000000000600052604160045260246000fd5b6139ff826139b6565b810181811067ffffffffffffffff82111715613a1e57613a1d6139c7565b5b80604052505050565b6000613a3161344f565b9050613a3d82826139f6565b919050565b600067ffffffffffffffff821115613a5d57613a5c6139c7565b5b602082029050919050565b6000613a7b613a7684613a42565b613a27565b90508060208402830185811115613a9557613a946137a9565b5b835b81811015613abe5780613aaa88826134a7565b845260208401935050602081019050613a97565b5050509392505050565b600082601f830112613add57613adc6139b1565b5b6003613aea848285613a68565b91505092915050565b600080600060a08486031215613b0c57613b0b613459565b5b6000613b1a8682870161353e565b9350506020613b2b8682870161353e565b9250506040613b3c86828701613ac8565b9150509250925092565b600082825260208201905092915050565b7f4c6f616e506f7563683a204e6f7420617574686f72697a656400000000000000600082015250565b6000613b8d601983613b46565b9150613b9882613b57565b602082019050919050565b60006020820190508181036000830152613bbc81613b80565b9050919050565b7f4e6f742061207265636f7665727920677561726469616e000000000000000000600082015250565b6000613bf9601783613b46565b9150613c0482613bc3565b602082019050919050565b60006020820190508181036000830152613c2881613bec565b9050919050565b7f546172676574206d69736d617463680000000000000000000000000000000000600082015250565b6000613c65600f83613b46565b9150613c7082613c2f565b602082019050919050565b60006020820190508181036000830152613c9481613c58565b9050919050565b7f416c726561647920617070726f76656400000000000000000000000000000000600082015250565b6000613cd1601083613b46565b9150613cdc82613c9b565b602082019050919050565b60006020820190508181036000830152613d0081613cc4565b9050919050565b7f4e487b7100000000000000000000000000000000000000000000000000000000600052601160045260246000fd5b6000613d4182613732565b915060ff8203613d5457613d53613d07565b5b600182019050919050565b6000613d6a8261351d565b91507fffffffffffffffffffffffffffffffffffffffffffffffffffffffffffffffff8203613d9c57613d9b613d07565b5b600182019050919050565b7f4c6f616e506f7563683a2057616c6c6574206973206c6f636b6564207669612060008201527f534d5320656d657267656e6379206d6f64650000000000000000000000000000602082015250565b6000613e03603283613b46565b9150613e0e82613da7565b604082019050919050565b60006020820190508181036000830152613e3281613df6565b9050919050565b7f4c6f616e206e6f74206469736275727365640000000000000000000000000000600082015250565b6000613e6f601283613b46565b9150613e7a82613e39565b602082019050919050565b60006020820190508181036000830152613e9e81613e62565b9050919050565b7f416c726561647920726570616964000000000000000000000000000000000000600082015250565b6000613edb600e83613b46565b9150613ee682613ea5565b602082019050919050565b60006020820190508181036000830152613f0a81613ece565b9050919050565b7f4c6f616e20697320696e2064656661756c742073746174650000000000000000600082015250565b6000613f47601883613b46565b9150613f5282613f11565b602082019050919050565b60006020820190508181036000830152613f7681613f3a565b9050919050565b6000613f88826134e9565b9150613f93836134e9565b925082820190508281121560008312168382126000841215161715613fbb57613fba613d07565b5b92915050565b6000613fcc8261351d565b9150613fd78361351d565b9250828203905081811115613fef57613fee613d07565b5b92915050565b60006140008261351d565b915061400b8361351d565b925082820190508082111561402357614022613d07565b5b92915050565b600060608201905061403e6000830186613593565b61404b6020830185613593565b61405860408301846135fd565b949350505050565b60008151905061406f81613686565b92915050565b60006020828403121561408b5761408a613459565b5b600061409984828501614060565b91505092915050565b7f52657061796d656e74207472616e73666572206661696c656400000000000000600082015250565b60006140d8601983613b46565b91506140e3826140a2565b602082019050919050565b60006020820190508181036000830152614107816140cb565b9050919050565b7f4e487b7100000000000000000000000000000000000000000000000000000000600052603260045260246000fd5b60006141488261351d565b91506141538361351d565b92508282026141618161351d565b9150828204841483151761417857614177613d07565b5b5092915050565b7f4e487b7100000000000000000000000000000000000000000000000000000000600052601260045260246000fd5b60006141b98261351d565b91506141c48361351d565b9250826141d4576141d361417f565b5b828204905092915050565b7f446973747269627574696f6e206661696c656400000000000000000000000000600082015250565b6000614215601383613b46565b9150614220826141df565b602082019050919050565b6000602082019050818103600083015261424481614208565b9050919050565b7f50616e6963207472616e73666572206661696c65640000000000000000000000600082015250565b6000614281601583613b46565b915061428c8261424b565b602082019050919050565b600060208201905081810360008301526142b081614274565b9050919050565b7f416c72656164792064656661756c746564000000000000000000000000000000600082015250565b60006142ed601183613b46565b91506142f8826142b7565b602082019050919050565b6000602082019050818103600083015261431c816142e0565b9050919050565b7f4e6f7420617574686f72697a6564000000000000000000000000000000000000600082015250565b6000614359600e83613b46565b915061436482614323565b602082019050919050565b600060208201905081810360008301526143888161434c565b9050919050565b7f446561646c696e65206e6f742070617373656400000000000000000000000000600082015250565b60006143c5601383613b46565b91506143d08261438f565b602082019050919050565b600060208201905081810360008301526143f4816143b8565b9050919050565b6000614406826134e9565b9150614411836134e9565b925082820390508181126000841216828213600085121516171561443857614437613d07565b5b92915050565b7f4c6f616e506f7563683a20426f72726f7765722077616c6c6574206973206c6f60008201527f636b656400000000000000000000000000000000000000000000000000000000602082015250565b600061449a602483613b46565b91506144a58261443e565b604082019050919050565b600060208201905081810360008301526144c98161448d565b9050919050565b7f4c6f616e206d7573742062652066756e64656420666972737400000000000000600082015250565b6000614506601983613b46565b9150614511826144d0565b602082019050919050565b60006020820190508181036000830152614535816144f9565b9050919050565b7f4c6f616e20616c72656164792064697362757273656400000000000000000000600082015250565b6000614572601683613b46565b915061457d8261453c565b602082019050919050565b600060208201905081810360008301526145a181614565565b9050919050565b7f4e6f7420612064657369676e6174656420657363726f7720677561726469616e600082015250565b60006145de602083613b46565b91506145e9826145a8565b602082019050919050565b6000602082019050818103600083015261460d816145d1565b9050919050565b600061461f82613732565b915061462a83613732565b9250828201905060ff81111561464357614642613d07565b5b92915050565b7f44697362757273656d656e74206661696c656400000000000000000000000000600082015250565b600061467f601383613b46565b915061468a82614649565b602082019050919050565b600060208201905081810360008301526146ae81614672565b9050919050565b7f416d6f756e74203e203000000000000000000000000000000000000000000000600082015250565b60006146eb600a83613b46565b91506146f6826146b5565b602082019050919050565b6000602082019050818103600083015261471a816146de565b9050919050565b7f4c6f616e20646f6573206e6f7420657869737400000000000000000000000000600082015250565b6000614757601383613b46565b915061476282614721565b602082019050919050565b600060208201905081810360008301526147868161474a565b9050919050565b7f4c6f616e20616c72656164792066756c6c792066756e64656400000000000000600082015250565b60006147c3601983613b46565b91506147ce8261478d565b602082019050919050565b600060208201905081810360008301526147f2816147b6565b9050919050565b7f4c6f616e20726571756573742068617320657870697265640000000000000000600082015250565b600061482f601883613b46565b915061483a826147f9565b602082019050919050565b6000602082019050818103600083015261485e81614822565b9050919050565b7f5472616e73666572206661696c65640000000000000000000000000000000000600082015250565b600061489b600f83613b46565b91506148a682614865565b602082019050919050565b600060208201905081810360008301526148ca8161488e565b9050919050565b7f416d6f756e74206d757374206265203e20300000000000000000000000000000600082015250565b6000614907601283613b46565b9150614912826148d1565b602082019050919050565b60006020820190508181036000830152614936816148fa565b9050919050565b7f4d6178203220616374697665206c6f616e7320616c6c6f776564000000000000600082015250565b6000614973601a83613b46565b915061497e8261493d565b602082019050919050565b600060208201905081810360008301526149a281614966565b9050919050565b7f4f6e6c7920626f72726f7765722063616e2072656e6577000000000000000000600082015250565b60006149df601783613b46565b91506149ea826149a9565b602082019050919050565b60006020820190508181036000830152614a0e816149d2565b9050919050565b7f416c72656164792066756e646564000000000000000000000000000000000000600082015250565b6000614a4b600e83613b46565b9150614a5682614a15565b602082019050919050565b60006020820190508181036000830152614a7a81614a3e565b905091905056fea26469706673582212203a9d0d3b9ab1e4b34b1046e2ef8d060d048f6d0e120f7acfe60b8d8b7d22516064736f6c63430008180033",
  "linkReferences": {},
  "deployedLinkReferences": {}
}